{"abi":[{"type":"function","name":"isCharInString","inputs":[{"name":"str","type":"string","internalType":"string"},{"name":"ch","type":"bytes1","internalType":"bytes1"}],"outputs":[{"name":"","type":"bool","internalType":"bool"}],"stateMutability":"pure"}],"bytecode":{"object":"0x610201610039600b82828239805160001a607314602c57634e487b7160e01b600052600060045260246000fd5b30600052607381538281f3fe73000000000000000000000000000000000000000030146080604052600436106100355760003560e01c80635f8b54e81461003a575b600080fd5b61004d6100483660046100f3565b610061565b604051901515815260200160405180910390f35b600082815b81518110156100b357836001600160f81b03191682828151811061008c5761008c6101b5565b01602001516001600160f81b031916036100ab576001925050506100ba565b600101610066565b5060009150505b92915050565b634e487b7160e01b600052604160045260246000fd5b80356001600160f81b0319811681146100ee57600080fd5b919050565b6000806040838503121561010657600080fd5b823567ffffffffffffffff8082111561011e57600080fd5b818501915085601f83011261013257600080fd5b813581811115610144576101446100c0565b604051601f8201601f19908116603f0116810190838211818310171561016c5761016c6100c0565b8160405282815288602084870101111561018557600080fd5b8260208601602083013760006020848301015280965050505050506101ac602084016100d6565b90509250929050565b634e487b7160e01b600052603260045260246000fdfea2646970667358221220d4b0889e5522558a743e78761f4c8ee1669fbf8f9fa3f4bda2c2c5603ac98c5964736f6c63430008190033","linkReferences":{}},"methodIdentifiers":{"isCharInString(string,bytes1)":"5f8b54e8"},"id":18}