{"abi":[{"type":"constructor","inputs":[{"name":"name","type":"string","internalType":"string"},{"name":"symbol","type":"string","internalType":"string"}],"stateMutability":"nonpayable"},{"type":"function","name":"addLockedToken","inputs":[{"name":"tokenID","type":"uint256","internalType":"uint256"},{"name":"LockedContract","type":"address","internalType":"address"},{"name":"LockedID","type":"uint256","internalType":"uint256"}],"outputs":[],"stateMutability":"nonpayable"},{"type":"function","name":"approve","inputs":[{"name":"to","type":"address","internalType":"address"},{"name":"tokenId","type":"uint256","internalType":"uint256"}],"outputs":[],"stateMutability":"nonpayable"},{"type":"function","name":"balanceOf","inputs":[{"name":"owner","type":"address","internalType":"address"}],"outputs":[{"name":"","type":"uint256","internalType":"uint256"}],"stateMutability":"view"},{"type":"function","name":"burn","inputs":[{"name":"tokenID","type":"uint256","internalType":"uint256"}],"outputs":[],"stateMutability":"nonpayable"},{"type":"function","name":"getApproved","inputs":[{"name":"tokenId","type":"uint256","internalType":"uint256"}],"outputs":[{"name":"","type":"address","internalType":"address"}],"stateMutability":"view"},{"type":"function","name":"isAddressWhitelisted","inputs":[{"name":"tokenID","type":"uint256","internalType":"uint256"},{"name":"whitelistAddress","type":"address","internalType":"address"}],"outputs":[{"name":"","type":"bool","internalType":"bool"}],"stateMutability":"view"},{"type":"function","name":"isApprovedForAll","inputs":[{"name":"owner","type":"address","internalType":"address"},{"name":"operator","type":"address","internalType":"address"}],"outputs":[{"name":"","type":"bool","internalType":"bool"}],"stateMutability":"view"},{"type":"function","name":"isBurnable","inputs":[{"name":"tokenID","type":"uint256","internalType":"uint256"}],"outputs":[{"name":"","type":"bool","internalType":"bool"}],"stateMutability":"view"},{"type":"function","name":"isDependent","inputs":[{"name":"tokenID","type":"uint256","internalType":"uint256"},{"name":"CTContractAddress","type":"address","internalType":"address"},{"name":"CTID","type":"uint256","internalType":"uint256"}],"outputs":[{"name":"","type":"bool","internalType":"bool"}],"stateMutability":"view"},{"type":"function","name":"isDependentBurnable","inputs":[{"name":"tokenID","type":"uint256","internalType":"uint256"}],"outputs":[{"name":"","type":"bool","internalType":"bool"}],"stateMutability":"view"},{"type":"function","name":"isDependentTransferable","inputs":[{"name":"tokenID","type":"uint256","internalType":"uint256"}],"outputs":[{"name":"","type":"bool","internalType":"bool"}],"stateMutability":"view"},{"type":"function","name":"isDependentTransferableToAddress","inputs":[{"name":"tokenID","type":"uint256","internalType":"uint256"},{"name":"transferToAddress","type":"address","internalType":"address"}],"outputs":[{"name":"","type":"bool","internalType":"bool"}],"stateMutability":"view"},{"type":"function","name":"isLocked","inputs":[{"name":"tokenID","type":"uint256","internalType":"uint256"}],"outputs":[{"name":"","type":"address","internalType":"address"},{"name":"","type":"uint256","internalType":"uint256"}],"stateMutability":"view"},{"type":"function","name":"isTokenBurnable","inputs":[{"name":"tokenID","type":"uint256","internalType":"uint256"}],"outputs":[{"name":"","type":"bool","internalType":"bool"}],"stateMutability":"view"},{"type":"function","name":"isTokenTransferable","inputs":[{"name":"tokenID","type":"uint256","internalType":"uint256"}],"outputs":[{"name":"","type":"bool","internalType":"bool"}],"stateMutability":"view"},{"type":"function","name":"isTokenTransferableToAddress","inputs":[{"name":"tokenID","type":"uint256","internalType":"uint256"},{"name":"transferToAddress","type":"address","internalType":"address"}],"outputs":[{"name":"","type":"bool","internalType":"bool"}],"stateMutability":"view"},{"type":"function","name":"isTransferable","inputs":[{"name":"tokenID","type":"uint256","internalType":"uint256"}],"outputs":[{"name":"","type":"bool","internalType":"bool"}],"stateMutability":"view"},{"type":"function","name":"isTransferableToAddress","inputs":[{"name":"tokenID","type":"uint256","internalType":"uint256"},{"name":"addressToTransferTo","type":"address","internalType":"address"}],"outputs":[{"name":"","type":"bool","internalType":"bool"}],"stateMutability":"view"},{"type":"function","name":"lock","inputs":[{"name":"tokenID","type":"uint256","internalType":"uint256"},{"name":"LockingContract","type":"address","internalType":"address"},{"name":"LockingID","type":"uint256","internalType":"uint256"}],"outputs":[],"stateMutability":"nonpayable"},{"type":"function","name":"name","inputs":[],"outputs":[{"name":"","type":"string","internalType":"string"}],"stateMutability":"view"},{"type":"function","name":"ownerOf","inputs":[{"name":"tokenId","type":"uint256","internalType":"uint256"}],"outputs":[{"name":"","type":"address","internalType":"address"}],"stateMutability":"view"},{"type":"function","name":"removeDependence","inputs":[{"name":"tokenID","type":"uint256","internalType":"uint256"},{"name":"CTContractAddress","type":"address","internalType":"address"},{"name":"CTID","type":"uint256","internalType":"uint256"}],"outputs":[],"stateMutability":"nonpayable"},{"type":"function","name":"removeLockedToken","inputs":[{"name":"tokenID","type":"uint256","internalType":"uint256"},{"name":"LockedContract","type":"address","internalType":"address"},{"name":"LockedID","type":"uint256","internalType":"uint256"}],"outputs":[],"stateMutability":"nonpayable"},{"type":"function","name":"safeTransferFrom","inputs":[{"name":"from","type":"address","internalType":"address"},{"name":"to","type":"address","internalType":"address"},{"name":"tokenId","type":"uint256","internalType":"uint256"}],"outputs":[],"stateMutability":"nonpayable"},{"type":"function","name":"safeTransferFrom","inputs":[{"name":"from","type":"address","internalType":"address"},{"name":"to","type":"address","internalType":"address"},{"name":"tokenID","type":"uint256","internalType":"uint256"},{"name":"data","type":"bytes","internalType":"bytes"}],"outputs":[],"stateMutability":"nonpayable"},{"type":"function","name":"setApprovalForAll","inputs":[{"name":"operator","type":"address","internalType":"address"},{"name":"approved","type":"bool","internalType":"bool"}],"outputs":[],"stateMutability":"nonpayable"},{"type":"function","name":"setBurnable","inputs":[{"name":"tokenID","type":"uint256","internalType":"uint256"},{"name":"burnable","type":"bool","internalType":"bool"}],"outputs":[],"stateMutability":"nonpayable"},{"type":"function","name":"setDependence","inputs":[{"name":"tokenID","type":"uint256","internalType":"uint256"},{"name":"CTContractAddress","type":"address","internalType":"address"},{"name":"CTID","type":"uint256","internalType":"uint256"}],"outputs":[],"stateMutability":"nonpayable"},{"type":"function","name":"setTokenURI","inputs":[{"name":"tokenID","type":"uint256","internalType":"uint256"},{"name":"tokenURI","type":"string","internalType":"string"}],"outputs":[],"stateMutability":"nonpayable"},{"type":"function","name":"setTransferWhitelist","inputs":[{"name":"tokenID","type":"uint256","internalType":"uint256"},{"name":"whitelistAddress","type":"address","internalType":"address"},{"name":"isWhitelisted","type":"bool","internalType":"bool"}],"outputs":[],"stateMutability":"nonpayable"},{"type":"function","name":"setTransferable","inputs":[{"name":"tokenID","type":"uint256","internalType":"uint256"},{"name":"transferable","type":"bool","internalType":"bool"}],"outputs":[],"stateMutability":"nonpayable"},{"type":"function","name":"supportsInterface","inputs":[{"name":"interfaceId","type":"bytes4","internalType":"bytes4"}],"outputs":[{"name":"","type":"bool","internalType":"bool"}],"stateMutability":"view"},{"type":"function","name":"symbol","inputs":[],"outputs":[{"name":"","type":"string","internalType":"string"}],"stateMutability":"view"},{"type":"function","name":"tokenByIndex","inputs":[{"name":"index","type":"uint256","internalType":"uint256"}],"outputs":[{"name":"","type":"uint256","internalType":"uint256"}],"stateMutability":"view"},{"type":"function","name":"tokenOfOwnerByIndex","inputs":[{"name":"owner","type":"address","internalType":"address"},{"name":"index","type":"uint256","internalType":"uint256"}],"outputs":[{"name":"","type":"uint256","internalType":"uint256"}],"stateMutability":"view"},{"type":"function","name":"tokenURI","inputs":[{"name":"tokenId","type":"uint256","internalType":"uint256"}],"outputs":[{"name":"","type":"string","internalType":"string"}],"stateMutability":"view"},{"type":"function","name":"totalSupply","inputs":[],"outputs":[{"name":"","type":"uint256","internalType":"uint256"}],"stateMutability":"view"},{"type":"function","name":"transferFrom","inputs":[{"name":"from","type":"address","internalType":"address"},{"name":"to","type":"address","internalType":"address"},{"name":"tokenID","type":"uint256","internalType":"uint256"}],"outputs":[],"stateMutability":"nonpayable"},{"type":"function","name":"unlock","inputs":[{"name":"tokenID","type":"uint256","internalType":"uint256"}],"outputs":[],"stateMutability":"nonpayable"},{"type":"event","name":"Approval","inputs":[{"name":"owner","type":"address","indexed":true,"internalType":"address"},{"name":"approved","type":"address","indexed":true,"internalType":"address"},{"name":"tokenId","type":"uint256","indexed":true,"internalType":"uint256"}],"anonymous":false},{"type":"event","name":"ApprovalForAll","inputs":[{"name":"owner","type":"address","indexed":true,"internalType":"address"},{"name":"operator","type":"address","indexed":true,"internalType":"address"},{"name":"approved","type":"bool","indexed":false,"internalType":"bool"}],"anonymous":false},{"type":"event","name":"BatchMetadataUpdate","inputs":[{"name":"_fromTokenId","type":"uint256","indexed":false,"internalType":"uint256"},{"name":"_toTokenId","type":"uint256","indexed":false,"internalType":"uint256"}],"anonymous":false},{"type":"event","name":"MetadataUpdate","inputs":[{"name":"_tokenId","type":"uint256","indexed":false,"internalType":"uint256"}],"anonymous":false},{"type":"event","name":"NewDependence","inputs":[{"name":"tokenId","type":"uint256","indexed":false,"internalType":"uint256"},{"name":"CTContractAddress","type":"address","indexed":false,"internalType":"address"},{"name":"CTId","type":"uint256","indexed":false,"internalType":"uint256"}],"anonymous":false},{"type":"event","name":"NewLocking","inputs":[{"name":"tokenId","type":"uint256","indexed":false,"internalType":"uint256"},{"name":"LockingContract","type":"address","indexed":false,"internalType":"address"},{"name":"LockingId","type":"uint256","indexed":false,"internalType":"uint256"}],"anonymous":false},{"type":"event","name":"RemovedDependence","inputs":[{"name":"tokenId","type":"uint256","indexed":false,"internalType":"uint256"},{"name":"CTContractAddress","type":"address","indexed":false,"internalType":"address"},{"name":"CTId","type":"uint256","indexed":false,"internalType":"uint256"}],"anonymous":false},{"type":"event","name":"Transfer","inputs":[{"name":"from","type":"address","indexed":true,"internalType":"address"},{"name":"to","type":"address","indexed":true,"internalType":"address"},{"name":"tokenId","type":"uint256","indexed":true,"internalType":"uint256"}],"anonymous":false},{"type":"event","name":"Unlocked","inputs":[{"name":"tokenId","type":"uint256","indexed":false,"internalType":"uint256"}],"anonymous":false},{"type":"error","name":"ERC721EnumerableForbiddenBatchMint","inputs":[]},{"type":"error","name":"ERC721IncorrectOwner","inputs":[{"name":"sender","type":"address","internalType":"address"},{"name":"tokenId","type":"uint256","internalType":"uint256"},{"name":"owner","type":"address","internalType":"address"}]},{"type":"error","name":"ERC721InsufficientApproval","inputs":[{"name":"operator","type":"address","internalType":"address"},{"name":"tokenId","type":"uint256","internalType":"uint256"}]},{"type":"error","name":"ERC721InvalidApprover","inputs":[{"name":"approver","type":"address","internalType":"address"}]},{"type":"error","name":"ERC721InvalidOperator","inputs":[{"name":"operator","type":"address","internalType":"address"}]},{"type":"error","name":"ERC721InvalidOwner","inputs":[{"name":"owner","type":"address","internalType":"address"}]},{"type":"error","name":"ERC721InvalidReceiver","inputs":[{"name":"receiver","type":"address","internalType":"address"}]},{"type":"error","name":"ERC721InvalidSender","inputs":[{"name":"sender","type":"address","internalType":"address"}]},{"type":"error","name":"ERC721NonexistentToken","inputs":[{"name":"tokenId","type":"uint256","internalType":"uint256"}]},{"type":"error","name":"ERC721OutOfBoundsIndex","inputs":[{"name":"owner","type":"address","internalType":"address"},{"name":"index","type":"uint256","internalType":"uint256"}]}],"bytecode":{"object":"0x608060405234801561001057600080fd5b50604051613aa7380380613aa783398101604081905261002f91610112565b8181600061003d8382610200565b50600161004a8282610200565b50505050506102bf565b634e487b7160e01b600052604160045260246000fd5b600082601f83011261007b57600080fd5b81516001600160401b038082111561009557610095610054565b604051601f8301601f19908116603f011681019082821181831017156100bd576100bd610054565b81604052838152602092508660208588010111156100da57600080fd5b600091505b838210156100fc57858201830151818301840152908201906100df565b6000602085830101528094505050505092915050565b6000806040838503121561012557600080fd5b82516001600160401b038082111561013c57600080fd5b6101488683870161006a565b9350602085015191508082111561015e57600080fd5b5061016b8582860161006a565b9150509250929050565b600181811c9082168061018957607f821691505b6020821081036101a957634e487b7160e01b600052602260045260246000fd5b50919050565b601f8211156101fb576000816000526020600020601f850160051c810160208610156101d85750805b601f850160051c820191505b818110156101f7578281556001016101e4565b5050505b505050565b81516001600160401b0381111561021957610219610054565b61022d816102278454610175565b846101af565b602080601f831160018114610262576000841561024a5750858301515b600019600386901b1c1916600185901b1785556101f7565b600085815260208120601f198616915b8281101561029157888601518255948401946001909101908401610272565b50858210156102af5787850151600019600388901b60f8161c191681555b5050505050600190811b01905550565b6137d9806102ce6000396000f3fe608060405234801561001057600080fd5b506004361061023d5760003560e01c806386c048c51161013b578063cf27cfc4116100b8578063e5c8e4311161007c578063e5c8e4311461053e578063e985e9c514610551578063edee396514610564578063eee4035414610577578063f6aacfb11461058a57600080fd5b8063cf27cfc4146104b5578063d1af032c146104c8578063d6034c2614610505578063ddaec20514610518578063dfe28fbf1461052b57600080fd5b8063ac3e2c6f116100ff578063ac3e2c6f1461042f578063b256456914610442578063b88d4fde14610466578063c6f88d4a14610479578063c87b56dd146104a257600080fd5b806386c048c5146103db5780638fc76be7146103ee57806395d89b411461040157806399d112fa14610409578063a22cb4651461041c57600080fd5b806332f4da4a116101c95780634f6ccce71161018d5780634f6ccce71461037c5780636198e3391461038f5780636352211e146103a257806370a08231146103b55780637827136b146103c857600080fd5b806332f4da4a1461031d578063336996241461033057806342842e0e1461034357806342966c68146103565780634541eda31461036957600080fd5b8063162094c411610210578063162094c4146102bf57806318160ddd146102d257806323b872dd146102e45780632e5466e6146102f75780632f745c591461030a57600080fd5b806301ffc9a71461024257806306fdde031461026a578063081812fc1461027f578063095ea7b3146102aa575b600080fd5b610255610250366004612fb6565b6105bc565b60405190151581526020015b60405180910390f35b610272610602565b6040516102619190613023565b61029261028d366004613036565b610694565b6040516001600160a01b039091168152602001610261565b6102bd6102b8366004613064565b6106bd565b005b6102bd6102cd366004613090565b6106cc565b6008545b604051908152602001610261565b6102bd6102f236600461310c565b61074b565b6102bd61030536600461315b565b61080c565b6102d6610318366004613064565b61086f565b61025561032b36600461319d565b6108d4565b6102bd61033e3660046131cd565b610a03565b6102bd61035136600461310c565b610a51565b6102bd610364366004613036565b610a71565b610255610377366004613036565b610dbc565b6102d661038a366004613036565b610ee3565b6102bd61039d366004613036565b610f3c565b6102926103b0366004613036565b610f92565b6102d66103c33660046131f2565b610f9d565b6102556103d6366004613036565b610fe5565b6102556103e9366004613036565b611009565b6102556103fc36600461320f565b611127565b61027261116b565b61025561041736600461319d565b61117a565b6102bd61042a366004613236565b6111c4565b61025561043d36600461319d565b6111cf565b610255610450366004613036565b6000908152600b602052604090205460ff161590565b6102bd61047436600461327a565b6111ec565b610255610487366004613036565b6000908152600b6020526040902054610100900460ff161590565b6102726104b0366004613036565b6112a8565b6102bd6104c336600461320f565b6113b1565b6102556104d636600461319d565b6000828152600b602090815260408083206001600160a01b038516845260030190915290205460ff1692915050565b6102bd61051336600461320f565b611498565b610255610526366004613036565b6114cc565b6102bd6105393660046131cd565b6114ef565b6102bd61054c36600461320f565b611538565b61025561055f36600461335a565b6117b2565b6102bd61057236600461320f565b6117e0565b6102bd61058536600461320f565b611a34565b61059d610598366004613036565b611e10565b604080516001600160a01b039093168352602083019190915201610261565b60006001600160e01b03198216631e6f6d8b60e31b14806105ed57506001600160e01b0319821663012a552760e41b145b806105fc57506105fc82611e37565b92915050565b60606000805461061190613388565b80601f016020809104026020016040519081016040528092919081815260200182805461063d90613388565b801561068a5780601f1061065f5761010080835404028352916020019161068a565b820191906000526020600020905b81548152906001019060200180831161066d57829003601f168201915b5050505050905090565b600061069f82611e77565b506000828152600460205260409020546001600160a01b03166105fc565b6106c8828233611eaf565b5050565b826106e06106d982611ebc565b3383611ed7565b6107055760405162461bcd60e51b81526004016106fc906133c2565b60405180910390fd5b6107458484848080601f016020809104026020016040519081016040528093929190818152602001838380828437600092019190915250611f3a92505050565b50505050565b80600061075782611e10565b91505080156107cb576000828152600b60205260409020600601546001600160a01b0316336001600160a01b031614806107aa57506000828152600b60205260409020600601546001600160a01b031630145b6107c65760405162461bcd60e51b81526004016106fc9061340f565b6107fa565b6107de6107d783611ebc565b3384611ed7565b6107fa5760405162461bcd60e51b81526004016106fc906133c2565b610805858585611f8a565b5050505050565b826108196106d982611ebc565b6108355760405162461bcd60e51b81526004016106fc906133c2565b506000928352600b602090815260408085206001600160a01b03949094168552600390930190529120805460ff1916911515919091179055565b600061087a83610f9d565b82106108ab5760405163295f44f760e21b81526001600160a01b0384166004820152602481018390526044016106fc565b506001600160a01b03919091166000908152600660209081526040808320938352929052205490565b6000805b6000848152600b60205260409020600101548110156109f9576000848152600b6020526040812060010180548390811061091457610914613492565b60009182526020808320600290920290910154878352600b9091526040822060010180546001600160a01b039092169350908490811061095657610956613492565b600091825260209091206001600290920201015460405163ac3e2c6f60e01b8152600481018290526001600160a01b0387811660248301529192509083169063ac3e2c6f90604401602060405180830381865afa1580156109bb573d6000803e3d6000fd5b505050506040513d601f19601f820116820180604052508101906109df91906134a8565b6109ef57600093505050506105fc565b50506001016108d8565b5060019392505050565b81610a106106d982611ebc565b610a2c5760405162461bcd60e51b81526004016106fc906133c2565b506000918252600b6020526040909120805461ff001916911561010002919091179055565b610a6c838383604051806020016040528060008152506111ec565b505050565b80610a7e6106d982611ebc565b610a9a5760405162461bcd60e51b81526004016106fc906133c2565b610aa382610fe5565b610b155760405162461bcd60e51b815260206004820152603e60248201527f4c43543a2074686520746f6b656e206f72206f6e65206f662069747320436f6d60448201527f6d616e64657220546f6b656e7320617265206e6f74206275726e61626c65000060648201526084016106fc565b60005b6000838152600b6020526040902060040154811015610c18576000838152600b60205260408120600401805483908110610b5457610b54613492565b60009182526020808320600290920290910154868352600b9091526040822060040180546001600160a01b0390921693509084908110610b9657610b96613492565b9060005260206000209060020201600101549050816001600160a01b03166342966c68826040518263ffffffff1660e01b8152600401610bd891815260200190565b600060405180830381600087803b158015610bf257600080fd5b505af1158015610c06573d6000803e3d6000fd5b505060019094019350610b1892505050565b5060005b6000838152600b6020526040902060040154811015610cc2576000838152600b60205260408120600401805483908110610c5857610c58613492565b60009182526020808320604080518082018252600290940290910180546001600160a01b0390811685526001918201548585019081528a8752600b855283872095519091168652600590940183528185209351855292909152822091909155919091019050610c1c565b5060005b6000838152600b6020526040902060010154811015610d69576000838152600b60205260408120600101805483908110610d0257610d02613492565b60009182526020808320604080518082018252600294850290920180546001600160a01b0390811684526001918201548486019081528b8852600b865283882094519091168752929094018352808520915185529152822091909155919091019050610cc6565b506000828152600b60205260408120805461ffff1916815590610d8f6001830182612f52565b610d9d600483016000612f52565b506006810180546001600160a01b031916905560006007909101555050565b6000805b6000838152600b6020526040902060010154811015610eda576000838152600b60205260408120600101805483908110610dfc57610dfc613492565b60009182526020808320600290920290910154868352600b9091526040822060010180546001600160a01b0390921693509084908110610e3e57610e3e613492565b9060005260206000209060020201600101549050816001600160a01b031663ddaec205826040518263ffffffff1660e01b8152600401610e8091815260200190565b602060405180830381865afa158015610e9d573d6000803e3d6000fd5b505050506040513d601f19601f82011682018060405250810190610ec191906134a8565b610ed057506000949350505050565b5050600101610dc0565b50600192915050565b6000610eee60085490565b8210610f175760405163295f44f760e21b815260006004820152602481018390526044016106fc565b60088281548110610f2a57610f2a613492565b90600052602060002001549050919050565b6000818152600b60205260409020600601546001600160a01b031633811480610f6d57506001600160a01b03811630145b610f895760405162461bcd60e51b81526004016106fc906134c5565b6106c88261203a565b60006105fc82611e77565b60006001600160a01b038216610fc9576040516322718ad960e21b8152600060048201526024016106fc565b506001600160a01b031660009081526003602052604090205490565b6000818152600b6020526040812054610100900460ff161580156105fc57506105fc825b6000805b6000838152600b6020526040902060010154811015610eda576000838152600b6020526040812060010180548390811061104957611049613492565b60009182526020808320600290920290910154868352600b9091526040822060010180546001600160a01b039092169350908490811061108b5761108b613492565b9060005260206000209060020201600101549050816001600160a01b0316637827136b826040518263ffffffff1660e01b81526004016110cd91815260200190565b602060405180830381865afa1580156110ea573d6000803e3d6000fd5b505050506040513d601f19601f8201168201806040525081019061110e91906134a8565b61111d57506000949350505050565b505060010161100d565b6000838152600b602090815260408083206001600160a01b03861684526002018252808320848452909152812054611160576000611163565b60015b949350505050565b60606001805461061190613388565b6000828152600b602052604081205460ff1615806111bd57506000838152600b602090815260408083206001600160a01b038616845260030190915290205460ff165b9392505050565b6106c833838361209d565b60006111db838361117a565b80156111bd57506111bd83836108d4565b8160006111f882611e10565b915050801561126c576000828152600b60205260409020600601546001600160a01b0316336001600160a01b0316148061124b57506000828152600b60205260409020600601546001600160a01b031630145b6112675760405162461bcd60e51b81526004016106fc9061340f565b611294565b6112786107d783611ebc565b6112945760405162461bcd60e51b81526004016106fc906133c2565b6112a08686868661213c565b505050505050565b60606112b382611e77565b506000828152600a6020526040812080546112cd90613388565b80601f01602080910402602001604051908101604052809291908181526020018280546112f990613388565b80156113465780601f1061131b57610100808354040283529160200191611346565b820191906000526020600020905b81548152906001019060200180831161132957829003601f168201915b50505050509050600061136460408051602081019091526000815290565b90508051600003611376575092915050565b8151156113a8578082604051602001611390929190613522565b60405160208183030381529060405292505050919050565b61116384612153565b826113be6106d982611ebc565b6113da5760405162461bcd60e51b81526004016106fc906133c2565b838383816001600160a01b0316636352211e826040518263ffffffff1660e01b815260040161140b91815260200190565b602060405180830381865afa158015611428573d6000803e3d6000fd5b505050506040513d601f19601f8201168201806040525081019061144c9190613551565b6001600160a01b031661145e84610f92565b6001600160a01b0316146114845760405162461bcd60e51b81526004016106fc9061356e565b61148f8787876121c7565b50505050505050565b826114a56106d982611ebc565b6114c15760405162461bcd60e51b81526004016106fc906133c2565b610745848484612414565b6000818152600b602052604081205460ff161580156105fc57506105fc82610dbc565b816114fc6106d982611ebc565b6115185760405162461bcd60e51b81526004016106fc906133c2565b506000918252600b6020526040909120805460ff19169115919091179055565b6000838152600b602090815260408083206001600160a01b038616845260050182528083208484529091529020546115eb5760405162461bcd60e51b815260206004820152604a60248201527f4c6f636b656420546f6b656e3a204c6f636b6564494420696e20636f6e74726160448201527f6374204c6f636b6564436f6e7472616374206973206e6f74206c6f636b6564206064820152691d1bc81d1bdad95b925160b21b608482015260a4016106fc565b6000838152600b602090815260408083206001600160a01b03861684526005018252808320848452909152812054611625906001906135d7565b6000858152600b602081815260408084206001600160a01b038916855260058101835281852088865283529084208490558884529190526004015491925090611670906001906135d7565b6000868152600b602052604090206004018054919250908290811061169757611697613492565b9060005260206000209060020201600b600087815260200190815260200160002060040183815481106116cc576116cc613492565b60009182526020808320845460029093020180546001600160a01b0319166001600160a01b039093169290921782556001938401549390910192909255868152600b90915260409020600401805480611727576117276135ea565b6000828152602081206002600019939093019283020180546001600160a01b0319168155600101559055604051636198e33960e01b8152600481018490526001600160a01b03851690636198e33990602401600060405180830381600087803b15801561179357600080fd5b505af11580156117a7573d6000803e3d6000fd5b505050505050505050565b6001600160a01b03918216600090815260056020908152604080832093909416825291909152205460ff1690565b828282816001600160a01b0316636352211e826040518263ffffffff1660e01b815260040161181191815260200190565b602060405180830381865afa15801561182e573d6000803e3d6000fd5b505050506040513d601f19601f820116820180604052508101906118529190613551565b6001600160a01b031661186484610f92565b6001600160a01b03161461188a5760405162461bcd60e51b81526004016106fc9061356e565b846001600160a01b0381163314806118aa57506001600160a01b03811630145b6118c65760405162461bcd60e51b81526004016106fc906134c5565b6000878152600b602090815260408083206001600160a01b038a1684526005018252808320888452909152902054156119805760405162461bcd60e51b815260206004820152605060248201527f4c6f636b656420546f6b656e3a20746f6b656e494420697320616c726561647960448201527f206c6f636b656420746f204c6f636b656449442066726f6d20636f6e7472616360648201526f1d08131bd8dad95910dbdb9d1c9858dd60821b608482015260a4016106fc565b6040805180820182526001600160a01b0388168152602080820188905260008a8152600b90915291909120600401546119ba906001613600565b6000988952600b60208181526040808c206001600160a01b039b8c168d52600581018352818d209a8d529982528b209290925581526004909601805460018082018355918a529887902082516002909a020180546001600160a01b0319169990981698909817875590940151949095019390935550505050565b6000838152600b602090815260408083206001600160a01b038616845260020182528083208484529091529020548290611ae45760405162461bcd60e51b815260206004820152604560248201527f4c43543a20746f6b656e4944206973206e6f7420646570656e64656e74206f6e60448201527f20435469642066726f6d20636f6e7472616374204354436f6e74726163744164606482015264647265737360d81b608482015260a4016106fc565b611af7611af085611ebc565b3386611ed7565b8015611b67575060405163b256456960e01b8152600481018390526001600160a01b0382169063b256456990602401602060405180830381865afa158015611b43573d6000803e3d6000fd5b505050506040513d601f19601f82011682018060405250810190611b6791906134a8565b8015611bd7575060405163637c46a560e11b8152600481018390526001600160a01b0382169063c6f88d4a90602401602060405180830381865afa158015611bb3573d6000803e3d6000fd5b505050506040513d601f19601f82011682018060405250810190611bd791906134a8565b80611bea5750336001600160a01b038416145b611c505760405162461bcd60e51b815260206004820152603160248201527f4c43543a2073656e646572206973206e6f74207065726d697474656420746f2060448201527072656d6f766520646570656e64656e637960781b60648201526084016106fc565b6000848152600b602090815260408083206001600160a01b03871684526002018252808320858452909152812054611c8a906001906135d7565b6000868152600b602081815260408084206001600160a01b038a16855260028101835281852089865283529084208490558984529190526001908101549293509091611cd691906135d7565b6000878152600b6020526040902060010180549192509082908110611cfd57611cfd613492565b9060005260206000209060020201600b60008881526020019081526020016000206001018381548110611d3257611d32613492565b60009182526020808320845460029093020180546001600160a01b0319166001600160a01b0390931692909217825560019384015491840191909155888252600b90526040902001805480611d8957611d896135ea565b60008281526020812060026000199093019283020180546001600160a01b03191681556001015590556040517f690094bc4403e5fdf0ec1828b799e4015d5b39b33cfeb65df06a242febf4daf490611e00908890889088909283526001600160a01b03919091166020830152604082015260600190565b60405180910390a1505050505050565b6000908152600b6020526040902060068101546007909101546001600160a01b0390911691565b60006001600160e01b0319821663780e9d6360e01b1480611e6857506001600160e01b03198216632483248360e11b145b806105fc57506105fc826125a6565b600080611e8383611ebc565b90506001600160a01b0381166105fc57604051637e27328960e01b8152600481018490526024016106fc565b610a6c83838360016125f6565b6000908152600260205260409020546001600160a01b031690565b60006001600160a01b038316158015906111635750826001600160a01b0316846001600160a01b03161480611f115750611f1184846117b2565b806111635750506000908152600460205260409020546001600160a01b03908116911614919050565b6000828152600a60205260409020611f52828261365b565b506040518281527ff8e1a15aba9398e019f0b49df1a4fde98ee17ae345cb5f6b5e2c27f5033e8ce79060200160405180910390a15050565b6001600160a01b038216611fb457604051633250574960e11b8152600060048201526024016106fc565b6000611fc2838360006126fc565b90506001600160a01b038116611fee57604051637e27328960e01b8152600481018390526024016106fc565b836001600160a01b0316816001600160a01b031614610745576040516364283d7b60e01b81526001600160a01b03808616600483015260248201849052821660448201526064016106fc565b6000818152600b60205260408082206006810180546001600160a01b031916905560070191909155517ff27b6ce5b2f5e68ddb2fd95a8a909d4ecf1daaac270935fff052feacb24f1842906120929083815260200190565b60405180910390a150565b6001600160a01b0382166120cf57604051630b61174360e31b81526001600160a01b03831660048201526024016106fc565b6001600160a01b03838116600081815260056020908152604080832094871680845294825291829020805460ff191686151590811790915591519182527f17307eab39ab6107e8899845ad3d59bd9653f200f220920489ca2b5937696c31910160405180910390a3505050565b612147848484611f8a565b61074584848484612910565b606061215e82611e77565b50600061217660408051602081019091526000815290565b9050600081511161219657604051806020016040528060008152506111bd565b806121a084612a32565b6040516020016121b1929190613522565b6040516020818303038152906040529392505050565b6000806121d385611e10565b91509150806000146122375760405162461bcd60e51b815260206004820152602760248201527f4c6f636b656420546f6b656e3a20746f6b656e494420697320616c7265616479604482015266081b1bd8dad95960ca1b60648201526084016106fc565b60405163f6aacfb160e01b8152600481018490526001600160a01b0385169063f6aacfb1906024016040805180830381865afa15801561227b573d6000803e3d6000fd5b505050506040513d601f19601f8201168201806040525081019061229f919061371b565b90925090506001600160a01b038216301415806122bc5750848114155b612330576040805162461bcd60e51b81526020600482015260248101919091527f4c6f636b656420546f6b656e3a20446561646c6f636b2064657465636574656460448201527f21204c6f636b696e674944206973206c6f636b656420746f20746f6b656e494460648201526084016106fc565b6000858152600b6020526040908190206006810180546001600160a01b0319166001600160a01b0388169081179091556007909101859055905163edee396560e01b8152600481018590523060248201526044810187905263edee396590606401600060405180830381600087803b1580156123ab57600080fd5b505af11580156123bf573d6000803e3d6000fd5b5050604080518881526001600160a01b03881660208201529081018690527f697d86e6398a689ac7b8bea2b6f3f65704d1b113d2d31863c6d26501e7265cff9250606001905060405180910390a15050505050565b6000838152600b602090815260408083206001600160a01b03861684526002018252808320848452909152902054156124b55760405162461bcd60e51b815260206004820152603b60248201527f4c43543a20746f6b656e494420616c726561647920646570656e6473206f6e2060448201527f435469642066726f6d204354436f6e747261637441646472657373000000000060648201526084016106fc565b6040805180820182526001600160a01b038416815260208082018490526000868152600b909152919091206001908101546124ef91613600565b6000858152600b602081815260408084206001600160a01b03898116808752600280840186528488208b89528652848820989098559484526001918201805480840182559087529584902088519690970290960180546001600160a01b0319169590961694909417855585820151949093019390935581518781529283015281018390527f142495d58c8fd8701db1b1d5a807743699bc5f87d97a4b64006eaeb9e9ac5e899060600160405180910390a150505050565b60006001600160e01b031982166380ac58cd60e01b14806125d757506001600160e01b03198216635b5e139f60e01b145b806105fc57506301ffc9a760e01b6001600160e01b03198316146105fc565b808061260a57506001600160a01b03821615155b156126cc57600061261a84611e77565b90506001600160a01b038316158015906126465750826001600160a01b0316816001600160a01b031614155b8015612659575061265781846117b2565b155b156126825760405163a9fbf51f60e01b81526001600160a01b03841660048201526024016106fc565b81156126ca5783856001600160a01b0316826001600160a01b03167f8c5be1e5ebec7d5bd14f71427d1e84f3dd0314c0f7b2291e5b200ac8c7c3b92560405160405180910390a45b505b5050600090815260046020526040902080546001600160a01b0319166001600160a01b0392909216919091179055565b60008061270a858585612ac5565b9050612716848661117a565b61277a5760405162461bcd60e51b815260206004820152602f60248201527f4c43543a2074686520746f6b656e207374617475732069732073657420746f2060448201526e6e6f6e7472616e7366657261626c6560881b60648201526084016106fc565b61278484866108d4565b6127f65760405162461bcd60e51b815260206004820152603c60248201527f4c43543a2074686520746f6b656e20646570656e6473206f6e206174206c656160448201527f7374206f6e65206e6f6e7472616e7366657261626c6520746f6b656e0000000060648201526084016106fc565b60005b6000858152600b6020526040902060040154811015612907576000858152600b6020526040812060040180548390811061283557612835613492565b60009182526020808320600290920290910154888352600b9091526040822060040180546001600160a01b039092169350908490811061287757612877613492565b60009182526020909120600160029092020101546040516323b872dd60e01b81526001600160a01b0386811660048301528a8116602483015260448201839052919250908316906323b872dd90606401600060405180830381600087803b1580156128e157600080fd5b505af11580156128f5573d6000803e3d6000fd5b5050600190940193506127f992505050565b50949350505050565b6001600160a01b0383163b1561074557604051630a85bd0160e11b81526001600160a01b0384169063150b7a0290612952903390889087908790600401613749565b6020604051808303816000875af192505050801561298d575060408051601f3d908101601f1916820190925261298a91810190613786565b60015b6129f6573d8080156129bb576040519150601f19603f3d011682016040523d82523d6000602084013e6129c0565b606091505b5080516000036129ee57604051633250574960e11b81526001600160a01b03851660048201526024016106fc565b805181602001fd5b6001600160e01b03198116630a85bd0160e11b1461080557604051633250574960e11b81526001600160a01b03851660048201526024016106fc565b60606000612a3f83612b92565b600101905060008167ffffffffffffffff811115612a5f57612a5f613264565b6040519080825280601f01601f191660200182016040528015612a89576020820181803683370190505b5090508181016020015b600019016f181899199a1a9b1b9c1cb0b131b232b360811b600a86061a8153600a8504945084612a9357509392505050565b600080612ad3858585612c6a565b90506001600160a01b038116612b3057612b2b84600880546000838152600960205260408120829055600182018355919091527ff3f7a9fe364faab93b216da50a3214154f22a0a2b415b23a84c8169e8b636ee30155565b612b53565b846001600160a01b0316816001600160a01b031614612b5357612b538185612d5e565b6001600160a01b038516612b6f57612b6a84612def565b611163565b846001600160a01b0316816001600160a01b031614611163576111638585612e9e565b60008072184f03e93ff9f4daa797ed6e38ed64bf6a1f0160401b8310612bd15772184f03e93ff9f4daa797ed6e38ed64bf6a1f0160401b830492506040015b6d04ee2d6d415b85acef81000000008310612bfd576d04ee2d6d415b85acef8100000000830492506020015b662386f26fc100008310612c1b57662386f26fc10000830492506010015b6305f5e1008310612c33576305f5e100830492506008015b6127108310612c4757612710830492506004015b60648310612c59576064830492506002015b600a83106105fc5760010192915050565b600080612c7684611ebc565b90506001600160a01b03831615612c9257612c92818486612eee565b6001600160a01b03811615612cd057612caf6000856000806125f6565b6001600160a01b038116600090815260036020526040902080546000190190555b6001600160a01b03851615612cff576001600160a01b0385166000908152600360205260409020805460010190555b60008481526002602052604080822080546001600160a01b0319166001600160a01b0389811691821790925591518793918516917fddf252ad1be2c89b69c2b068fc378daa952ba7f163c4a11628f55a4df523b3ef91a4949350505050565b6000612d6983610f9d565b600083815260076020526040902054909150808214612dbc576001600160a01b03841660009081526006602090815260408083208584528252808320548484528184208190558352600790915290208190555b5060009182526007602090815260408084208490556001600160a01b039094168352600681528383209183525290812055565b600854600090612e01906001906135d7565b60008381526009602052604081205460088054939450909284908110612e2957612e29613492565b906000526020600020015490508060088381548110612e4a57612e4a613492565b6000918252602080832090910192909255828152600990915260408082208490558582528120556008805480612e8257612e826135ea565b6001900381819060005260206000200160009055905550505050565b60006001612eab84610f9d565b612eb591906135d7565b6001600160a01b039093166000908152600660209081526040808320868452825280832085905593825260079052919091209190915550565b612ef9838383611ed7565b610a6c576001600160a01b038316612f2757604051637e27328960e01b8152600481018290526024016106fc565b60405163177e802f60e01b81526001600160a01b0383166004820152602481018290526044016106fc565b5080546000825560020290600052602060002090810190612f739190612f76565b50565b5b80821115612f9c5780546001600160a01b031916815560006001820155600201612f77565b5090565b6001600160e01b031981168114612f7357600080fd5b600060208284031215612fc857600080fd5b81356111bd81612fa0565b60005b83811015612fee578181015183820152602001612fd6565b50506000910152565b6000815180845261300f816020860160208601612fd3565b601f01601f19169290920160200192915050565b6020815260006111bd6020830184612ff7565b60006020828403121561304857600080fd5b5035919050565b6001600160a01b0381168114612f7357600080fd5b6000806040838503121561307757600080fd5b82356130828161304f565b946020939093013593505050565b6000806000604084860312156130a557600080fd5b83359250602084013567ffffffffffffffff808211156130c457600080fd5b818601915086601f8301126130d857600080fd5b8135818111156130e757600080fd5b8760208285010111156130f957600080fd5b6020830194508093505050509250925092565b60008060006060848603121561312157600080fd5b833561312c8161304f565b9250602084013561313c8161304f565b929592945050506040919091013590565b8015158114612f7357600080fd5b60008060006060848603121561317057600080fd5b8335925060208401356131828161304f565b915060408401356131928161314d565b809150509250925092565b600080604083850312156131b057600080fd5b8235915060208301356131c28161304f565b809150509250929050565b600080604083850312156131e057600080fd5b8235915060208301356131c28161314d565b60006020828403121561320457600080fd5b81356111bd8161304f565b60008060006060848603121561322457600080fd5b83359250602084013561313c8161304f565b6000806040838503121561324957600080fd5b82356132548161304f565b915060208301356131c28161314d565b634e487b7160e01b600052604160045260246000fd5b6000806000806080858703121561329057600080fd5b843561329b8161304f565b935060208501356132ab8161304f565b925060408501359150606085013567ffffffffffffffff808211156132cf57600080fd5b818701915087601f8301126132e357600080fd5b8135818111156132f5576132f5613264565b604051601f8201601f19908116603f0116810190838211818310171561331d5761331d613264565b816040528281528a602084870101111561333657600080fd5b82602086016020830137600060208483010152809550505050505092959194509250565b6000806040838503121561336d57600080fd5b82356133788161304f565b915060208301356131c28161304f565b600181811c9082168061339c57607f821691505b6020821081036133bc57634e487b7160e01b600052602260045260246000fd5b50919050565b6020808252602d908201527f4552433732313a2063616c6c6572206973206e6f7420746f6b656e206f776e6560408201526c1c881bdc88185c1c1c9bdd9959609a1b606082015260800190565b60208082526058908201527f4c6f636b656420546f6b656e3a20746f6b656e4944206973206c6f636b65642060408201527f616e642063616c6c6572206973206e6f742074686520636f6e7472616374206860608201527f6f6c64696e6720746865206c6f636b696e6720746f6b656e0000000000000000608082015260a00190565b634e487b7160e01b600052603260045260246000fd5b6000602082840312156134ba57600080fd5b81516111bd8161314d565b6020808252603f908201527f4c6f636b656420546f6b656e3a207472616e73616374696f6e206973206e6f7460408201527f2073656e742066726f6d2074686520636f727265637420636f6e747261637400606082015260800190565b60008351613534818460208801612fd3565b835190830190613548818360208801612fd3565b01949350505050565b60006020828403121561356357600080fd5b81516111bd8161304f565b60208082526033908201527f4c6f636b656420546f6b656e3a2074686520746f6b656e7320646f206e6f74206040820152723430bb32903a34329039b0b6b29037bbb732b960691b606082015260800190565b634e487b7160e01b600052601160045260246000fd5b818103818111156105fc576105fc6135c1565b634e487b7160e01b600052603160045260246000fd5b808201808211156105fc576105fc6135c1565b601f821115610a6c576000816000526020600020601f850160051c8101602086101561363c5750805b601f850160051c820191505b818110156112a057828155600101613648565b815167ffffffffffffffff81111561367557613675613264565b613689816136838454613388565b84613613565b602080601f8311600181146136be57600084156136a65750858301515b600019600386901b1c1916600185901b1785556112a0565b600085815260208120601f198616915b828110156136ed578886015182559484019460019091019084016136ce565b508582101561370b5787850151600019600388901b60f8161c191681555b5050505050600190811b01905550565b6000806040838503121561372e57600080fd5b82516137398161304f565b6020939093015192949293505050565b6001600160a01b038581168252841660208201526040810183905260806060820181905260009061377c90830184612ff7565b9695505050505050565b60006020828403121561379857600080fd5b81516111bd81612fa056fea2646970667358221220616c041fc08670491bb70d51ea312e66d34845d1f580a2489ea5605b797d001164736f6c63430008190033","linkReferences":{}},"methodIdentifiers":{"addLockedToken(uint256,address,uint256)":"edee3965","approve(address,uint256)":"095ea7b3","balanceOf(address)":"70a08231","burn(uint256)":"42966c68","getApproved(uint256)":"081812fc","isAddressWhitelisted(uint256,address)":"d1af032c","isApprovedForAll(address,address)":"e985e9c5","isBurnable(uint256)":"c6f88d4a","isDependent(uint256,address,uint256)":"8fc76be7","isDependentBurnable(uint256)":"86c048c5","isDependentTransferable(uint256)":"4541eda3","isDependentTransferableToAddress(uint256,address)":"32f4da4a","isLocked(uint256)":"f6aacfb1","isTokenBurnable(uint256)":"7827136b","isTokenTransferable(uint256)":"ddaec205","isTokenTransferableToAddress(uint256,address)":"ac3e2c6f","isTransferable(uint256)":"b2564569","isTransferableToAddress(uint256,address)":"99d112fa","lock(uint256,address,uint256)":"cf27cfc4","name()":"06fdde03","ownerOf(uint256)":"6352211e","removeDependence(uint256,address,uint256)":"eee40354","removeLockedToken(uint256,address,uint256)":"e5c8e431","safeTransferFrom(address,address,uint256)":"42842e0e","safeTransferFrom(address,address,uint256,bytes)":"b88d4fde","setApprovalForAll(address,bool)":"a22cb465","setBurnable(uint256,bool)":"33699624","setDependence(uint256,address,uint256)":"d6034c26","setTokenURI(uint256,string)":"162094c4","setTransferWhitelist(uint256,address,bool)":"2e5466e6","setTransferable(uint256,bool)":"dfe28fbf","supportsInterface(bytes4)":"01ffc9a7","symbol()":"95d89b41","tokenByIndex(uint256)":"4f6ccce7","tokenOfOwnerByIndex(address,uint256)":"2f745c59","tokenURI(uint256)":"c87b56dd","totalSupply()":"18160ddd","transferFrom(address,address,uint256)":"23b872dd","unlock(uint256)":"6198e339"},"id":17}