{"abi":[{"type":"constructor","inputs":[{"name":"name","type":"string","internalType":"string"},{"name":"symbol","type":"string","internalType":"string"}],"stateMutability":"nonpayable"},{"type":"function","name":"addLockedToken","inputs":[{"name":"tokenID","type":"uint256","internalType":"uint256"},{"name":"LockedContract","type":"address","internalType":"address"},{"name":"LockedID","type":"uint256","internalType":"uint256"}],"outputs":[],"stateMutability":"nonpayable"},{"type":"function","name":"approve","inputs":[{"name":"to","type":"address","internalType":"address"},{"name":"tokenId","type":"uint256","internalType":"uint256"}],"outputs":[],"stateMutability":"nonpayable"},{"type":"function","name":"balanceOf","inputs":[{"name":"owner","type":"address","internalType":"address"}],"outputs":[{"name":"","type":"uint256","internalType":"uint256"}],"stateMutability":"view"},{"type":"function","name":"burn","inputs":[{"name":"tokenID","type":"uint256","internalType":"uint256"}],"outputs":[],"stateMutability":"nonpayable"},{"type":"function","name":"getApproved","inputs":[{"name":"tokenId","type":"uint256","internalType":"uint256"}],"outputs":[{"name":"","type":"address","internalType":"address"}],"stateMutability":"view"},{"type":"function","name":"isAddressWhitelisted","inputs":[{"name":"tokenID","type":"uint256","internalType":"uint256"},{"name":"whitelistAddress","type":"address","internalType":"address"}],"outputs":[{"name":"","type":"bool","internalType":"bool"}],"stateMutability":"view"},{"type":"function","name":"isApprovedForAll","inputs":[{"name":"owner","type":"address","internalType":"address"},{"name":"operator","type":"address","internalType":"address"}],"outputs":[{"name":"","type":"bool","internalType":"bool"}],"stateMutability":"view"},{"type":"function","name":"isBurnable","inputs":[{"name":"tokenID","type":"uint256","internalType":"uint256"}],"outputs":[{"name":"","type":"bool","internalType":"bool"}],"stateMutability":"view"},{"type":"function","name":"isDependent","inputs":[{"name":"tokenID","type":"uint256","internalType":"uint256"},{"name":"CTContractAddress","type":"address","internalType":"address"},{"name":"CTID","type":"uint256","internalType":"uint256"}],"outputs":[{"name":"","type":"bool","internalType":"bool"}],"stateMutability":"view"},{"type":"function","name":"isDependentBurnable","inputs":[{"name":"tokenID","type":"uint256","internalType":"uint256"}],"outputs":[{"name":"","type":"bool","internalType":"bool"}],"stateMutability":"view"},{"type":"function","name":"isDependentTransferable","inputs":[{"name":"tokenID","type":"uint256","internalType":"uint256"}],"outputs":[{"name":"","type":"bool","internalType":"bool"}],"stateMutability":"view"},{"type":"function","name":"isDependentTransferableToAddress","inputs":[{"name":"tokenID","type":"uint256","internalType":"uint256"},{"name":"transferToAddress","type":"address","internalType":"address"}],"outputs":[{"name":"","type":"bool","internalType":"bool"}],"stateMutability":"view"},{"type":"function","name":"isLocked","inputs":[{"name":"tokenID","type":"uint256","internalType":"uint256"}],"outputs":[{"name":"","type":"address","internalType":"address"},{"name":"","type":"uint256","internalType":"uint256"}],"stateMutability":"view"},{"type":"function","name":"isTokenBurnable","inputs":[{"name":"tokenID","type":"uint256","internalType":"uint256"}],"outputs":[{"name":"","type":"bool","internalType":"bool"}],"stateMutability":"view"},{"type":"function","name":"isTokenTransferable","inputs":[{"name":"tokenID","type":"uint256","internalType":"uint256"}],"outputs":[{"name":"","type":"bool","internalType":"bool"}],"stateMutability":"view"},{"type":"function","name":"isTokenTransferableToAddress","inputs":[{"name":"tokenID","type":"uint256","internalType":"uint256"},{"name":"transferToAddress","type":"address","internalType":"address"}],"outputs":[{"name":"","type":"bool","internalType":"bool"}],"stateMutability":"view"},{"type":"function","name":"isTransferable","inputs":[{"name":"tokenID","type":"uint256","internalType":"uint256"}],"outputs":[{"name":"","type":"bool","internalType":"bool"}],"stateMutability":"view"},{"type":"function","name":"isTransferableToAddress","inputs":[{"name":"tokenID","type":"uint256","internalType":"uint256"},{"name":"addressToTransferTo","type":"address","internalType":"address"}],"outputs":[{"name":"","type":"bool","internalType":"bool"}],"stateMutability":"view"},{"type":"function","name":"lock","inputs":[{"name":"tokenID","type":"uint256","internalType":"uint256"},{"name":"LockingContract","type":"address","internalType":"address"},{"name":"LockingID","type":"uint256","internalType":"uint256"}],"outputs":[],"stateMutability":"nonpayable"},{"type":"function","name":"name","inputs":[],"outputs":[{"name":"","type":"string","internalType":"string"}],"stateMutability":"view"},{"type":"function","name":"ownerOf","inputs":[{"name":"tokenId","type":"uint256","internalType":"uint256"}],"outputs":[{"name":"","type":"address","internalType":"address"}],"stateMutability":"view"},{"type":"function","name":"removeDependence","inputs":[{"name":"tokenID","type":"uint256","internalType":"uint256"},{"name":"CTContractAddress","type":"address","internalType":"address"},{"name":"CTID","type":"uint256","internalType":"uint256"}],"outputs":[],"stateMutability":"nonpayable"},{"type":"function","name":"removeLockedToken","inputs":[{"name":"tokenID","type":"uint256","internalType":"uint256"},{"name":"LockedContract","type":"address","internalType":"address"},{"name":"LockedID","type":"uint256","internalType":"uint256"}],"outputs":[],"stateMutability":"nonpayable"},{"type":"function","name":"safeTransferFrom","inputs":[{"name":"from","type":"address","internalType":"address"},{"name":"to","type":"address","internalType":"address"},{"name":"tokenId","type":"uint256","internalType":"uint256"}],"outputs":[],"stateMutability":"nonpayable"},{"type":"function","name":"safeTransferFrom","inputs":[{"name":"from","type":"address","internalType":"address"},{"name":"to","type":"address","internalType":"address"},{"name":"tokenID","type":"uint256","internalType":"uint256"},{"name":"data","type":"bytes","internalType":"bytes"}],"outputs":[],"stateMutability":"nonpayable"},{"type":"function","name":"setApprovalForAll","inputs":[{"name":"operator","type":"address","internalType":"address"},{"name":"approved","type":"bool","internalType":"bool"}],"outputs":[],"stateMutability":"nonpayable"},{"type":"function","name":"setBurnable","inputs":[{"name":"tokenID","type":"uint256","internalType":"uint256"},{"name":"burnable","type":"bool","internalType":"bool"}],"outputs":[],"stateMutability":"nonpayable"},{"type":"function","name":"setDependence","inputs":[{"name":"tokenID","type":"uint256","internalType":"uint256"},{"name":"CTContractAddress","type":"address","internalType":"address"},{"name":"CTID","type":"uint256","internalType":"uint256"}],"outputs":[],"stateMutability":"nonpayable"},{"type":"function","name":"setTokenURI","inputs":[{"name":"tokenID","type":"uint256","internalType":"uint256"},{"name":"tokenURI","type":"string","internalType":"string"}],"outputs":[],"stateMutability":"nonpayable"},{"type":"function","name":"setTransferWhitelist","inputs":[{"name":"tokenID","type":"uint256","internalType":"uint256"},{"name":"whitelistAddress","type":"address","internalType":"address"},{"name":"isWhitelisted","type":"bool","internalType":"bool"}],"outputs":[],"stateMutability":"nonpayable"},{"type":"function","name":"setTransferable","inputs":[{"name":"tokenID","type":"uint256","internalType":"uint256"},{"name":"transferable","type":"bool","internalType":"bool"}],"outputs":[],"stateMutability":"nonpayable"},{"type":"function","name":"supportsInterface","inputs":[{"name":"interfaceId","type":"bytes4","internalType":"bytes4"}],"outputs":[{"name":"","type":"bool","internalType":"bool"}],"stateMutability":"view"},{"type":"function","name":"symbol","inputs":[],"outputs":[{"name":"","type":"string","internalType":"string"}],"stateMutability":"view"},{"type":"function","name":"tokenByIndex","inputs":[{"name":"index","type":"uint256","internalType":"uint256"}],"outputs":[{"name":"","type":"uint256","internalType":"uint256"}],"stateMutability":"view"},{"type":"function","name":"tokenOfOwnerByIndex","inputs":[{"name":"owner","type":"address","internalType":"address"},{"name":"index","type":"uint256","internalType":"uint256"}],"outputs":[{"name":"","type":"uint256","internalType":"uint256"}],"stateMutability":"view"},{"type":"function","name":"tokenURI","inputs":[{"name":"tokenId","type":"uint256","internalType":"uint256"}],"outputs":[{"name":"","type":"string","internalType":"string"}],"stateMutability":"view"},{"type":"function","name":"totalSupply","inputs":[],"outputs":[{"name":"","type":"uint256","internalType":"uint256"}],"stateMutability":"view"},{"type":"function","name":"transferFrom","inputs":[{"name":"from","type":"address","internalType":"address"},{"name":"to","type":"address","internalType":"address"},{"name":"tokenID","type":"uint256","internalType":"uint256"}],"outputs":[],"stateMutability":"nonpayable"},{"type":"function","name":"unlock","inputs":[{"name":"tokenID","type":"uint256","internalType":"uint256"}],"outputs":[],"stateMutability":"nonpayable"},{"type":"event","name":"Approval","inputs":[{"name":"owner","type":"address","indexed":true,"internalType":"address"},{"name":"approved","type":"address","indexed":true,"internalType":"address"},{"name":"tokenId","type":"uint256","indexed":true,"internalType":"uint256"}],"anonymous":false},{"type":"event","name":"ApprovalForAll","inputs":[{"name":"owner","type":"address","indexed":true,"internalType":"address"},{"name":"operator","type":"address","indexed":true,"internalType":"address"},{"name":"approved","type":"bool","indexed":false,"internalType":"bool"}],"anonymous":false},{"type":"event","name":"BatchMetadataUpdate","inputs":[{"name":"_fromTokenId","type":"uint256","indexed":false,"internalType":"uint256"},{"name":"_toTokenId","type":"uint256","indexed":false,"internalType":"uint256"}],"anonymous":false},{"type":"event","name":"MetadataUpdate","inputs":[{"name":"_tokenId","type":"uint256","indexed":false,"internalType":"uint256"}],"anonymous":false},{"type":"event","name":"NewDependence","inputs":[{"name":"tokenId","type":"uint256","indexed":false,"internalType":"uint256"},{"name":"CTContractAddress","type":"address","indexed":false,"internalType":"address"},{"name":"CTId","type":"uint256","indexed":false,"internalType":"uint256"}],"anonymous":false},{"type":"event","name":"NewLocking","inputs":[{"name":"tokenId","type":"uint256","indexed":false,"internalType":"uint256"},{"name":"LockingContract","type":"address","indexed":false,"internalType":"address"},{"name":"LockingId","type":"uint256","indexed":false,"internalType":"uint256"}],"anonymous":false},{"type":"event","name":"RemovedDependence","inputs":[{"name":"tokenId","type":"uint256","indexed":false,"internalType":"uint256"},{"name":"CTContractAddress","type":"address","indexed":false,"internalType":"address"},{"name":"CTId","type":"uint256","indexed":false,"internalType":"uint256"}],"anonymous":false},{"type":"event","name":"Transfer","inputs":[{"name":"from","type":"address","indexed":true,"internalType":"address"},{"name":"to","type":"address","indexed":true,"internalType":"address"},{"name":"tokenId","type":"uint256","indexed":true,"internalType":"uint256"}],"anonymous":false},{"type":"event","name":"Unlocked","inputs":[{"name":"tokenId","type":"uint256","indexed":false,"internalType":"uint256"}],"anonymous":false}],"bytecode":{"object":"0x608060405234801561001057600080fd5b50604051613cb6380380613cb683398101604081905261002f91610112565b8181600061003d8382610200565b50600161004a8282610200565b50505050506102bf565b634e487b7160e01b600052604160045260246000fd5b600082601f83011261007b57600080fd5b81516001600160401b038082111561009557610095610054565b604051601f8301601f19908116603f011681019082821181831017156100bd576100bd610054565b81604052838152602092508660208588010111156100da57600080fd5b600091505b838210156100fc57858201830151818301840152908201906100df565b6000602085830101528094505050505092915050565b6000806040838503121561012557600080fd5b82516001600160401b038082111561013c57600080fd5b6101488683870161006a565b9350602085015191508082111561015e57600080fd5b5061016b8582860161006a565b9150509250929050565b600181811c9082168061018957607f821691505b6020821081036101a957634e487b7160e01b600052602260045260246000fd5b50919050565b601f8211156101fb576000816000526020600020601f850160051c810160208610156101d85750805b601f850160051c820191505b818110156101f7578281556001016101e4565b5050505b505050565b81516001600160401b0381111561021957610219610054565b61022d816102278454610175565b846101af565b602080601f831160018114610262576000841561024a5750858301515b600019600386901b1c1916600185901b1785556101f7565b600085815260208120601f198616915b8281101561029157888601518255948401946001909101908401610272565b50858210156102af5787850151600019600388901b60f8161c191681555b5050505050600190811b01905550565b6139e8806102ce6000396000f3fe608060405234801561001057600080fd5b506004361061023d5760003560e01c806386c048c51161013b578063cf27cfc4116100b8578063e5c8e4311161007c578063e5c8e4311461053e578063e985e9c514610551578063edee39651461058d578063eee40354146105a0578063f6aacfb1146105b357600080fd5b8063cf27cfc4146104b5578063d1af032c146104c8578063d6034c2614610505578063ddaec20514610518578063dfe28fbf1461052b57600080fd5b8063ac3e2c6f116100ff578063ac3e2c6f1461042f578063b256456914610442578063b88d4fde14610466578063c6f88d4a14610479578063c87b56dd146104a257600080fd5b806386c048c5146103db5780638fc76be7146103ee57806395d89b411461040157806399d112fa14610409578063a22cb4651461041c57600080fd5b806332f4da4a116101c95780634f6ccce71161018d5780634f6ccce71461037c5780636198e3391461038f5780636352211e146103a257806370a08231146103b55780637827136b146103c857600080fd5b806332f4da4a1461031d578063336996241461033057806342842e0e1461034357806342966c68146103565780634541eda31461036957600080fd5b8063162094c411610210578063162094c4146102bf57806318160ddd146102d257806323b872dd146102e45780632e5466e6146102f75780632f745c591461030a57600080fd5b806301ffc9a71461024257806306fdde031461026a578063081812fc1461027f578063095ea7b3146102aa575b600080fd5b61025561025036600461312e565b6105e5565b60405190151581526020015b60405180910390f35b61027261062b565b604051610261919061319b565b61029261028d3660046131ae565b6106bd565b6040516001600160a01b039091168152602001610261565b6102bd6102b83660046131dc565b6106e4565b005b6102bd6102cd366004613208565b6107fe565b6009545b604051908152602001610261565b6102bd6102f2366004613284565b61086b565b6102bd6103053660046132d3565b61091b565b6102d66103183660046131dc565b61097c565b61025561032b366004613315565b610a12565b6102bd61033e366004613345565b610b41565b6102bd610351366004613284565b610b8d565b6102bd6103643660046131ae565b610ba8565b6102556103773660046131ae565b610ef1565b6102d661038a3660046131ae565b611018565b6102bd61039d3660046131ae565b6110ab565b6102926103b03660046131ae565b611105565b6102d66103c336600461336a565b611165565b6102556103d63660046131ae565b6111eb565b6102556103e93660046131ae565b61120f565b6102556103fc366004613387565b61132d565b610272611371565b610255610417366004613315565b611380565b6102bd61042a3660046133ae565b6113ca565b61025561043d366004613315565b6113d5565b6102556104503660046131ae565b6000908152600b602052604090205460ff161590565b6102bd6104743660046133f2565b6113f2565b6102556104873660046131ae565b6000908152600b6020526040902054610100900460ff161590565b6102726104b03660046131ae565b6114a2565b6102bd6104c3366004613387565b6115a4565b6102556104d6366004613315565b6000828152600b602090815260408083206001600160a01b038516845260030190915290205460ff1692915050565b6102bd610513366004613387565b611689565b6102556105263660046131ae565b6116bb565b6102bd610539366004613345565b6116de565b6102bd61054c366004613387565b611725565b61025561055f3660046134d2565b6001600160a01b03918216600090815260056020908152604080832093909416825291909152205460ff1690565b6102bd61059b366004613387565b61199f565b6102bd6105ae366004613387565b611bf3565b6105c66105c13660046131ae565b611fc6565b604080516001600160a01b039093168352602083019190915201610261565b60006001600160e01b03198216631e6f6d8b60e31b148061061657506001600160e01b0319821663012a552760e41b145b80610625575061062582611fed565b92915050565b60606000805461063a90613500565b80601f016020809104026020016040519081016040528092919081815260200182805461066690613500565b80156106b35780601f10610688576101008083540402835291602001916106b3565b820191906000526020600020905b81548152906001019060200180831161069657829003601f168201915b5050505050905090565b60006106c882612012565b506000908152600460205260409020546001600160a01b031690565b60006106ef82611105565b9050806001600160a01b0316836001600160a01b0316036107615760405162461bcd60e51b815260206004820152602160248201527f4552433732313a20617070726f76616c20746f2063757272656e74206f776e656044820152603960f91b60648201526084015b60405180910390fd5b336001600160a01b038216148061077d575061077d813361055f565b6107ef5760405162461bcd60e51b815260206004820152603d60248201527f4552433732313a20617070726f76652063616c6c6572206973206e6f7420746f60448201527f6b656e206f776e6572206f7220617070726f76656420666f7220616c6c0000006064820152608401610758565b6107f98383612074565b505050565b8261080933826120e2565b6108255760405162461bcd60e51b81526004016107589061353a565b6108658484848080601f01602080910402602001604051908101604052809392919081815260200183838082843760009201919091525061216092505050565b50505050565b80600061087782611fc6565b91505080156108e2576000828152600b60205260409020600601546001600160a01b03163314806108c157506000828152600b60205260409020600601546001600160a01b031630145b6108dd5760405162461bcd60e51b815260040161075890613587565b610909565b6108ed335b836120e2565b6109095760405162461bcd60e51b81526004016107589061353a565b61091485858561222b565b5050505050565b8261092633826120e2565b6109425760405162461bcd60e51b81526004016107589061353a565b506000928352600b602090815260408085206001600160a01b03949094168552600390930190529120805460ff1916911515919091179055565b600061098783611165565b82106109e95760405162461bcd60e51b815260206004820152602b60248201527f455243373231456e756d657261626c653a206f776e657220696e646578206f7560448201526a74206f6620626f756e647360a81b6064820152608401610758565b506001600160a01b03919091166000908152600760209081526040808320938352929052205490565b6000805b6000848152600b6020526040902060010154811015610b37576000848152600b60205260408120600101805483908110610a5257610a5261360a565b60009182526020808320600290920290910154878352600b9091526040822060010180546001600160a01b0390921693509084908110610a9457610a9461360a565b600091825260209091206001600290920201015460405163ac3e2c6f60e01b8152600481018290526001600160a01b0387811660248301529192509083169063ac3e2c6f90604401602060405180830381865afa158015610af9573d6000803e3d6000fd5b505050506040513d601f19601f82011682018060405250810190610b1d9190613620565b610b2d5760009350505050610625565b5050600101610a16565b5060019392505050565b81610b4c33826120e2565b610b685760405162461bcd60e51b81526004016107589061353a565b506000918252600b6020526040909120805461ff001916911561010002919091179055565b6107f9838383604051806020016040528060008152506113f2565b80610bb333826120e2565b610bcf5760405162461bcd60e51b81526004016107589061353a565b610bd8826111eb565b610c4a5760405162461bcd60e51b815260206004820152603e60248201527f4c43543a2074686520746f6b656e206f72206f6e65206f662069747320436f6d60448201527f6d616e64657220546f6b656e7320617265206e6f74206275726e61626c6500006064820152608401610758565b60005b6000838152600b6020526040902060040154811015610d4d576000838152600b60205260408120600401805483908110610c8957610c8961360a565b60009182526020808320600290920290910154868352600b9091526040822060040180546001600160a01b0390921693509084908110610ccb57610ccb61360a565b9060005260206000209060020201600101549050816001600160a01b03166342966c68826040518263ffffffff1660e01b8152600401610d0d91815260200190565b600060405180830381600087803b158015610d2757600080fd5b505af1158015610d3b573d6000803e3d6000fd5b505060019094019350610c4d92505050565b5060005b6000838152600b6020526040902060040154811015610df7576000838152600b60205260408120600401805483908110610d8d57610d8d61360a565b60009182526020808320604080518082018252600290940290910180546001600160a01b0390811685526001918201548585019081528a8752600b855283872095519091168652600590940183528185209351855292909152822091909155919091019050610d51565b5060005b6000838152600b6020526040902060010154811015610e9e576000838152600b60205260408120600101805483908110610e3757610e3761360a565b60009182526020808320604080518082018252600294850290920180546001600160a01b0390811684526001918201548486019081528b8852600b865283882094519091168752929094018352808520915185529152822091909155919091019050610dfb565b506000828152600b60205260408120805461ffff1916815590610ec460018301826130d2565b610ed26004830160006130d2565b506006810180546001600160a01b031916905560006007909101555050565b6000805b6000838152600b602052604090206001015481101561100f576000838152600b60205260408120600101805483908110610f3157610f3161360a565b60009182526020808320600290920290910154868352600b9091526040822060010180546001600160a01b0390921693509084908110610f7357610f7361360a565b9060005260206000209060020201600101549050816001600160a01b031663ddaec205826040518263ffffffff1660e01b8152600401610fb591815260200190565b602060405180830381865afa158015610fd2573d6000803e3d6000fd5b505050506040513d601f19601f82011682018060405250810190610ff69190613620565b61100557506000949350505050565b5050600101610ef5565b50600192915050565b600061102360095490565b82106110865760405162461bcd60e51b815260206004820152602c60248201527f455243373231456e756d657261626c653a20676c6f62616c20696e646578206f60448201526b7574206f6620626f756e647360a01b6064820152608401610758565b600982815481106110995761109961360a565b90600052602060002001549050919050565b6000818152600b60205260409020600601546001600160a01b0316338114806110dc57506001600160a01b03811630145b6110f85760405162461bcd60e51b81526004016107589061363d565b6111018261239c565b5050565b6000818152600260205260408120546001600160a01b0316806106255760405162461bcd60e51b8152602060048201526018602482015277115490cdcc8c4e881a5b9d985b1a59081d1bdad95b88125160421b6044820152606401610758565b60006001600160a01b0382166111cf5760405162461bcd60e51b815260206004820152602960248201527f4552433732313a2061646472657373207a65726f206973206e6f7420612076616044820152683634b21037bbb732b960b91b6064820152608401610758565b506001600160a01b031660009081526003602052604090205490565b6000818152600b6020526040812054610100900460ff161580156106255750610625825b6000805b6000838152600b602052604090206001015481101561100f576000838152600b6020526040812060010180548390811061124f5761124f61360a565b60009182526020808320600290920290910154868352600b9091526040822060010180546001600160a01b03909216935090849081106112915761129161360a565b9060005260206000209060020201600101549050816001600160a01b0316637827136b826040518263ffffffff1660e01b81526004016112d391815260200190565b602060405180830381865afa1580156112f0573d6000803e3d6000fd5b505050506040513d601f19601f820116820180604052508101906113149190613620565b61132357506000949350505050565b5050600101611213565b6000838152600b602090815260408083206001600160a01b03861684526002018252808320848452909152812054611366576000611369565b60015b949350505050565b60606001805461063a90613500565b6000828152600b602052604081205460ff1615806113c357506000838152600b602090815260408083206001600160a01b038616845260030190915290205460ff165b9392505050565b6111013383836123ff565b60006113e18383611380565b80156113c357506113c38383610a12565b8160006113fe82611fc6565b9150508015611469576000828152600b60205260409020600601546001600160a01b031633148061144857506000828152600b60205260409020600601546001600160a01b031630145b6114645760405162461bcd60e51b815260040161075890613587565b61148e565b611472336108e7565b61148e5760405162461bcd60e51b81526004016107589061353a565b61149a868686866124cd565b505050505050565b6000818152600660205260408120805460609291906114c090613500565b80601f01602080910402602001604051908101604052809291908181526020018280546114ec90613500565b80156115395780601f1061150e57610100808354040283529160200191611539565b820191906000526020600020905b81548152906001019060200180831161151c57829003601f168201915b50505050509050600061155760408051602081019091526000815290565b90508051600003611569575092915050565b81511561159b57808260405160200161158392919061369a565b60405160208183030381529060405292505050919050565b61136984612500565b826115af33826120e2565b6115cb5760405162461bcd60e51b81526004016107589061353a565b838383816001600160a01b0316636352211e826040518263ffffffff1660e01b81526004016115fc91815260200190565b602060405180830381865afa158015611619573d6000803e3d6000fd5b505050506040513d601f19601f8201168201806040525081019061163d91906136c9565b6001600160a01b031661164f84611105565b6001600160a01b0316146116755760405162461bcd60e51b8152600401610758906136e6565b611680878787612573565b50505050505050565b8261169433826120e2565b6116b05760405162461bcd60e51b81526004016107589061353a565b6108658484846127c0565b6000818152600b602052604081205460ff16158015610625575061062582610ef1565b816116e933826120e2565b6117055760405162461bcd60e51b81526004016107589061353a565b506000918252600b6020526040909120805460ff19169115919091179055565b6000838152600b602090815260408083206001600160a01b038616845260050182528083208484529091529020546117d85760405162461bcd60e51b815260206004820152604a60248201527f4c6f636b656420546f6b656e3a204c6f636b6564494420696e20636f6e74726160448201527f6374204c6f636b6564436f6e7472616374206973206e6f74206c6f636b6564206064820152691d1bc81d1bdad95b925160b21b608482015260a401610758565b6000838152600b602090815260408083206001600160a01b038616845260050182528083208484529091528120546118129060019061374f565b6000858152600b602081815260408084206001600160a01b03891685526005810183528185208886528352908420849055888452919052600401549192509061185d9060019061374f565b6000868152600b60205260409020600401805491925090829081106118845761188461360a565b9060005260206000209060020201600b600087815260200190815260200160002060040183815481106118b9576118b961360a565b60009182526020808320845460029093020180546001600160a01b0319166001600160a01b039093169290921782556001938401549390910192909255868152600b9091526040902060040180548061191457611914613762565b6000828152602081206002600019939093019283020180546001600160a01b0319168155600101559055604051636198e33960e01b8152600481018490526001600160a01b03851690636198e33990602401600060405180830381600087803b15801561198057600080fd5b505af1158015611994573d6000803e3d6000fd5b505050505050505050565b828282816001600160a01b0316636352211e826040518263ffffffff1660e01b81526004016119d091815260200190565b602060405180830381865afa1580156119ed573d6000803e3d6000fd5b505050506040513d601f19601f82011682018060405250810190611a1191906136c9565b6001600160a01b0316611a2384611105565b6001600160a01b031614611a495760405162461bcd60e51b8152600401610758906136e6565b846001600160a01b038116331480611a6957506001600160a01b03811630145b611a855760405162461bcd60e51b81526004016107589061363d565b6000878152600b602090815260408083206001600160a01b038a168452600501825280832088845290915290205415611b3f5760405162461bcd60e51b815260206004820152605060248201527f4c6f636b656420546f6b656e3a20746f6b656e494420697320616c726561647960448201527f206c6f636b656420746f204c6f636b656449442066726f6d20636f6e7472616360648201526f1d08131bd8dad95910dbdb9d1c9858dd60821b608482015260a401610758565b6040805180820182526001600160a01b0388168152602080820188905260008a8152600b9091529190912060040154611b79906001613778565b6000988952600b60208181526040808c206001600160a01b039b8c168d52600581018352818d209a8d529982528b209290925581526004909601805460018082018355918a529887902082516002909a020180546001600160a01b0319169990981698909817875590940151949095019390935550505050565b6000838152600b602090815260408083206001600160a01b038616845260020182528083208484529091529020548290611ca35760405162461bcd60e51b815260206004820152604560248201527f4c43543a20746f6b656e4944206973206e6f7420646570656e64656e74206f6e60448201527f20435469642066726f6d20636f6e7472616374204354436f6e74726163744164606482015264647265737360d81b608482015260a401610758565b611cad33856120e2565b8015611d1d575060405163b256456960e01b8152600481018390526001600160a01b0382169063b256456990602401602060405180830381865afa158015611cf9573d6000803e3d6000fd5b505050506040513d601f19601f82011682018060405250810190611d1d9190613620565b8015611d8d575060405163637c46a560e11b8152600481018390526001600160a01b0382169063c6f88d4a90602401602060405180830381865afa158015611d69573d6000803e3d6000fd5b505050506040513d601f19601f82011682018060405250810190611d8d9190613620565b80611da05750336001600160a01b038416145b611e065760405162461bcd60e51b815260206004820152603160248201527f4c43543a2073656e646572206973206e6f74207065726d697474656420746f2060448201527072656d6f766520646570656e64656e637960781b6064820152608401610758565b6000848152600b602090815260408083206001600160a01b03871684526002018252808320858452909152812054611e409060019061374f565b6000868152600b602081815260408084206001600160a01b038a16855260028101835281852089865283529084208490558984529190526001908101549293509091611e8c919061374f565b6000878152600b6020526040902060010180549192509082908110611eb357611eb361360a565b9060005260206000209060020201600b60008881526020019081526020016000206001018381548110611ee857611ee861360a565b60009182526020808320845460029093020180546001600160a01b0319166001600160a01b0390931692909217825560019384015491840191909155888252600b90526040902001805480611f3f57611f3f613762565b60008281526020812060026000199093019283020180546001600160a01b03191681556001015590556040517f690094bc4403e5fdf0ec1828b799e4015d5b39b33cfeb65df06a242febf4daf490611fb6908890889088909283526001600160a01b03919091166020830152604082015260600190565b60405180910390a1505050505050565b6000908152600b6020526040902060068101546007909101546001600160a01b0390911691565b60006001600160e01b0319821663780e9d6360e01b1480610625575061062582612952565b6000818152600260205260409020546001600160a01b03166120715760405162461bcd60e51b8152602060048201526018602482015277115490cdcc8c4e881a5b9d985b1a59081d1bdad95b88125160421b6044820152606401610758565b50565b600081815260046020526040902080546001600160a01b0319166001600160a01b03841690811790915581906120a982611105565b6001600160a01b03167f8c5be1e5ebec7d5bd14f71427d1e84f3dd0314c0f7b2291e5b200ac8c7c3b92560405160405180910390a45050565b6000806120ee83611105565b9050806001600160a01b0316846001600160a01b0316148061213557506001600160a01b0380821660009081526005602090815260408083209388168352929052205460ff165b806113695750836001600160a01b031661214e846106bd565b6001600160a01b031614949350505050565b6000828152600260205260409020546001600160a01b03166121db5760405162461bcd60e51b815260206004820152602e60248201527f45524337323155524953746f726167653a2055524920736574206f66206e6f6e60448201526d32bc34b9ba32b73a103a37b5b2b760911b6064820152608401610758565b60008281526006602052604090206121f382826137d3565b506040518281527ff8e1a15aba9398e019f0b49df1a4fde98ee17ae345cb5f6b5e2c27f5033e8ce79060200160405180910390a15050565b826001600160a01b031661223e82611105565b6001600160a01b0316146122645760405162461bcd60e51b815260040161075890613893565b6001600160a01b0382166122c65760405162461bcd60e51b8152602060048201526024808201527f4552433732313a207472616e7366657220746f20746865207a65726f206164646044820152637265737360e01b6064820152608401610758565b6122d383838360016129a2565b826001600160a01b03166122e682611105565b6001600160a01b03161461230c5760405162461bcd60e51b815260040161075890613893565b600081815260046020908152604080832080546001600160a01b03199081169091556001600160a01b0387811680865260038552838620805460001901905590871680865283862080546001019055868652600290945282852080549092168417909155905184937fddf252ad1be2c89b69c2b068fc378daa952ba7f163c4a11628f55a4df523b3ef91a4505050565b6000818152600b60205260408082206006810180546001600160a01b031916905560070191909155517ff27b6ce5b2f5e68ddb2fd95a8a909d4ecf1daaac270935fff052feacb24f1842906123f49083815260200190565b60405180910390a150565b816001600160a01b0316836001600160a01b0316036124605760405162461bcd60e51b815260206004820152601960248201527f4552433732313a20617070726f766520746f2063616c6c6572000000000000006044820152606401610758565b6001600160a01b03838116600081815260056020908152604080832094871680845294825291829020805460ff191686151590811790915591519182527f17307eab39ab6107e8899845ad3d59bd9653f200f220920489ca2b5937696c31910160405180910390a3505050565b6124d884848461222b565b6124e484848484612ba9565b6108655760405162461bcd60e51b8152600401610758906138d8565b606061250b82612012565b600061252260408051602081019091526000815290565b9050600081511161254257604051806020016040528060008152506113c3565b8061254c84612caa565b60405160200161255d92919061369a565b6040516020818303038152906040529392505050565b60008061257f85611fc6565b91509150806000146125e35760405162461bcd60e51b815260206004820152602760248201527f4c6f636b656420546f6b656e3a20746f6b656e494420697320616c7265616479604482015266081b1bd8dad95960ca1b6064820152608401610758565b60405163f6aacfb160e01b8152600481018490526001600160a01b0385169063f6aacfb1906024016040805180830381865afa158015612627573d6000803e3d6000fd5b505050506040513d601f19601f8201168201806040525081019061264b919061392a565b90925090506001600160a01b038216301415806126685750848114155b6126dc576040805162461bcd60e51b81526020600482015260248101919091527f4c6f636b656420546f6b656e3a20446561646c6f636b2064657465636574656460448201527f21204c6f636b696e674944206973206c6f636b656420746f20746f6b656e49446064820152608401610758565b6000858152600b6020526040908190206006810180546001600160a01b0319166001600160a01b0388169081179091556007909101859055905163edee396560e01b8152600481018590523060248201526044810187905263edee396590606401600060405180830381600087803b15801561275757600080fd5b505af115801561276b573d6000803e3d6000fd5b5050604080518881526001600160a01b03881660208201529081018690527f697d86e6398a689ac7b8bea2b6f3f65704d1b113d2d31863c6d26501e7265cff9250606001905060405180910390a15050505050565b6000838152600b602090815260408083206001600160a01b03861684526002018252808320848452909152902054156128615760405162461bcd60e51b815260206004820152603b60248201527f4c43543a20746f6b656e494420616c726561647920646570656e6473206f6e2060448201527f435469642066726f6d204354436f6e74726163744164647265737300000000006064820152608401610758565b6040805180820182526001600160a01b038416815260208082018490526000868152600b9091529190912060019081015461289b91613778565b6000858152600b602081815260408084206001600160a01b03898116808752600280840186528488208b89528652848820989098559484526001918201805480840182559087529584902088519690970290960180546001600160a01b0319169590961694909417855585820151949093019390935581518781529283015281018390527f142495d58c8fd8701db1b1d5a807743699bc5f87d97a4b64006eaeb9e9ac5e899060600160405180910390a150505050565b60006001600160e01b031982166380ac58cd60e01b148061298357506001600160e01b03198216635b5e139f60e01b145b8061062557506301ffc9a760e01b6001600160e01b0319831614610625565b6129ae84848484612d3d565b6129b88284611380565b612a1c5760405162461bcd60e51b815260206004820152602f60248201527f4c43543a2074686520746f6b656e207374617475732069732073657420746f2060448201526e6e6f6e7472616e7366657261626c6560881b6064820152608401610758565b612a268284610a12565b612a985760405162461bcd60e51b815260206004820152603c60248201527f4c43543a2074686520746f6b656e20646570656e6473206f6e206174206c656160448201527f7374206f6e65206e6f6e7472616e7366657261626c6520746f6b656e000000006064820152608401610758565b60005b6000838152600b6020526040902060040154811015610914576000838152600b60205260408120600401805483908110612ad757612ad761360a565b60009182526020808320600290920290910154868352600b9091526040822060040180546001600160a01b0390921693509084908110612b1957612b1961360a565b60009182526020909120600160029092020101546040516323b872dd60e01b81526001600160a01b038981166004830152888116602483015260448201839052919250908316906323b872dd90606401600060405180830381600087803b158015612b8357600080fd5b505af1158015612b97573d6000803e3d6000fd5b505060019094019350612a9b92505050565b60006001600160a01b0384163b15612c9f57604051630a85bd0160e11b81526001600160a01b0385169063150b7a0290612bed903390899088908890600401613958565b6020604051808303816000875af1925050508015612c28575060408051601f3d908101601f19168201909252612c2591810190613995565b60015b612c85573d808015612c56576040519150601f19603f3d011682016040523d82523d6000602084013e612c5b565b606091505b508051600003612c7d5760405162461bcd60e51b8152600401610758906138d8565b805181602001fd5b6001600160e01b031916630a85bd0160e11b149050611369565b506001949350505050565b60606000612cb783612e6a565b600101905060008167ffffffffffffffff811115612cd757612cd76133dc565b6040519080825280601f01601f191660200182016040528015612d01576020820181803683370190505b5090508181016020015b600019016f181899199a1a9b1b9c1cb0b131b232b360811b600a86061a8153600a8504945084612d0b57509392505050565b6001811115612dac5760405162461bcd60e51b815260206004820152603560248201527f455243373231456e756d657261626c653a20636f6e7365637574697665207472604482015274185b9cd9995c9cc81b9bdd081cdd5c1c1bdc9d1959605a1b6064820152608401610758565b816001600160a01b038516612e0857612e0381600980546000838152600a60205260408120829055600182018355919091527f6e1540171b6c0c960b71a7020d9f60077f6af931a8bbf590da0223dacf75c7af0155565b612e2b565b836001600160a01b0316856001600160a01b031614612e2b57612e2b8582612f42565b6001600160a01b038416612e4757612e4281612fdf565b610914565b846001600160a01b0316846001600160a01b03161461091457610914848261308e565b60008072184f03e93ff9f4daa797ed6e38ed64bf6a1f0160401b8310612ea95772184f03e93ff9f4daa797ed6e38ed64bf6a1f0160401b830492506040015b6d04ee2d6d415b85acef81000000008310612ed5576d04ee2d6d415b85acef8100000000830492506020015b662386f26fc100008310612ef357662386f26fc10000830492506010015b6305f5e1008310612f0b576305f5e100830492506008015b6127108310612f1f57612710830492506004015b60648310612f31576064830492506002015b600a83106106255760010192915050565b60006001612f4f84611165565b612f59919061374f565b600083815260086020526040902054909150808214612fac576001600160a01b03841660009081526007602090815260408083208584528252808320548484528184208190558352600890915290208190555b5060009182526008602090815260408084208490556001600160a01b039094168352600781528383209183525290812055565b600954600090612ff19060019061374f565b6000838152600a6020526040812054600980549394509092849081106130195761301961360a565b90600052602060002001549050806009838154811061303a5761303a61360a565b6000918252602080832090910192909255828152600a9091526040808220849055858252812055600980548061307257613072613762565b6001900381819060005260206000200160009055905550505050565b600061309983611165565b6001600160a01b039093166000908152600760209081526040808320868452825280832085905593825260089052919091209190915550565b508054600082556002029060005260206000209081019061207191905b808211156131145780546001600160a01b0319168155600060018201556002016130ef565b5090565b6001600160e01b03198116811461207157600080fd5b60006020828403121561314057600080fd5b81356113c381613118565b60005b8381101561316657818101518382015260200161314e565b50506000910152565b6000815180845261318781602086016020860161314b565b601f01601f19169290920160200192915050565b6020815260006113c3602083018461316f565b6000602082840312156131c057600080fd5b5035919050565b6001600160a01b038116811461207157600080fd5b600080604083850312156131ef57600080fd5b82356131fa816131c7565b946020939093013593505050565b60008060006040848603121561321d57600080fd5b83359250602084013567ffffffffffffffff8082111561323c57600080fd5b818601915086601f83011261325057600080fd5b81358181111561325f57600080fd5b87602082850101111561327157600080fd5b6020830194508093505050509250925092565b60008060006060848603121561329957600080fd5b83356132a4816131c7565b925060208401356132b4816131c7565b929592945050506040919091013590565b801515811461207157600080fd5b6000806000606084860312156132e857600080fd5b8335925060208401356132fa816131c7565b9150604084013561330a816132c5565b809150509250925092565b6000806040838503121561332857600080fd5b82359150602083013561333a816131c7565b809150509250929050565b6000806040838503121561335857600080fd5b82359150602083013561333a816132c5565b60006020828403121561337c57600080fd5b81356113c3816131c7565b60008060006060848603121561339c57600080fd5b8335925060208401356132b4816131c7565b600080604083850312156133c157600080fd5b82356133cc816131c7565b9150602083013561333a816132c5565b634e487b7160e01b600052604160045260246000fd5b6000806000806080858703121561340857600080fd5b8435613413816131c7565b93506020850135613423816131c7565b925060408501359150606085013567ffffffffffffffff8082111561344757600080fd5b818701915087601f83011261345b57600080fd5b81358181111561346d5761346d6133dc565b604051601f8201601f19908116603f01168101908382118183101715613495576134956133dc565b816040528281528a60208487010111156134ae57600080fd5b82602086016020830137600060208483010152809550505050505092959194509250565b600080604083850312156134e557600080fd5b82356134f0816131c7565b9150602083013561333a816131c7565b600181811c9082168061351457607f821691505b60208210810361353457634e487b7160e01b600052602260045260246000fd5b50919050565b6020808252602d908201527f4552433732313a2063616c6c6572206973206e6f7420746f6b656e206f776e6560408201526c1c881bdc88185c1c1c9bdd9959609a1b606082015260800190565b60208082526058908201527f4c6f636b656420546f6b656e3a20746f6b656e4944206973206c6f636b65642060408201527f616e642063616c6c6572206973206e6f742074686520636f6e7472616374206860608201527f6f6c64696e6720746865206c6f636b696e6720746f6b656e0000000000000000608082015260a00190565b634e487b7160e01b600052603260045260246000fd5b60006020828403121561363257600080fd5b81516113c3816132c5565b6020808252603f908201527f4c6f636b656420546f6b656e3a207472616e73616374696f6e206973206e6f7460408201527f2073656e742066726f6d2074686520636f727265637420636f6e747261637400606082015260800190565b600083516136ac81846020880161314b565b8351908301906136c081836020880161314b565b01949350505050565b6000602082840312156136db57600080fd5b81516113c3816131c7565b60208082526033908201527f4c6f636b656420546f6b656e3a2074686520746f6b656e7320646f206e6f74206040820152723430bb32903a34329039b0b6b29037bbb732b960691b606082015260800190565b634e487b7160e01b600052601160045260246000fd5b8181038181111561062557610625613739565b634e487b7160e01b600052603160045260246000fd5b8082018082111561062557610625613739565b601f8211156107f9576000816000526020600020601f850160051c810160208610156137b45750805b601f850160051c820191505b8181101561149a578281556001016137c0565b815167ffffffffffffffff8111156137ed576137ed6133dc565b613801816137fb8454613500565b8461378b565b602080601f831160018114613836576000841561381e5750858301515b600019600386901b1c1916600185901b17855561149a565b600085815260208120601f198616915b8281101561386557888601518255948401946001909101908401613846565b50858210156138835787850151600019600388901b60f8161c191681555b5050505050600190811b01905550565b60208082526025908201527f4552433732313a207472616e736665722066726f6d20696e636f72726563742060408201526437bbb732b960d91b606082015260800190565b60208082526032908201527f4552433732313a207472616e7366657220746f206e6f6e20455243373231526560408201527131b2b4bb32b91034b6b83632b6b2b73a32b960711b606082015260800190565b6000806040838503121561393d57600080fd5b8251613948816131c7565b6020939093015192949293505050565b6001600160a01b038581168252841660208201526040810183905260806060820181905260009061398b9083018461316f565b9695505050505050565b6000602082840312156139a757600080fd5b81516113c38161311856fea2646970667358221220d6e79f5a918efed256af2615ff9c459f92ed0d33028a794eac39a73d959e441164736f6c63430008190033","linkReferences":{}},"methodIdentifiers":{"addLockedToken(uint256,address,uint256)":"edee3965","approve(address,uint256)":"095ea7b3","balanceOf(address)":"70a08231","burn(uint256)":"42966c68","getApproved(uint256)":"081812fc","isAddressWhitelisted(uint256,address)":"d1af032c","isApprovedForAll(address,address)":"e985e9c5","isBurnable(uint256)":"c6f88d4a","isDependent(uint256,address,uint256)":"8fc76be7","isDependentBurnable(uint256)":"86c048c5","isDependentTransferable(uint256)":"4541eda3","isDependentTransferableToAddress(uint256,address)":"32f4da4a","isLocked(uint256)":"f6aacfb1","isTokenBurnable(uint256)":"7827136b","isTokenTransferable(uint256)":"ddaec205","isTokenTransferableToAddress(uint256,address)":"ac3e2c6f","isTransferable(uint256)":"b2564569","isTransferableToAddress(uint256,address)":"99d112fa","lock(uint256,address,uint256)":"cf27cfc4","name()":"06fdde03","ownerOf(uint256)":"6352211e","removeDependence(uint256,address,uint256)":"eee40354","removeLockedToken(uint256,address,uint256)":"e5c8e431","safeTransferFrom(address,address,uint256)":"42842e0e","safeTransferFrom(address,address,uint256,bytes)":"b88d4fde","setApprovalForAll(address,bool)":"a22cb465","setBurnable(uint256,bool)":"33699624","setDependence(uint256,address,uint256)":"d6034c26","setTokenURI(uint256,string)":"162094c4","setTransferWhitelist(uint256,address,bool)":"2e5466e6","setTransferable(uint256,bool)":"dfe28fbf","supportsInterface(bytes4)":"01ffc9a7","symbol()":"95d89b41","tokenByIndex(uint256)":"4f6ccce7","tokenOfOwnerByIndex(address,uint256)":"2f745c59","tokenURI(uint256)":"c87b56dd","totalSupply()":"18160ddd","transferFrom(address,address,uint256)":"23b872dd","unlock(uint256)":"6198e339"},"id":17}