{"abi":[{"type":"constructor","inputs":[{"name":"name","type":"string","internalType":"string"},{"name":"symbol","type":"string","internalType":"string"},{"name":"initialOwner","type":"address","internalType":"address"},{"name":"verifierContract","type":"address","internalType":"address"}],"stateMutability":"nonpayable"},{"type":"function","name":"addLockedToken","inputs":[{"name":"tokenID","type":"uint256","internalType":"uint256"},{"name":"LockedContract","type":"address","internalType":"address"},{"name":"LockedID","type":"uint256","internalType":"uint256"}],"outputs":[],"stateMutability":"nonpayable"},{"type":"function","name":"approve","inputs":[{"name":"to","type":"address","internalType":"address"},{"name":"tokenId","type":"uint256","internalType":"uint256"}],"outputs":[],"stateMutability":"nonpayable"},{"type":"function","name":"balanceOf","inputs":[{"name":"owner","type":"address","internalType":"address"}],"outputs":[{"name":"","type":"uint256","internalType":"uint256"}],"stateMutability":"view"},{"type":"function","name":"burn","inputs":[{"name":"tokenID","type":"uint256","internalType":"uint256"}],"outputs":[],"stateMutability":"nonpayable"},{"type":"function","name":"clearExpiredSubnames","inputs":[{"name":"nameID","type":"uint256","internalType":"uint256"}],"outputs":[],"stateMutability":"nonpayable"},{"type":"function","name":"data","inputs":[{"name":"nameID","type":"uint256","internalType":"uint256"}],"outputs":[{"name":"","type":"address","internalType":"address"}],"stateMutability":"view"},{"type":"function","name":"getApproved","inputs":[{"name":"tokenId","type":"uint256","internalType":"uint256"}],"outputs":[{"name":"","type":"address","internalType":"address"}],"stateMutability":"view"},{"type":"function","name":"getExpirationTimestamp","inputs":[{"name":"nameID","type":"uint256","internalType":"uint256"}],"outputs":[{"name":"","type":"uint256","internalType":"uint256"}],"stateMutability":"view"},{"type":"function","name":"getName","inputs":[{"name":"nameID","type":"uint256","internalType":"uint256"}],"outputs":[{"name":"","type":"string","internalType":"string"}],"stateMutability":"view"},{"type":"function","name":"getNameType","inputs":[{"name":"nameID","type":"uint256","internalType":"uint256"}],"outputs":[{"name":"","type":"uint8","internalType":"uint8"}],"stateMutability":"view"},{"type":"function","name":"getParentID","inputs":[{"name":"nameID","type":"uint256","internalType":"uint256"}],"outputs":[{"name":"","type":"uint256","internalType":"uint256"}],"stateMutability":"view"},{"type":"function","name":"isAddressWhitelisted","inputs":[{"name":"tokenID","type":"uint256","internalType":"uint256"},{"name":"whitelistAddress","type":"address","internalType":"address"}],"outputs":[{"name":"","type":"bool","internalType":"bool"}],"stateMutability":"view"},{"type":"function","name":"isApprovedForAll","inputs":[{"name":"owner","type":"address","internalType":"address"},{"name":"operator","type":"address","internalType":"address"}],"outputs":[{"name":"","type":"bool","internalType":"bool"}],"stateMutability":"view"},{"type":"function","name":"isBurnable","inputs":[{"name":"tokenID","type":"uint256","internalType":"uint256"}],"outputs":[{"name":"","type":"bool","internalType":"bool"}],"stateMutability":"view"},{"type":"function","name":"isDependent","inputs":[{"name":"tokenID","type":"uint256","internalType":"uint256"},{"name":"CTContractAddress","type":"address","internalType":"address"},{"name":"CTID","type":"uint256","internalType":"uint256"}],"outputs":[{"name":"","type":"bool","internalType":"bool"}],"stateMutability":"view"},{"type":"function","name":"isDependentBurnable","inputs":[{"name":"tokenID","type":"uint256","internalType":"uint256"}],"outputs":[{"name":"","type":"bool","internalType":"bool"}],"stateMutability":"view"},{"type":"function","name":"isDependentTransferable","inputs":[{"name":"tokenID","type":"uint256","internalType":"uint256"}],"outputs":[{"name":"","type":"bool","internalType":"bool"}],"stateMutability":"view"},{"type":"function","name":"isDependentTransferableToAddress","inputs":[{"name":"tokenID","type":"uint256","internalType":"uint256"},{"name":"transferToAddress","type":"address","internalType":"address"}],"outputs":[{"name":"","type":"bool","internalType":"bool"}],"stateMutability":"view"},{"type":"function","name":"isLocked","inputs":[{"name":"tokenID","type":"uint256","internalType":"uint256"}],"outputs":[{"name":"","type":"address","internalType":"address"},{"name":"","type":"uint256","internalType":"uint256"}],"stateMutability":"view"},{"type":"function","name":"isTokenBurnable","inputs":[{"name":"tokenID","type":"uint256","internalType":"uint256"}],"outputs":[{"name":"","type":"bool","internalType":"bool"}],"stateMutability":"view"},{"type":"function","name":"isTokenTransferable","inputs":[{"name":"tokenID","type":"uint256","internalType":"uint256"}],"outputs":[{"name":"","type":"bool","internalType":"bool"}],"stateMutability":"view"},{"type":"function","name":"isTokenTransferableToAddress","inputs":[{"name":"tokenID","type":"uint256","internalType":"uint256"},{"name":"transferToAddress","type":"address","internalType":"address"}],"outputs":[{"name":"","type":"bool","internalType":"bool"}],"stateMutability":"view"},{"type":"function","name":"isTransferable","inputs":[{"name":"tokenID","type":"uint256","internalType":"uint256"}],"outputs":[{"name":"","type":"bool","internalType":"bool"}],"stateMutability":"view"},{"type":"function","name":"isTransferableToAddress","inputs":[{"name":"tokenID","type":"uint256","internalType":"uint256"},{"name":"addressToTransferTo","type":"address","internalType":"address"}],"outputs":[{"name":"","type":"bool","internalType":"bool"}],"stateMutability":"view"},{"type":"function","name":"lock","inputs":[{"name":"tokenID","type":"uint256","internalType":"uint256"},{"name":"LockingContract","type":"address","internalType":"address"},{"name":"LockingID","type":"uint256","internalType":"uint256"}],"outputs":[],"stateMutability":"nonpayable"},{"type":"function","name":"name","inputs":[],"outputs":[{"name":"","type":"string","internalType":"string"}],"stateMutability":"view"},{"type":"function","name":"newHumanName","inputs":[{"name":"name","type":"string","internalType":"string"},{"name":"creator","type":"address","internalType":"address"},{"name":"pubkeyX","type":"bytes32","internalType":"bytes32"},{"name":"pubkeyY","type":"bytes32","internalType":"bytes32"}],"outputs":[{"name":"","type":"uint256","internalType":"uint256"}],"stateMutability":"nonpayable"},{"type":"function","name":"newSubname","inputs":[{"name":"nameID","type":"uint256","internalType":"uint256"},{"name":"subname","type":"string","internalType":"string"}],"outputs":[{"name":"","type":"uint256","internalType":"uint256"}],"stateMutability":"nonpayable"},{"type":"function","name":"owner","inputs":[],"outputs":[{"name":"","type":"address","internalType":"address"}],"stateMutability":"view"},{"type":"function","name":"ownerOf","inputs":[{"name":"tokenId","type":"uint256","internalType":"uint256"}],"outputs":[{"name":"","type":"address","internalType":"address"}],"stateMutability":"view"},{"type":"function","name":"removeDependence","inputs":[{"name":"tokenID","type":"uint256","internalType":"uint256"},{"name":"CTContractAddress","type":"address","internalType":"address"},{"name":"CTID","type":"uint256","internalType":"uint256"}],"outputs":[],"stateMutability":"nonpayable"},{"type":"function","name":"removeLockedToken","inputs":[{"name":"tokenID","type":"uint256","internalType":"uint256"},{"name":"LockedContract","type":"address","internalType":"address"},{"name":"LockedID","type":"uint256","internalType":"uint256"}],"outputs":[],"stateMutability":"nonpayable"},{"type":"function","name":"removeSubname","inputs":[{"name":"subnameID","type":"uint256","internalType":"uint256"}],"outputs":[],"stateMutability":"nonpayable"},{"type":"function","name":"renounceOwnership","inputs":[],"outputs":[],"stateMutability":"nonpayable"},{"type":"function","name":"safeTransferFrom","inputs":[{"name":"from","type":"address","internalType":"address"},{"name":"to","type":"address","internalType":"address"},{"name":"tokenId","type":"uint256","internalType":"uint256"}],"outputs":[],"stateMutability":"nonpayable"},{"type":"function","name":"safeTransferFrom","inputs":[{"name":"from","type":"address","internalType":"address"},{"name":"to","type":"address","internalType":"address"},{"name":"tokenID","type":"uint256","internalType":"uint256"},{"name":"data","type":"bytes","internalType":"bytes"}],"outputs":[],"stateMutability":"nonpayable"},{"type":"function","name":"setApprovalForAll","inputs":[{"name":"operator","type":"address","internalType":"address"},{"name":"approved","type":"bool","internalType":"bool"}],"outputs":[],"stateMutability":"nonpayable"},{"type":"function","name":"setBurnable","inputs":[{"name":"tokenID","type":"uint256","internalType":"uint256"},{"name":"burnable","type":"bool","internalType":"bool"}],"outputs":[],"stateMutability":"nonpayable"},{"type":"function","name":"setDataContract","inputs":[{"name":"nameID","type":"uint256","internalType":"uint256"},{"name":"dataContract","type":"address","internalType":"address"}],"outputs":[],"stateMutability":"nonpayable"},{"type":"function","name":"setDependence","inputs":[{"name":"tokenID","type":"uint256","internalType":"uint256"},{"name":"CTContractAddress","type":"address","internalType":"address"},{"name":"CTID","type":"uint256","internalType":"uint256"}],"outputs":[],"stateMutability":"nonpayable"},{"type":"function","name":"setPubkey","inputs":[{"name":"nameID","type":"uint256","internalType":"uint256"},{"name":"pubkeyX","type":"bytes32","internalType":"bytes32"},{"name":"pubkeyY","type":"bytes32","internalType":"bytes32"}],"outputs":[],"stateMutability":"nonpayable"},{"type":"function","name":"setTokenURI","inputs":[{"name":"tokenID","type":"uint256","internalType":"uint256"},{"name":"tokenURI","type":"string","internalType":"string"}],"outputs":[],"stateMutability":"nonpayable"},{"type":"function","name":"setTransferWhitelist","inputs":[{"name":"tokenID","type":"uint256","internalType":"uint256"},{"name":"whitelistAddress","type":"address","internalType":"address"},{"name":"isWhitelisted","type":"bool","internalType":"bool"}],"outputs":[],"stateMutability":"nonpayable"},{"type":"function","name":"setTransferable","inputs":[{"name":"tokenID","type":"uint256","internalType":"uint256"},{"name":"transferable","type":"bool","internalType":"bool"}],"outputs":[],"stateMutability":"nonpayable"},{"type":"function","name":"subnameIndex","inputs":[{"name":"nameID","type":"uint256","internalType":"uint256"},{"name":"index","type":"uint256","internalType":"uint256"}],"outputs":[{"name":"","type":"uint256","internalType":"uint256"}],"stateMutability":"view"},{"type":"function","name":"subnamesAmount","inputs":[{"name":"nameID","type":"uint256","internalType":"uint256"}],"outputs":[{"name":"","type":"uint256","internalType":"uint256"}],"stateMutability":"view"},{"type":"function","name":"supportsInterface","inputs":[{"name":"interfaceId","type":"bytes4","internalType":"bytes4"}],"outputs":[{"name":"","type":"bool","internalType":"bool"}],"stateMutability":"view"},{"type":"function","name":"symbol","inputs":[],"outputs":[{"name":"","type":"string","internalType":"string"}],"stateMutability":"view"},{"type":"function","name":"tokenByIndex","inputs":[{"name":"index","type":"uint256","internalType":"uint256"}],"outputs":[{"name":"","type":"uint256","internalType":"uint256"}],"stateMutability":"view"},{"type":"function","name":"tokenOfOwnerByIndex","inputs":[{"name":"owner","type":"address","internalType":"address"},{"name":"index","type":"uint256","internalType":"uint256"}],"outputs":[{"name":"","type":"uint256","internalType":"uint256"}],"stateMutability":"view"},{"type":"function","name":"tokenURI","inputs":[{"name":"tokenId","type":"uint256","internalType":"uint256"}],"outputs":[{"name":"","type":"string","internalType":"string"}],"stateMutability":"view"},{"type":"function","name":"totalSupply","inputs":[],"outputs":[{"name":"","type":"uint256","internalType":"uint256"}],"stateMutability":"view"},{"type":"function","name":"transferFrom","inputs":[{"name":"from","type":"address","internalType":"address"},{"name":"to","type":"address","internalType":"address"},{"name":"tokenID","type":"uint256","internalType":"uint256"}],"outputs":[],"stateMutability":"nonpayable"},{"type":"function","name":"transferOwnership","inputs":[{"name":"newOwner","type":"address","internalType":"address"}],"outputs":[],"stateMutability":"nonpayable"},{"type":"function","name":"unlock","inputs":[{"name":"tokenID","type":"uint256","internalType":"uint256"}],"outputs":[],"stateMutability":"nonpayable"},{"type":"function","name":"verifyHuman","inputs":[{"name":"proof","type":"bytes","internalType":"bytes"},{"name":"nameID","type":"uint256","internalType":"uint256"},{"name":"verifiedForTimestamp","type":"uint256","internalType":"uint256"}],"outputs":[],"stateMutability":"nonpayable"},{"type":"event","name":"Approval","inputs":[{"name":"owner","type":"address","indexed":true,"internalType":"address"},{"name":"approved","type":"address","indexed":true,"internalType":"address"},{"name":"tokenId","type":"uint256","indexed":true,"internalType":"uint256"}],"anonymous":false},{"type":"event","name":"ApprovalForAll","inputs":[{"name":"owner","type":"address","indexed":true,"internalType":"address"},{"name":"operator","type":"address","indexed":true,"internalType":"address"},{"name":"approved","type":"bool","indexed":false,"internalType":"bool"}],"anonymous":false},{"type":"event","name":"BatchMetadataUpdate","inputs":[{"name":"_fromTokenId","type":"uint256","indexed":false,"internalType":"uint256"},{"name":"_toTokenId","type":"uint256","indexed":false,"internalType":"uint256"}],"anonymous":false},{"type":"event","name":"MetadataUpdate","inputs":[{"name":"_tokenId","type":"uint256","indexed":false,"internalType":"uint256"}],"anonymous":false},{"type":"event","name":"NewDependence","inputs":[{"name":"tokenId","type":"uint256","indexed":false,"internalType":"uint256"},{"name":"CTContractAddress","type":"address","indexed":false,"internalType":"address"},{"name":"CTId","type":"uint256","indexed":false,"internalType":"uint256"}],"anonymous":false},{"type":"event","name":"NewLocking","inputs":[{"name":"tokenId","type":"uint256","indexed":false,"internalType":"uint256"},{"name":"LockingContract","type":"address","indexed":false,"internalType":"address"},{"name":"LockingId","type":"uint256","indexed":false,"internalType":"uint256"}],"anonymous":false},{"type":"event","name":"OwnershipTransferred","inputs":[{"name":"previousOwner","type":"address","indexed":true,"internalType":"address"},{"name":"newOwner","type":"address","indexed":true,"internalType":"address"}],"anonymous":false},{"type":"event","name":"RemovedDependence","inputs":[{"name":"tokenId","type":"uint256","indexed":false,"internalType":"uint256"},{"name":"CTContractAddress","type":"address","indexed":false,"internalType":"address"},{"name":"CTId","type":"uint256","indexed":false,"internalType":"uint256"}],"anonymous":false},{"type":"event","name":"Transfer","inputs":[{"name":"from","type":"address","indexed":true,"internalType":"address"},{"name":"to","type":"address","indexed":true,"internalType":"address"},{"name":"tokenId","type":"uint256","indexed":true,"internalType":"uint256"}],"anonymous":false},{"type":"event","name":"Unlocked","inputs":[{"name":"tokenId","type":"uint256","indexed":false,"internalType":"uint256"}],"anonymous":false},{"type":"event","name":"humanNameCreated","inputs":[{"name":"name","type":"string","indexed":false,"internalType":"string"},{"name":"creator","type":"address","indexed":false,"internalType":"address"}],"anonymous":false},{"type":"event","name":"subnameCreated","inputs":[{"name":"subname","type":"string","indexed":false,"internalType":"string"},{"name":"creatorNameID","type":"uint256","indexed":false,"internalType":"uint256"},{"name":"subnameID","type":"uint256","indexed":false,"internalType":"uint256"}],"anonymous":false},{"type":"error","name":"ERC721EnumerableForbiddenBatchMint","inputs":[]},{"type":"error","name":"ERC721IncorrectOwner","inputs":[{"name":"sender","type":"address","internalType":"address"},{"name":"tokenId","type":"uint256","internalType":"uint256"},{"name":"owner","type":"address","internalType":"address"}]},{"type":"error","name":"ERC721InsufficientApproval","inputs":[{"name":"operator","type":"address","internalType":"address"},{"name":"tokenId","type":"uint256","internalType":"uint256"}]},{"type":"error","name":"ERC721InvalidApprover","inputs":[{"name":"approver","type":"address","internalType":"address"}]},{"type":"error","name":"ERC721InvalidOperator","inputs":[{"name":"operator","type":"address","internalType":"address"}]},{"type":"error","name":"ERC721InvalidOwner","inputs":[{"name":"owner","type":"address","internalType":"address"}]},{"type":"error","name":"ERC721InvalidReceiver","inputs":[{"name":"receiver","type":"address","internalType":"address"}]},{"type":"error","name":"ERC721InvalidSender","inputs":[{"name":"sender","type":"address","internalType":"address"}]},{"type":"error","name":"ERC721NonexistentToken","inputs":[{"name":"tokenId","type":"uint256","internalType":"uint256"}]},{"type":"error","name":"ERC721OutOfBoundsIndex","inputs":[{"name":"owner","type":"address","internalType":"address"},{"name":"index","type":"uint256","internalType":"uint256"}]},{"type":"error","name":"OwnableInvalidOwner","inputs":[{"name":"owner","type":"address","internalType":"address"}]},{"type":"error","name":"OwnableUnauthorizedAccount","inputs":[{"name":"account","type":"address","internalType":"address"}]}],"bytecode":{"object":"0x608060405234801561001057600080fd5b5060405161592e38038061592e83398101604081905261002f916101e1565b8184848181600061004083826102f0565b50600161004d82826102f0565b5050506001600160a01b0383169150610082905057604051631e4fbdf760e01b81526000600482015260240160405180910390fd5b61008b816100b5565b50600d80546001600160a01b0319166001600160a01b0392909216919091179055506103af915050565b600c80546001600160a01b038381166001600160a01b0319831681179093556040519116919082907f8be0079c531659141344cd1fd0a4f28419497f9722a3daafe3b4186f6b6457e090600090a35050565b634e487b7160e01b600052604160045260246000fd5b600082601f83011261012e57600080fd5b81516001600160401b038082111561014857610148610107565b604051601f8301601f19908116603f0116810190828211818310171561017057610170610107565b816040528381526020925086602085880101111561018d57600080fd5b600091505b838210156101af5785820183015181830184015290820190610192565b6000602085830101528094505050505092915050565b80516001600160a01b03811681146101dc57600080fd5b919050565b600080600080608085870312156101f757600080fd5b84516001600160401b038082111561020e57600080fd5b61021a8883890161011d565b9550602087015191508082111561023057600080fd5b5061023d8782880161011d565b93505061024c604086016101c5565b915061025a606086016101c5565b905092959194509250565b600181811c9082168061027957607f821691505b60208210810361029957634e487b7160e01b600052602260045260246000fd5b50919050565b601f8211156102eb576000816000526020600020601f850160051c810160208610156102c85750805b601f850160051c820191505b818110156102e7578281556001016102d4565b5050505b505050565b81516001600160401b0381111561030957610309610107565b61031d816103178454610265565b8461029f565b602080601f831160018114610352576000841561033a5750858301515b600019600386901b1c1916600185901b1785556102e7565b600085815260208120601f198616915b8281101561038157888601518255948401946001909101908401610362565b508582101561039f5787850151600019600388901b60f8161c191681555b5050505050600190811b01905550565b615570806103be6000396000f3fe608060405234801561001057600080fd5b50600436106103785760003560e01c80637813fba3116101d3578063cf27cfc411610104578063e5c8e431116100a2578063eee403541161007c578063eee40354146107f4578063f0ba844014610807578063f2fde38b1461081a578063f6aacfb11461082d57600080fd5b8063e5c8e431146107bb578063e985e9c5146107ce578063edee3965146107e157600080fd5b8063d9e5896e116100de578063d9e5896e1461075f578063ddaec20514610782578063dfe28fbf14610795578063e0720481146107a857600080fd5b8063cf27cfc4146106fc578063d1af032c1461070f578063d6034c261461074c57600080fd5b8063a22cb46511610171578063b5916ab21161014b578063b5916ab21461069a578063b88d4fde146106ad578063c6f88d4a146106c0578063c87b56dd146106e957600080fd5b8063a22cb46514610650578063ac3e2c6f14610663578063b25645691461067657600080fd5b80638da5cb5b116101ad5780638da5cb5b146106115780638fc76be71461062257806395d89b411461063557806399d112fa1461063d57600080fd5b80637813fba3146105d85780637827136b146105eb57806386c048c5146105fe57600080fd5b806330b94770116102ad5780634f6ccce71161024b5780636b8ff574116102255780636b8ff5741461059757806370a08231146105aa578063715018a6146105bd57806373681ba1146105c557600080fd5b80634f6ccce71461055e5780636198e339146105715780636352211e1461058457600080fd5b806342842e0e1161028757806342842e0e1461051257806342966c68146105255780634541eda3146105385780634812e0291461054b57600080fd5b806330b94770146104d957806332f4da4a146104ec57806333699624146104ff57600080fd5b80630c1906ec1161031a5780631e857a15116102f45780631e857a151461047d57806323b872dd146104a05780632e5466e6146104b35780632f745c59146104c657600080fd5b80630c1906ec14610445578063162094c41461045857806318160ddd1461046b57600080fd5b8063095ea7b311610356578063095ea7b3146103e557806309b6e71d146103fa5780630a41529e1461040d5780630ae5fa411461042057600080fd5b806301ffc9a71461037d57806306fdde03146103a5578063081812fc146103ba575b600080fd5b61039061038b366004614707565b61085f565b60405190151581526020015b60405180910390f35b6103ad6108a5565b60405161039c9190614774565b6103cd6103c8366004614787565b610937565b6040516001600160a01b03909116815260200161039c565b6103f86103f33660046147b5565b610960565b005b6103f8610408366004614787565b61096f565b6103f861041b366004614787565b610c72565b61043361042e366004614787565b610d1c565b60405160ff909116815260200161039c565b6103f86104533660046147e1565b610d42565b6103f8610466366004614856565b610d91565b6008545b60405190815260200161039c565b61046f61048b366004614787565b6000908152600f602052604090206006015490565b6103f86104ae3660046148a2565b610e07565b6103f86104c13660046148f1565b610ec8565b61046f6104d43660046147b5565b610f2b565b61046f6104e7366004614787565b610f90565b6103906104fa366004614933565b611023565b6103f861050d366004614963565b611152565b6103f86105203660046148a2565b6111a0565b6103f8610533366004614787565b6111bb565b610390610546366004614787565b611506565b61046f610559366004614988565b61162d565b61046f61056c366004614787565b611663565b6103f861057f366004614787565b6116bc565b6103cd610592366004614787565b611712565b6103ad6105a5366004614787565b61171d565b61046f6105b83660046149aa565b611920565b6103f8611968565b6103f86105d3366004614933565b61197c565b6103f86105e63660046149c7565b611a13565b6103906105f9366004614787565b611c78565b61039061060c366004614787565b611c9c565b600c546001600160a01b03166103cd565b610390610630366004614a18565b611dba565b6103ad611dfe565b61039061064b366004614933565b611e0d565b6103f861065e366004614a3f565b611e56565b610390610671366004614933565b611e61565b610390610684366004614787565b6000908152600b602052604090205460ff161590565b61046f6106a8366004614856565b611e7e565b6103f86106bb366004614a83565b61228b565b6103906106ce366004614787565b6000908152600b6020526040902054610100900460ff161590565b6103ad6106f7366004614787565b612347565b6103f861070a366004614a18565b612450565b61039061071d366004614933565b6000828152600b602090815260408083206001600160a01b038516845260030190915290205460ff1692915050565b6103f861075a366004614a18565b61252e565b61046f61076d366004614787565b6000908152600f602052604090206002015490565b610390610790366004614787565b612562565b6103f86107a3366004614963565b612585565b61046f6107b6366004614b63565b6125ce565b6103f86107c9366004614a18565b6129de565b6103906107dc366004614bca565b612c58565b6103f86107ef366004614a18565b612c86565b6103f8610802366004614a18565b612eda565b6103cd610815366004614787565b6132b6565b6103f86108283660046149aa565b613308565b61084061083b366004614787565b613346565b604080516001600160a01b03909316835260208301919091520161039c565b60006001600160e01b03198216631e6f6d8b60e31b148061089057506001600160e01b0319821663012a552760e41b145b8061089f575061089f8261336d565b92915050565b6060600080546108b490614bf8565b80601f01602080910402602001604051908101604052809291908181526020018280546108e090614bf8565b801561092d5780601f106109025761010080835404028352916020019161092d565b820191906000526020600020905b81548152906001019060200180831161091057829003601f168201915b5050505050905090565b6000610942826133ad565b506000828152600460205260409020546001600160a01b031661089f565b61096b8282336133e5565b5050565b6000818152600f6020526040902060020154819042106109aa5760405162461bcd60e51b81526004016109a190614c2c565b60405180910390fd5b60005b6000838152600f6020526040902060060154811015610c6d576000838152600f60205260409020600601548110610c6d576000838152600f602081905260408220600601805483919085908110610a0657610a06614c6f565b9060005260206000200154815260200190815260200160002060405180610140016040529081600082018054610a3b90614bf8565b80601f0160208091040260200160405190810160405280929190818152602001828054610a6790614bf8565b8015610ab45780601f10610a8957610100808354040283529160200191610ab4565b820191906000526020600020905b815481529060010190602001808311610a9757829003601f168201915b5050509183525050600182015460209091019060ff166002811115610adb57610adb614c85565b6002811115610aec57610aec614c85565b8152600282015460208083019190915260038301546001600160a01b03908116604080850191909152600485015460608501526005850154909116608084015260068401805482518185028101850190935280835260a0909401939192909190830182828015610b7b57602002820191906000526020600020905b815481526020019060010190808311610b67575b5050509183525050600782015460ff16151560208201526008820154604080830191909152600990920154606090910152810151909150421015610c64576000848152600f602052604090206006018054610bd890600190614cb1565b81548110610be857610be8614c6f565b9060005260206000200154600f60008681526020019081526020016000206006018381548110610c1a57610c1a614c6f565b9060005260206000200181905550600f6000858152602001908152602001600020600601805480610c4d57610c4d614cc4565b600190038181906000526020600020016000905590555b506001016109ad565b505050565b8033610c7d82611712565b6001600160a01b031614610ca35760405162461bcd60e51b81526004016109a190614cda565b6000828152600f6020526040902060020154610d135760405162461bcd60e51b815260206004820152602960248201527f4261627920576f6f6c62616c6c3a205375626e616d6520697320616c726561646044820152681e481c995b5bdd995960ba1b60648201526084016109a1565b61096b826133f2565b6000818152600f602052604081206001015460ff16600281111561089f5761089f614c85565b8233610d4d82611712565b6001600160a01b031614610d735760405162461bcd60e51b81526004016109a190614cda565b506000928352600f6020526040909220600881019190915560090155565b82610da5610d9e82613531565b338361354c565b610dc15760405162461bcd60e51b81526004016109a190614d2e565b610e018484848080601f0160208091040260200160405190810160405280939291908181526020018383808284376000920191909152506135af92505050565b50505050565b806000610e1382613346565b9150508015610e87576000828152600b60205260409020600601546001600160a01b0316336001600160a01b03161480610e6657506000828152600b60205260409020600601546001600160a01b031630145b610e825760405162461bcd60e51b81526004016109a190614d7b565b610eb6565b610e9a610e9383613531565b338461354c565b610eb65760405162461bcd60e51b81526004016109a190614d2e565b610ec18585856135ff565b5050505050565b82610ed5610d9e82613531565b610ef15760405162461bcd60e51b81526004016109a190614d2e565b506000928352600b602090815260408085206001600160a01b03949094168552600390930190529120805460ff1916911515919091179055565b6000610f3683611920565b8210610f675760405163295f44f760e21b81526001600160a01b0384166004820152602481018390526044016109a1565b506001600160a01b03919091166000908152600660209081526040808320938352929052205490565b60008160026000828152600f602052604090206001015460ff166002811115610fbb57610fbb614c85565b146110085760405162461bcd60e51b815260206004820152601a60248201527f6e616d654944206973206e6f74206f662061207375626e616d6500000000000060448201526064016109a1565b6000838152600f602052604090206004015491505b50919050565b6000805b6000848152600b6020526040902060010154811015611148576000848152600b6020526040812060010180548390811061106357611063614c6f565b60009182526020808320600290920290910154878352600b9091526040822060010180546001600160a01b03909216935090849081106110a5576110a5614c6f565b600091825260209091206001600290920201015460405163ac3e2c6f60e01b8152600481018290526001600160a01b0387811660248301529192509083169063ac3e2c6f90604401602060405180830381865afa15801561110a573d6000803e3d6000fd5b505050506040513d601f19601f8201168201806040525081019061112e9190614dfe565b61113e576000935050505061089f565b5050600101611027565b5060019392505050565b8161115f610d9e82613531565b61117b5760405162461bcd60e51b81526004016109a190614d2e565b506000918252600b6020526040909120805461ff001916911561010002919091179055565b610c6d8383836040518060200160405280600081525061228b565b806111c8610d9e82613531565b6111e45760405162461bcd60e51b81526004016109a190614d2e565b6111ed82611c78565b61125f5760405162461bcd60e51b815260206004820152603e60248201527f4c43543a2074686520746f6b656e206f72206f6e65206f662069747320436f6d60448201527f6d616e64657220546f6b656e7320617265206e6f74206275726e61626c65000060648201526084016109a1565b60005b6000838152600b6020526040902060040154811015611362576000838152600b6020526040812060040180548390811061129e5761129e614c6f565b60009182526020808320600290920290910154868352600b9091526040822060040180546001600160a01b03909216935090849081106112e0576112e0614c6f565b9060005260206000209060020201600101549050816001600160a01b03166342966c68826040518263ffffffff1660e01b815260040161132291815260200190565b600060405180830381600087803b15801561133c57600080fd5b505af1158015611350573d6000803e3d6000fd5b50506001909401935061126292505050565b5060005b6000838152600b602052604090206004015481101561140c576000838152600b602052604081206004018054839081106113a2576113a2614c6f565b60009182526020808320604080518082018252600290940290910180546001600160a01b0390811685526001918201548585019081528a8752600b855283872095519091168652600590940183528185209351855292909152822091909155919091019050611366565b5060005b6000838152600b60205260409020600101548110156114b3576000838152600b6020526040812060010180548390811061144c5761144c614c6f565b60009182526020808320604080518082018252600294850290920180546001600160a01b0390811684526001918201548486019081528b8852600b865283882094519091168752929094018352808520915185529152822091909155919091019050611410565b506000828152600b60205260408120805461ffff19168155906114d960018301826146ab565b6114e76004830160006146ab565b506006810180546001600160a01b031916905560006007909101555050565b6000805b6000838152600b6020526040902060010154811015611624576000838152600b6020526040812060010180548390811061154657611546614c6f565b60009182526020808320600290920290910154868352600b9091526040822060010180546001600160a01b039092169350908490811061158857611588614c6f565b9060005260206000209060020201600101549050816001600160a01b031663ddaec205826040518263ffffffff1660e01b81526004016115ca91815260200190565b602060405180830381865afa1580156115e7573d6000803e3d6000fd5b505050506040513d601f19601f8201168201806040525081019061160b9190614dfe565b61161a57506000949350505050565b505060010161150a565b50600192915050565b6000828152600f6020526040812060060180548390811061165057611650614c6f565b9060005260206000200154905092915050565b600061166e60085490565b82106116975760405163295f44f760e21b815260006004820152602481018390526044016109a1565b600882815481106116aa576116aa614c6f565b90600052602060002001549050919050565b6000818152600b60205260409020600601546001600160a01b0316338114806116ed57506001600160a01b03811630145b6117095760405162461bcd60e51b81526004016109a190614e1b565b61096b826136af565b600061089f826133ad565b6000818152600f6020526040902060020154606090829042106117525760405162461bcd60e51b81526004016109a190614c2c565b606060016000858152600f602052604090206001015460ff16600281111561177c5761177c614c85565b0361181f576000848152600f60205260409020805461179a90614bf8565b80601f01602080910402602001604051908101604052809291908181526020018280546117c690614bf8565b80156118135780601f106117e857610100808354040283529160200191611813565b820191906000526020600020905b8154815290600101906020018083116117f657829003601f168201915b50505050509050611919565b6000848152600f60205260409020805461183890614bf8565b80601f016020809104026020016040519081016040528092919081815260200182805461186490614bf8565b80156118b15780601f10611886576101008083540402835291602001916118b1565b820191906000526020600020905b81548152906001019060200180831161189457829003601f168201915b5050506000878152600f602052604090206004015492935050505b6000818152600f602090815260409182902091516118ee928592909101614e78565b60408051601f198184030181529181526000928352600f60205290912060040154909150806118cc57505b9392505050565b60006001600160a01b03821661194c576040516322718ad960e21b8152600060048201526024016109a1565b506001600160a01b031660009081526003602052604090205490565b611970613712565b61197a600061373f565b565b813361198782611712565b6001600160a01b0316146119ad5760405162461bcd60e51b81526004016109a190614cda565b6000838152600f6020526040902060070154839060ff166119e05760405162461bcd60e51b81526004016109a190614f16565b50506000918252600f602052604090912060050180546001600160a01b0319166001600160a01b03909216919091179055565b6000828152600f602052604090206002015482904210611a455760405162461bcd60e51b81526004016109a190614c2c565b60408051600680825260e082019092526000916020820160c0803683375050506000858152600f6020526040812060080154825192935091839190611a8c57611a8c614c6f565b602002602001018181525050600f60008581526020019081526020016000206009015481600181518110611ac257611ac2614c6f565b602002602001018181525050600e5481600281518110611ae457611ae4614c6f565b6020026020010181815250508260001b81600381518110611b0757611b07614c6f565b6020026020010181815250506060611b1e85611712565b6001600160a01b0316901b60001b81600481518110611b3f57611b3f614c6f565b6020026020010181815250508360001b81600581518110611b6257611b62614c6f565b6020908102919091010152600d54604051633a94343960e21b81526000916001600160a01b03169063ea50d0e490611ba2908a908a908790600401614f85565b602060405180830381865afa158015611bbf573d6000803e3d6000fd5b505050506040513d601f19601f82011682018060405250810190611be39190614dfe565b905080611c325760405162461bcd60e51b815260206004820152601b60248201527f4261627920576f6f6c62616c6c3a2070726f6f66206661696c6573000000000060448201526064016109a1565b6000858152600f6020526040902060078101805460ff1916600117905560020154841015611c6f576000858152600f602052604090206002018490555b50505050505050565b6000818152600b6020526040812054610100900460ff1615801561089f575061089f825b6000805b6000838152600b6020526040902060010154811015611624576000838152600b60205260408120600101805483908110611cdc57611cdc614c6f565b60009182526020808320600290920290910154868352600b9091526040822060010180546001600160a01b0390921693509084908110611d1e57611d1e614c6f565b9060005260206000209060020201600101549050816001600160a01b0316637827136b826040518263ffffffff1660e01b8152600401611d6091815260200190565b602060405180830381865afa158015611d7d573d6000803e3d6000fd5b505050506040513d601f19601f82011682018060405250810190611da19190614dfe565b611db057506000949350505050565b5050600101611ca0565b6000838152600b602090815260408083206001600160a01b03861684526002018252808320848452909152812054611df3576000611df6565b60015b949350505050565b6060600180546108b490614bf8565b6000828152600b602052604081205460ff16158061191957506000838152600b602090815260408083206001600160a01b038616845260030190915290205460ff169392505050565b61096b338383613791565b6000611e6d8383611e0d565b801561191957506119198383611023565b6000828273__$6e9f22e923764f2a7fb3fc86851ac048b1$__635f8b54e883836040518363ffffffff1660e01b8152600401611ebb929190614fde565b602060405180830381865af4158015611ed8573d6000803e3d6000fd5b505050506040513d601f19601f82011682018060405250810190611efc9190614dfe565b15611f195760405162461bcd60e51b81526004016109a190615005565b604051630bf16a9d60e31b815273__$6e9f22e923764f2a7fb3fc86851ac048b1$__90635f8b54e890611f529085908590600401615062565b602060405180830381865af4158015611f6f573d6000803e3d6000fd5b505050506040513d601f19601f82011682018060405250810190611f939190614dfe565b15611fb05760405162461bcd60e51b81526004016109a190615089565b604051630bf16a9d60e31b815273__$6e9f22e923764f2a7fb3fc86851ac048b1$__90635f8b54e890611fe990859085906004016150e6565b602060405180830381865af4158015612006573d6000803e3d6000fd5b505050506040513d601f19601f8201168201806040525081019061202a9190614dfe565b156120475760405162461bcd60e51b81526004016109a19061510d565b853361205282611712565b6001600160a01b0316146120785760405162461bcd60e51b81526004016109a190614cda565b6000878152600f6020526040902060070154879060ff166120ab5760405162461bcd60e51b81526004016109a190614f16565b6000600288886120ba8c613830565b6040516020016120cc9392919061516a565b60408051601f19818403018152908290526120e69161519a565b602060405180830381855afa158015612103573d6000803e3d6000fd5b5050506040513d601f19601f8201168201806040525081019061212691906151b6565b9050600080828152600f602052604090206001015460ff16600281111561214f5761214f614c85565b146121aa5760405162461bcd60e51b815260206004820152602560248201527f4261627920576f6f6c62616c6c3a207375626e616d652065786973747320616c604482015264726561647960d81b60648201526084016109a1565b6121bc6121b68a611712565b826138c3565b6000818152600f602052604090206121d5888a83615217565b506000818152600f602052604080822060018101805460ff191660029081179091558c8452918320820154928490529081019190915560040189905561221c81308b613928565b6000898152600f6020908152604080832060060180546001810182559084529190922001829055517fa6ae7a104192b83527461cc0d60f2951ded61ab68029438b0006eedf54436e9490612277908a908a908d9086906152d7565b60405180910390a198975050505050505050565b81600061229782613346565b915050801561230b576000828152600b60205260409020600601546001600160a01b0316336001600160a01b031614806122ea57506000828152600b60205260409020600601546001600160a01b031630145b6123065760405162461bcd60e51b81526004016109a190614d7b565b612333565b612317610e9383613531565b6123335760405162461bcd60e51b81526004016109a190614d2e565b61233f86868686613b75565b505050505050565b6060612352826133ad565b506000828152600a60205260408120805461236c90614bf8565b80601f016020809104026020016040519081016040528092919081815260200182805461239890614bf8565b80156123e55780601f106123ba576101008083540402835291602001916123e5565b820191906000526020600020905b8154815290600101906020018083116123c857829003601f168201915b50505050509050600061240360408051602081019091526000815290565b90508051600003612415575092915050565b81511561244757808260405160200161242f9291906152fe565b60405160208183030381529060405292505050919050565b611df684613b8c565b8261245d610d9e82613531565b6124795760405162461bcd60e51b81526004016109a190614d2e565b838383816001600160a01b0316636352211e826040518263ffffffff1660e01b81526004016124aa91815260200190565b602060405180830381865afa1580156124c7573d6000803e3d6000fd5b505050506040513d601f19601f820116820180604052508101906124eb919061532d565b6001600160a01b03166124fd84611712565b6001600160a01b0316146125235760405162461bcd60e51b81526004016109a19061534a565b611c6f878787613928565b8261253b610d9e82613531565b6125575760405162461bcd60e51b81526004016109a190614d2e565b610e01848484613c00565b6000818152600b602052604081205460ff1615801561089f575061089f82611506565b81612592610d9e82613531565b6125ae5760405162461bcd60e51b81526004016109a190614d2e565b506000918252600b6020526040909120805460ff19169115919091179055565b6000858573__$6e9f22e923764f2a7fb3fc86851ac048b1$__635f8b54e883836040518363ffffffff1660e01b815260040161260b929190614fde565b602060405180830381865af4158015612628573d6000803e3d6000fd5b505050506040513d601f19601f8201168201806040525081019061264c9190614dfe565b156126695760405162461bcd60e51b81526004016109a190615005565b604051630bf16a9d60e31b815273__$6e9f22e923764f2a7fb3fc86851ac048b1$__90635f8b54e8906126a29085908590600401615062565b602060405180830381865af41580156126bf573d6000803e3d6000fd5b505050506040513d601f19601f820116820180604052508101906126e39190614dfe565b156127005760405162461bcd60e51b81526004016109a190615089565b604051630bf16a9d60e31b815273__$6e9f22e923764f2a7fb3fc86851ac048b1$__90635f8b54e89061273990859085906004016150e6565b602060405180830381865af4158015612756573d6000803e3d6000fd5b505050506040513d601f19601f8201168201806040525081019061277a9190614dfe565b156127975760405162461bcd60e51b81526004016109a19061510d565b61279f613712565b6000600289896040516020016127b692919061539d565b60408051601f19818403018152908290526127d09161519a565b602060405180830381855afa1580156127ed573d6000803e3d6000fd5b5050506040513d601f19601f8201168201806040525081019061281091906151b6565b6000818152600f602052604090206002015490915042116128855760405162461bcd60e51b815260206004820152602960248201527f4261627920576f6f6c62616c6c3a206e616d6520697320616c726561647920726044820152681959da5cdd195c995960ba1b60648201526084016109a1565b61288e87611920565b1561291c5760405162461bcd60e51b815260206004820152605260248201527f4261627920576f6f6c62616c6c3a20746865206164647265737320616c72656160448201527f6479206861732061206e616d652c206f6e6c79206f6e65206e616d6520706572606482015271081859191c995cdcc81a5cc8185b1b1dd95960721b608482015260a4016109a1565b61292687826138c3565b6000818152600f6020526040902061293f898b83615217565b506000818152600f6020526040902060088101879055600981018690556001808201805460ff1916909117905560030180546001600160a01b0319166001600160a01b0389161790556129954262278d006153b3565b6000828152600f60205260409081902060020191909155517fbc28b99a41e9cf3ab6cf2eeac86871a5ad2a0201a24e35e3398ff39c2f03ba8990612277908b908b908b906153c6565b6000838152600b602090815260408083206001600160a01b03861684526005018252808320848452909152902054612a915760405162461bcd60e51b815260206004820152604a60248201527f4c6f636b656420546f6b656e3a204c6f636b6564494420696e20636f6e74726160448201527f6374204c6f636b6564436f6e7472616374206973206e6f74206c6f636b6564206064820152691d1bc81d1bdad95b925160b21b608482015260a4016109a1565b6000838152600b602090815260408083206001600160a01b03861684526005018252808320848452909152812054612acb90600190614cb1565b6000858152600b602081815260408084206001600160a01b038916855260058101835281852088865283529084208490558884529190526004015491925090612b1690600190614cb1565b6000868152600b6020526040902060040180549192509082908110612b3d57612b3d614c6f565b9060005260206000209060020201600b60008781526020019081526020016000206004018381548110612b7257612b72614c6f565b60009182526020808320845460029093020180546001600160a01b0319166001600160a01b039093169290921782556001938401549390910192909255868152600b90915260409020600401805480612bcd57612bcd614cc4565b6000828152602081206002600019939093019283020180546001600160a01b0319168155600101559055604051636198e33960e01b8152600481018490526001600160a01b03851690636198e33990602401600060405180830381600087803b158015612c3957600080fd5b505af1158015612c4d573d6000803e3d6000fd5b505050505050505050565b6001600160a01b03918216600090815260056020908152604080832093909416825291909152205460ff1690565b828282816001600160a01b0316636352211e826040518263ffffffff1660e01b8152600401612cb791815260200190565b602060405180830381865afa158015612cd4573d6000803e3d6000fd5b505050506040513d601f19601f82011682018060405250810190612cf8919061532d565b6001600160a01b0316612d0a84611712565b6001600160a01b031614612d305760405162461bcd60e51b81526004016109a19061534a565b846001600160a01b038116331480612d5057506001600160a01b03811630145b612d6c5760405162461bcd60e51b81526004016109a190614e1b565b6000878152600b602090815260408083206001600160a01b038a168452600501825280832088845290915290205415612e265760405162461bcd60e51b815260206004820152605060248201527f4c6f636b656420546f6b656e3a20746f6b656e494420697320616c726561647960448201527f206c6f636b656420746f204c6f636b656449442066726f6d20636f6e7472616360648201526f1d08131bd8dad95910dbdb9d1c9858dd60821b608482015260a4016109a1565b6040805180820182526001600160a01b0388168152602080820188905260008a8152600b9091529190912060040154612e609060016153b3565b6000988952600b60208181526040808c206001600160a01b039b8c168d52600581018352818d209a8d529982528b209290925581526004909601805460018082018355918a529887902082516002909a020180546001600160a01b0319169990981698909817875590940151949095019390935550505050565b6000838152600b602090815260408083206001600160a01b038616845260020182528083208484529091529020548290612f8a5760405162461bcd60e51b815260206004820152604560248201527f4c43543a20746f6b656e4944206973206e6f7420646570656e64656e74206f6e60448201527f20435469642066726f6d20636f6e7472616374204354436f6e74726163744164606482015264647265737360d81b608482015260a4016109a1565b612f9d612f9685613531565b338661354c565b801561300d575060405163b256456960e01b8152600481018390526001600160a01b0382169063b256456990602401602060405180830381865afa158015612fe9573d6000803e3d6000fd5b505050506040513d601f19601f8201168201806040525081019061300d9190614dfe565b801561307d575060405163637c46a560e11b8152600481018390526001600160a01b0382169063c6f88d4a90602401602060405180830381865afa158015613059573d6000803e3d6000fd5b505050506040513d601f19601f8201168201806040525081019061307d9190614dfe565b806130905750336001600160a01b038416145b6130f65760405162461bcd60e51b815260206004820152603160248201527f4c43543a2073656e646572206973206e6f74207065726d697474656420746f2060448201527072656d6f766520646570656e64656e637960781b60648201526084016109a1565b6000848152600b602090815260408083206001600160a01b0387168452600201825280832085845290915281205461313090600190614cb1565b6000868152600b602081815260408084206001600160a01b038a1685526002810183528185208986528352908420849055898452919052600190810154929350909161317c9190614cb1565b6000878152600b60205260409020600101805491925090829081106131a3576131a3614c6f565b9060005260206000209060020201600b600088815260200190815260200160002060010183815481106131d8576131d8614c6f565b60009182526020808320845460029093020180546001600160a01b0319166001600160a01b0390931692909217825560019384015491840191909155888252600b9052604090200180548061322f5761322f614cc4565b60008281526020812060026000199093019283020180546001600160a01b03191681556001015590556040517f690094bc4403e5fdf0ec1828b799e4015d5b39b33cfeb65df06a242febf4daf4906132a6908890889088909283526001600160a01b03919091166020830152604082015260600190565b60405180910390a1505050505050565b6000818152600f6020526040812060020154829042106132e85760405162461bcd60e51b81526004016109a190614c2c565b50506000908152600f60205260409020600501546001600160a01b031690565b613310613712565b6001600160a01b03811661333a57604051631e4fbdf760e01b8152600060048201526024016109a1565b6133438161373f565b50565b6000908152600b6020526040902060068101546007909101546001600160a01b0390911691565b60006001600160e01b0319821663780e9d6360e01b148061339e57506001600160e01b03198216632483248360e11b145b8061089f575061089f82613d92565b6000806133b983613531565b90506001600160a01b03811661089f57604051637e27328960e01b8152600481018490526024016109a1565b610c6d8383836001613de2565b6000818152600f6020526040812060040154905b6000828152600f6020526040902060060154811015613508576000828152600f6020526040902060060180548491908390811061344557613445614c6f565b906000526020600020015403613500576000828152600f60205260409020600601805461347490600190614cb1565b8154811061348457613484614c6f565b9060005260206000200154600f600084815260200190815260200160002060060182815481106134b6576134b6614c6f565b9060005260206000200181905550600f60008381526020019081526020016000206006018054806134e9576134e9614cc4565b600190038181906000526020600020016000905590555b600101613406565b50506000908152600f602052604081206002810182905560018101805460ff1916905560040155565b6000908152600260205260409020546001600160a01b031690565b60006001600160a01b03831615801590611df65750826001600160a01b0316846001600160a01b0316148061358657506135868484612c58565b80611df65750506000908152600460205260409020546001600160a01b03908116911614919050565b6000828152600a602052604090206135c782826153f2565b506040518281527ff8e1a15aba9398e019f0b49df1a4fde98ee17ae345cb5f6b5e2c27f5033e8ce79060200160405180910390a15050565b6001600160a01b03821661362957604051633250574960e11b8152600060048201526024016109a1565b600061363783836000613ee8565b90506001600160a01b03811661366357604051637e27328960e01b8152600481018390526024016109a1565b836001600160a01b0316816001600160a01b031614610e01576040516364283d7b60e01b81526001600160a01b03808616600483015260248201849052821660448201526064016109a1565b6000818152600b60205260408082206006810180546001600160a01b031916905560070191909155517ff27b6ce5b2f5e68ddb2fd95a8a909d4ecf1daaac270935fff052feacb24f1842906137079083815260200190565b60405180910390a150565b600c546001600160a01b0316331461197a5760405163118cdaa760e01b81523360048201526024016109a1565b600c80546001600160a01b038381166001600160a01b0319831681179093556040519116919082907f8be0079c531659141344cd1fd0a4f28419497f9722a3daafe3b4186f6b6457e090600090a35050565b6001600160a01b0382166137c357604051630b61174360e31b81526001600160a01b03831660048201526024016109a1565b6001600160a01b03838116600081815260056020908152604080832094871680845294825291829020805460ff191686151590811790915591519182527f17307eab39ab6107e8899845ad3d59bd9653f200f220920489ca2b5937696c31910160405180910390a3505050565b6060600061383d836140fc565b600101905060008167ffffffffffffffff81111561385d5761385d614a6d565b6040519080825280601f01601f191660200182016040528015613887576020820181803683370190505b5090508181016020015b600019016f181899199a1a9b1b9c1cb0b131b232b360811b600a86061a8153600a850494508461389157509392505050565b6001600160a01b0382166138ed57604051633250574960e11b8152600060048201526024016109a1565b60006138fb83836000613ee8565b90506001600160a01b03811615610c6d576040516339e3563760e11b8152600060048201526024016109a1565b60008061393485613346565b91509150806000146139985760405162461bcd60e51b815260206004820152602760248201527f4c6f636b656420546f6b656e3a20746f6b656e494420697320616c7265616479604482015266081b1bd8dad95960ca1b60648201526084016109a1565b60405163f6aacfb160e01b8152600481018490526001600160a01b0385169063f6aacfb1906024016040805180830381865afa1580156139dc573d6000803e3d6000fd5b505050506040513d601f19601f82011682018060405250810190613a0091906154b2565b90925090506001600160a01b03821630141580613a1d5750848114155b613a91576040805162461bcd60e51b81526020600482015260248101919091527f4c6f636b656420546f6b656e3a20446561646c6f636b2064657465636574656460448201527f21204c6f636b696e674944206973206c6f636b656420746f20746f6b656e494460648201526084016109a1565b6000858152600b6020526040908190206006810180546001600160a01b0319166001600160a01b0388169081179091556007909101859055905163edee396560e01b8152600481018590523060248201526044810187905263edee396590606401600060405180830381600087803b158015613b0c57600080fd5b505af1158015613b20573d6000803e3d6000fd5b5050604080518881526001600160a01b03881660208201529081018690527f697d86e6398a689ac7b8bea2b6f3f65704d1b113d2d31863c6d26501e7265cff9250606001905060405180910390a15050505050565b613b808484846135ff565b610e01848484846141d4565b6060613b97826133ad565b506000613baf60408051602081019091526000815290565b90506000815111613bcf5760405180602001604052806000815250611919565b80613bd984613830565b604051602001613bea9291906152fe565b6040516020818303038152906040529392505050565b6000838152600b602090815260408083206001600160a01b0386168452600201825280832084845290915290205415613ca15760405162461bcd60e51b815260206004820152603b60248201527f4c43543a20746f6b656e494420616c726561647920646570656e6473206f6e2060448201527f435469642066726f6d204354436f6e747261637441646472657373000000000060648201526084016109a1565b6040805180820182526001600160a01b038416815260208082018490526000868152600b90915291909120600190810154613cdb916153b3565b6000858152600b602081815260408084206001600160a01b03898116808752600280840186528488208b89528652848820989098559484526001918201805480840182559087529584902088519690970290960180546001600160a01b0319169590961694909417855585820151949093019390935581518781529283015281018390527f142495d58c8fd8701db1b1d5a807743699bc5f87d97a4b64006eaeb9e9ac5e899060600160405180910390a150505050565b60006001600160e01b031982166380ac58cd60e01b1480613dc357506001600160e01b03198216635b5e139f60e01b145b8061089f57506301ffc9a760e01b6001600160e01b031983161461089f565b8080613df657506001600160a01b03821615155b15613eb8576000613e06846133ad565b90506001600160a01b03831615801590613e325750826001600160a01b0316816001600160a01b031614155b8015613e455750613e438184612c58565b155b15613e6e5760405163a9fbf51f60e01b81526001600160a01b03841660048201526024016109a1565b8115613eb65783856001600160a01b0316826001600160a01b03167f8c5be1e5ebec7d5bd14f71427d1e84f3dd0314c0f7b2291e5b200ac8c7c3b92560405160405180910390a45b505b5050600090815260046020526040902080546001600160a01b0319166001600160a01b0392909216919091179055565b600080613ef68585856142f6565b9050613f028486611e0d565b613f665760405162461bcd60e51b815260206004820152602f60248201527f4c43543a2074686520746f6b656e207374617475732069732073657420746f2060448201526e6e6f6e7472616e7366657261626c6560881b60648201526084016109a1565b613f708486611023565b613fe25760405162461bcd60e51b815260206004820152603c60248201527f4c43543a2074686520746f6b656e20646570656e6473206f6e206174206c656160448201527f7374206f6e65206e6f6e7472616e7366657261626c6520746f6b656e0000000060648201526084016109a1565b60005b6000858152600b60205260409020600401548110156140f3576000858152600b6020526040812060040180548390811061402157614021614c6f565b60009182526020808320600290920290910154888352600b9091526040822060040180546001600160a01b039092169350908490811061406357614063614c6f565b60009182526020909120600160029092020101546040516323b872dd60e01b81526001600160a01b0386811660048301528a8116602483015260448201839052919250908316906323b872dd90606401600060405180830381600087803b1580156140cd57600080fd5b505af11580156140e1573d6000803e3d6000fd5b505060019094019350613fe592505050565b50949350505050565b60008072184f03e93ff9f4daa797ed6e38ed64bf6a1f0160401b831061413b5772184f03e93ff9f4daa797ed6e38ed64bf6a1f0160401b830492506040015b6d04ee2d6d415b85acef81000000008310614167576d04ee2d6d415b85acef8100000000830492506020015b662386f26fc10000831061418557662386f26fc10000830492506010015b6305f5e100831061419d576305f5e100830492506008015b61271083106141b157612710830492506004015b606483106141c3576064830492506002015b600a831061089f5760010192915050565b6001600160a01b0383163b15610e0157604051630a85bd0160e11b81526001600160a01b0384169063150b7a02906142169033908890879087906004016154e0565b6020604051808303816000875af1925050508015614251575060408051601f3d908101601f1916820190925261424e9181019061551d565b60015b6142ba573d80801561427f576040519150601f19603f3d011682016040523d82523d6000602084013e614284565b606091505b5080516000036142b257604051633250574960e11b81526001600160a01b03851660048201526024016109a1565b805181602001fd5b6001600160e01b03198116630a85bd0160e11b14610ec157604051633250574960e11b81526001600160a01b03851660048201526024016109a1565b6000806143048585856143c3565b90506001600160a01b0381166143615761435c84600880546000838152600960205260408120829055600182018355919091527ff3f7a9fe364faab93b216da50a3214154f22a0a2b415b23a84c8169e8b636ee30155565b614384565b846001600160a01b0316816001600160a01b0316146143845761438481856144b7565b6001600160a01b0385166143a05761439b84614548565b611df6565b846001600160a01b0316816001600160a01b031614611df657611df685856145f7565b6000806143cf84613531565b90506001600160a01b038316156143eb576143eb818486614647565b6001600160a01b0381161561442957614408600085600080613de2565b6001600160a01b038116600090815260036020526040902080546000190190555b6001600160a01b03851615614458576001600160a01b0385166000908152600360205260409020805460010190555b60008481526002602052604080822080546001600160a01b0319166001600160a01b0389811691821790925591518793918516917fddf252ad1be2c89b69c2b068fc378daa952ba7f163c4a11628f55a4df523b3ef91a4949350505050565b60006144c283611920565b600083815260076020526040902054909150808214614515576001600160a01b03841660009081526006602090815260408083208584528252808320548484528184208190558352600790915290208190555b5060009182526007602090815260408084208490556001600160a01b039094168352600681528383209183525290812055565b60085460009061455a90600190614cb1565b6000838152600960205260408120546008805493945090928490811061458257614582614c6f565b9060005260206000200154905080600883815481106145a3576145a3614c6f565b60009182526020808320909101929092558281526009909152604080822084905585825281205560088054806145db576145db614cc4565b6001900381819060005260206000200160009055905550505050565b6000600161460484611920565b61460e9190614cb1565b6001600160a01b039093166000908152600660209081526040808320868452825280832085905593825260079052919091209190915550565b61465283838361354c565b610c6d576001600160a01b03831661468057604051637e27328960e01b8152600481018290526024016109a1565b60405163177e802f60e01b81526001600160a01b0383166004820152602481018290526044016109a1565b508054600082556002029060005260206000209081019061334391905b808211156146ed5780546001600160a01b0319168155600060018201556002016146c8565b5090565b6001600160e01b03198116811461334357600080fd5b60006020828403121561471957600080fd5b8135611919816146f1565b60005b8381101561473f578181015183820152602001614727565b50506000910152565b60008151808452614760816020860160208601614724565b601f01601f19169290920160200192915050565b6020815260006119196020830184614748565b60006020828403121561479957600080fd5b5035919050565b6001600160a01b038116811461334357600080fd5b600080604083850312156147c857600080fd5b82356147d3816147a0565b946020939093013593505050565b6000806000606084860312156147f657600080fd5b505081359360208301359350604090920135919050565b60008083601f84011261481f57600080fd5b50813567ffffffffffffffff81111561483757600080fd5b60208301915083602082850101111561484f57600080fd5b9250929050565b60008060006040848603121561486b57600080fd5b83359250602084013567ffffffffffffffff81111561488957600080fd5b6148958682870161480d565b9497909650939450505050565b6000806000606084860312156148b757600080fd5b83356148c2816147a0565b925060208401356148d2816147a0565b929592945050506040919091013590565b801515811461334357600080fd5b60008060006060848603121561490657600080fd5b833592506020840135614918816147a0565b91506040840135614928816148e3565b809150509250925092565b6000806040838503121561494657600080fd5b823591506020830135614958816147a0565b809150509250929050565b6000806040838503121561497657600080fd5b823591506020830135614958816148e3565b6000806040838503121561499b57600080fd5b50508035926020909101359150565b6000602082840312156149bc57600080fd5b8135611919816147a0565b600080600080606085870312156149dd57600080fd5b843567ffffffffffffffff8111156149f457600080fd5b614a008782880161480d565b90989097506020870135966040013595509350505050565b600080600060608486031215614a2d57600080fd5b8335925060208401356148d2816147a0565b60008060408385031215614a5257600080fd5b8235614a5d816147a0565b91506020830135614958816148e3565b634e487b7160e01b600052604160045260246000fd5b60008060008060808587031215614a9957600080fd5b8435614aa4816147a0565b93506020850135614ab4816147a0565b925060408501359150606085013567ffffffffffffffff80821115614ad857600080fd5b818701915087601f830112614aec57600080fd5b813581811115614afe57614afe614a6d565b604051601f8201601f19908116603f01168101908382118183101715614b2657614b26614a6d565b816040528281528a6020848701011115614b3f57600080fd5b82602086016020830137600060208483010152809550505050505092959194509250565b600080600080600060808688031215614b7b57600080fd5b853567ffffffffffffffff811115614b9257600080fd5b614b9e8882890161480d565b9096509450506020860135614bb2816147a0565b94979396509394604081013594506060013592915050565b60008060408385031215614bdd57600080fd5b8235614be8816147a0565b91506020830135614958816147a0565b600181811c90821680614c0c57607f821691505b60208210810361101d57634e487b7160e01b600052602260045260246000fd5b60208082526023908201527f4261627920576f6f6c62616c6c3a206e616d65494420646f65736e27742065786040820152621a5cdd60ea1b606082015260800190565b634e487b7160e01b600052603260045260246000fd5b634e487b7160e01b600052602160045260246000fd5b634e487b7160e01b600052601160045260246000fd5b8181038181111561089f5761089f614c9b565b634e487b7160e01b600052603160045260246000fd5b60208082526034908201527f426162792020576f6f6c62616c6c3a2073656e646572206973206e6f74207468604082015273329037bbb732b91037b3103a3432903730b6b29760611b606082015260800190565b6020808252602d908201527f4552433732313a2063616c6c6572206973206e6f7420746f6b656e206f776e6560408201526c1c881bdc88185c1c1c9bdd9959609a1b606082015260800190565b60208082526058908201527f4c6f636b656420546f6b656e3a20746f6b656e4944206973206c6f636b65642060408201527f616e642063616c6c6572206973206e6f742074686520636f6e7472616374206860608201527f6f6c64696e6720746865206c6f636b696e6720746f6b656e0000000000000000608082015260a00190565b600060208284031215614e1057600080fd5b8151611919816148e3565b6020808252603f908201527f4c6f636b656420546f6b656e3a207472616e73616374696f6e206973206e6f7460408201527f2073656e742066726f6d2074686520636f727265637420636f6e747261637400606082015260800190565b600083516020614e8c828560208901614724565b8184019150601760f91b8252600160008654614ea781614bf8565b8184168015614ebd5760018114614ed657614f07565b60ff198316878601528115158202870185019350614f07565b89600052602060002060005b83811015614efd578154898201880152908601908701614ee2565b5050848288010193505b50919998505050505050505050565b60208082526026908201527f6e616d654944206973206e6f74206f662076657269666965642061732068756d604082015265185b881e595d60d21b606082015260800190565b81835281816020850137506000828201602090810191909152601f909101601f19169091010190565b604081526000614f99604083018587614f5c565b82810360208481019190915284518083528582019282019060005b81811015614fd057845183529383019391830191600101614fb4565b509098975050505050505050565b604081526000614ff2604083018486614f5c565b9050601760f91b60208301529392505050565b60208082526037908201527f4261627920576f6f6c62616c6c3a206e616d652063616e27742068617665202760408201527f2e2720636861726163746572732077697468696e20696e000000000000000000606082015260800190565b604081526000615076604083018486614f5c565b9050602360f81b60208301529392505050565b60208082526037908201527f4261627920576f6f6c62616c6c3a206e616d652063616e27742068617665202760408201527f232720636861726163746572732077697468696e20696e000000000000000000606082015260800190565b6040815260006150fa604083018486614f5c565b9050601d60f91b60208301529392505050565b60208082526037908201527f4261627920576f6f6c62616c6c3a206e616d652063616e27742068617665202760408201527f3a2720636861726163746572732077697468696e20696e000000000000000000606082015260800190565b828482376000838201601760f91b8152835161518d816001840160208801614724565b0160010195945050505050565b600082516151ac818460208701614724565b9190910192915050565b6000602082840312156151c857600080fd5b5051919050565b601f821115610c6d576000816000526020600020601f850160051c810160208610156151f85750805b601f850160051c820191505b8181101561233f57828155600101615204565b67ffffffffffffffff83111561522f5761522f614a6d565b6152438361523d8354614bf8565b836151cf565b6000601f841160018114615277576000851561525f5750838201355b600019600387901b1c1916600186901b178355610ec1565b600083815260209020601f19861690835b828110156152a85786850135825560209485019460019092019101615288565b50868210156152c55760001960f88860031b161c19848701351681555b505060018560011b0183555050505050565b6060815260006152eb606083018688614f5c565b6020830194909452506040015292915050565b60008351615310818460208801614724565b835190830190615324818360208801614724565b01949350505050565b60006020828403121561533f57600080fd5b8151611919816147a0565b60208082526033908201527f4c6f636b656420546f6b656e3a2074686520746f6b656e7320646f206e6f74206040820152723430bb32903a34329039b0b6b29037bbb732b960691b606082015260800190565b81838237602360f81b9101908152600101919050565b8082018082111561089f5761089f614c9b565b6040815260006153da604083018587614f5c565b905060018060a01b0383166020830152949350505050565b815167ffffffffffffffff81111561540c5761540c614a6d565b6154208161541a8454614bf8565b846151cf565b602080601f831160018114615455576000841561543d5750858301515b600019600386901b1c1916600185901b17855561233f565b600085815260208120601f198616915b8281101561548457888601518255948401946001909101908401615465565b50858210156154a25787850151600019600388901b60f8161c191681555b5050505050600190811b01905550565b600080604083850312156154c557600080fd5b82516154d0816147a0565b6020939093015192949293505050565b6001600160a01b038581168252841660208201526040810183905260806060820181905260009061551390830184614748565b9695505050505050565b60006020828403121561552f57600080fd5b8151611919816146f156fea2646970667358221220e62ca36adbc1d2d5bd66bab79988a24ba0f2725a51382d9307e4fa044becb4f964736f6c63430008190033","linkReferences":{"src/StringUtils.sol":{"StringUtils":[{"start":8770,"length":20},{"start":8934,"length":20},{"start":9085,"length":20},{"start":10642,"length":20},{"start":10806,"length":20},{"start":10957,"length":20}]}}},"methodIdentifiers":{"addLockedToken(uint256,address,uint256)":"edee3965","approve(address,uint256)":"095ea7b3","balanceOf(address)":"70a08231","burn(uint256)":"42966c68","clearExpiredSubnames(uint256)":"09b6e71d","data(uint256)":"f0ba8440","getApproved(uint256)":"081812fc","getExpirationTimestamp(uint256)":"d9e5896e","getName(uint256)":"6b8ff574","getNameType(uint256)":"0ae5fa41","getParentID(uint256)":"30b94770","isAddressWhitelisted(uint256,address)":"d1af032c","isApprovedForAll(address,address)":"e985e9c5","isBurnable(uint256)":"c6f88d4a","isDependent(uint256,address,uint256)":"8fc76be7","isDependentBurnable(uint256)":"86c048c5","isDependentTransferable(uint256)":"4541eda3","isDependentTransferableToAddress(uint256,address)":"32f4da4a","isLocked(uint256)":"f6aacfb1","isTokenBurnable(uint256)":"7827136b","isTokenTransferable(uint256)":"ddaec205","isTokenTransferableToAddress(uint256,address)":"ac3e2c6f","isTransferable(uint256)":"b2564569","isTransferableToAddress(uint256,address)":"99d112fa","lock(uint256,address,uint256)":"cf27cfc4","name()":"06fdde03","newHumanName(string,address,bytes32,bytes32)":"e0720481","newSubname(uint256,string)":"b5916ab2","owner()":"8da5cb5b","ownerOf(uint256)":"6352211e","removeDependence(uint256,address,uint256)":"eee40354","removeLockedToken(uint256,address,uint256)":"e5c8e431","removeSubname(uint256)":"0a41529e","renounceOwnership()":"715018a6","safeTransferFrom(address,address,uint256)":"42842e0e","safeTransferFrom(address,address,uint256,bytes)":"b88d4fde","setApprovalForAll(address,bool)":"a22cb465","setBurnable(uint256,bool)":"33699624","setDataContract(uint256,address)":"73681ba1","setDependence(uint256,address,uint256)":"d6034c26","setPubkey(uint256,bytes32,bytes32)":"0c1906ec","setTokenURI(uint256,string)":"162094c4","setTransferWhitelist(uint256,address,bool)":"2e5466e6","setTransferable(uint256,bool)":"dfe28fbf","subnameIndex(uint256,uint256)":"4812e029","subnamesAmount(uint256)":"1e857a15","supportsInterface(bytes4)":"01ffc9a7","symbol()":"95d89b41","tokenByIndex(uint256)":"4f6ccce7","tokenOfOwnerByIndex(address,uint256)":"2f745c59","tokenURI(uint256)":"c87b56dd","totalSupply()":"18160ddd","transferFrom(address,address,uint256)":"23b872dd","transferOwnership(address)":"f2fde38b","unlock(uint256)":"6198e339","verifyHuman(bytes,uint256,uint256)":"7813fba3"},"id":16}