{"abi":[{"type":"constructor","inputs":[{"name":"name","type":"string","internalType":"string"},{"name":"symbol","type":"string","internalType":"string"},{"name":"verifierContract","type":"address","internalType":"address"}],"stateMutability":"nonpayable"},{"type":"function","name":"addLockedToken","inputs":[{"name":"tokenID","type":"uint256","internalType":"uint256"},{"name":"LockedContract","type":"address","internalType":"address"},{"name":"LockedID","type":"uint256","internalType":"uint256"}],"outputs":[],"stateMutability":"nonpayable"},{"type":"function","name":"approve","inputs":[{"name":"to","type":"address","internalType":"address"},{"name":"tokenId","type":"uint256","internalType":"uint256"}],"outputs":[],"stateMutability":"nonpayable"},{"type":"function","name":"balanceOf","inputs":[{"name":"owner","type":"address","internalType":"address"}],"outputs":[{"name":"","type":"uint256","internalType":"uint256"}],"stateMutability":"view"},{"type":"function","name":"burn","inputs":[{"name":"tokenID","type":"uint256","internalType":"uint256"}],"outputs":[],"stateMutability":"nonpayable"},{"type":"function","name":"clearExpiredSubnames","inputs":[{"name":"nameID","type":"uint256","internalType":"uint256"}],"outputs":[],"stateMutability":"nonpayable"},{"type":"function","name":"data","inputs":[{"name":"nameID","type":"uint256","internalType":"uint256"}],"outputs":[{"name":"","type":"address","internalType":"address"}],"stateMutability":"view"},{"type":"function","name":"getApproved","inputs":[{"name":"tokenId","type":"uint256","internalType":"uint256"}],"outputs":[{"name":"","type":"address","internalType":"address"}],"stateMutability":"view"},{"type":"function","name":"getExpirationTimestamp","inputs":[{"name":"nameID","type":"uint256","internalType":"uint256"}],"outputs":[{"name":"","type":"uint256","internalType":"uint256"}],"stateMutability":"view"},{"type":"function","name":"getName","inputs":[{"name":"nameID","type":"uint256","internalType":"uint256"}],"outputs":[{"name":"","type":"string","internalType":"string"}],"stateMutability":"view"},{"type":"function","name":"getNameType","inputs":[{"name":"nameID","type":"uint256","internalType":"uint256"}],"outputs":[{"name":"","type":"uint8","internalType":"uint8"}],"stateMutability":"view"},{"type":"function","name":"getParentID","inputs":[{"name":"nameID","type":"uint256","internalType":"uint256"}],"outputs":[{"name":"","type":"uint256","internalType":"uint256"}],"stateMutability":"view"},{"type":"function","name":"isAddressWhitelisted","inputs":[{"name":"tokenID","type":"uint256","internalType":"uint256"},{"name":"whitelistAddress","type":"address","internalType":"address"}],"outputs":[{"name":"","type":"bool","internalType":"bool"}],"stateMutability":"view"},{"type":"function","name":"isApprovedForAll","inputs":[{"name":"owner","type":"address","internalType":"address"},{"name":"operator","type":"address","internalType":"address"}],"outputs":[{"name":"","type":"bool","internalType":"bool"}],"stateMutability":"view"},{"type":"function","name":"isBurnable","inputs":[{"name":"tokenID","type":"uint256","internalType":"uint256"}],"outputs":[{"name":"","type":"bool","internalType":"bool"}],"stateMutability":"view"},{"type":"function","name":"isDependent","inputs":[{"name":"tokenID","type":"uint256","internalType":"uint256"},{"name":"CTContractAddress","type":"address","internalType":"address"},{"name":"CTID","type":"uint256","internalType":"uint256"}],"outputs":[{"name":"","type":"bool","internalType":"bool"}],"stateMutability":"view"},{"type":"function","name":"isDependentBurnable","inputs":[{"name":"tokenID","type":"uint256","internalType":"uint256"}],"outputs":[{"name":"","type":"bool","internalType":"bool"}],"stateMutability":"view"},{"type":"function","name":"isDependentTransferable","inputs":[{"name":"tokenID","type":"uint256","internalType":"uint256"}],"outputs":[{"name":"","type":"bool","internalType":"bool"}],"stateMutability":"view"},{"type":"function","name":"isDependentTransferableToAddress","inputs":[{"name":"tokenID","type":"uint256","internalType":"uint256"},{"name":"transferToAddress","type":"address","internalType":"address"}],"outputs":[{"name":"","type":"bool","internalType":"bool"}],"stateMutability":"view"},{"type":"function","name":"isLocked","inputs":[{"name":"tokenID","type":"uint256","internalType":"uint256"}],"outputs":[{"name":"","type":"address","internalType":"address"},{"name":"","type":"uint256","internalType":"uint256"}],"stateMutability":"view"},{"type":"function","name":"isTokenBurnable","inputs":[{"name":"tokenID","type":"uint256","internalType":"uint256"}],"outputs":[{"name":"","type":"bool","internalType":"bool"}],"stateMutability":"view"},{"type":"function","name":"isTokenTransferable","inputs":[{"name":"tokenID","type":"uint256","internalType":"uint256"}],"outputs":[{"name":"","type":"bool","internalType":"bool"}],"stateMutability":"view"},{"type":"function","name":"isTokenTransferableToAddress","inputs":[{"name":"tokenID","type":"uint256","internalType":"uint256"},{"name":"transferToAddress","type":"address","internalType":"address"}],"outputs":[{"name":"","type":"bool","internalType":"bool"}],"stateMutability":"view"},{"type":"function","name":"isTransferable","inputs":[{"name":"tokenID","type":"uint256","internalType":"uint256"}],"outputs":[{"name":"","type":"bool","internalType":"bool"}],"stateMutability":"view"},{"type":"function","name":"isTransferableToAddress","inputs":[{"name":"tokenID","type":"uint256","internalType":"uint256"},{"name":"addressToTransferTo","type":"address","internalType":"address"}],"outputs":[{"name":"","type":"bool","internalType":"bool"}],"stateMutability":"view"},{"type":"function","name":"lock","inputs":[{"name":"tokenID","type":"uint256","internalType":"uint256"},{"name":"LockingContract","type":"address","internalType":"address"},{"name":"LockingID","type":"uint256","internalType":"uint256"}],"outputs":[],"stateMutability":"nonpayable"},{"type":"function","name":"name","inputs":[],"outputs":[{"name":"","type":"string","internalType":"string"}],"stateMutability":"view"},{"type":"function","name":"newHumanName","inputs":[{"name":"name","type":"string","internalType":"string"},{"name":"creator","type":"address","internalType":"address"},{"name":"expirationTimestamp","type":"uint256","internalType":"uint256"}],"outputs":[{"name":"","type":"uint256","internalType":"uint256"}],"stateMutability":"nonpayable"},{"type":"function","name":"newSubname","inputs":[{"name":"nameID","type":"uint256","internalType":"uint256"},{"name":"subname","type":"string","internalType":"string"}],"outputs":[{"name":"","type":"uint256","internalType":"uint256"}],"stateMutability":"nonpayable"},{"type":"function","name":"owner","inputs":[],"outputs":[{"name":"","type":"address","internalType":"address"}],"stateMutability":"view"},{"type":"function","name":"ownerOf","inputs":[{"name":"tokenId","type":"uint256","internalType":"uint256"}],"outputs":[{"name":"","type":"address","internalType":"address"}],"stateMutability":"view"},{"type":"function","name":"removeDependence","inputs":[{"name":"tokenID","type":"uint256","internalType":"uint256"},{"name":"CTContractAddress","type":"address","internalType":"address"},{"name":"CTID","type":"uint256","internalType":"uint256"}],"outputs":[],"stateMutability":"nonpayable"},{"type":"function","name":"removeLockedToken","inputs":[{"name":"tokenID","type":"uint256","internalType":"uint256"},{"name":"LockedContract","type":"address","internalType":"address"},{"name":"LockedID","type":"uint256","internalType":"uint256"}],"outputs":[],"stateMutability":"nonpayable"},{"type":"function","name":"removeSubname","inputs":[{"name":"subnameID","type":"uint256","internalType":"uint256"}],"outputs":[],"stateMutability":"nonpayable"},{"type":"function","name":"renounceOwnership","inputs":[],"outputs":[],"stateMutability":"nonpayable"},{"type":"function","name":"safeTransferFrom","inputs":[{"name":"from","type":"address","internalType":"address"},{"name":"to","type":"address","internalType":"address"},{"name":"tokenId","type":"uint256","internalType":"uint256"}],"outputs":[],"stateMutability":"nonpayable"},{"type":"function","name":"safeTransferFrom","inputs":[{"name":"from","type":"address","internalType":"address"},{"name":"to","type":"address","internalType":"address"},{"name":"tokenID","type":"uint256","internalType":"uint256"},{"name":"data","type":"bytes","internalType":"bytes"}],"outputs":[],"stateMutability":"nonpayable"},{"type":"function","name":"setApprovalForAll","inputs":[{"name":"operator","type":"address","internalType":"address"},{"name":"approved","type":"bool","internalType":"bool"}],"outputs":[],"stateMutability":"nonpayable"},{"type":"function","name":"setBurnable","inputs":[{"name":"tokenID","type":"uint256","internalType":"uint256"},{"name":"burnable","type":"bool","internalType":"bool"}],"outputs":[],"stateMutability":"nonpayable"},{"type":"function","name":"setDataContract","inputs":[{"name":"nameID","type":"uint256","internalType":"uint256"},{"name":"dataContract","type":"address","internalType":"address"}],"outputs":[],"stateMutability":"nonpayable"},{"type":"function","name":"setDependence","inputs":[{"name":"tokenID","type":"uint256","internalType":"uint256"},{"name":"CTContractAddress","type":"address","internalType":"address"},{"name":"CTID","type":"uint256","internalType":"uint256"}],"outputs":[],"stateMutability":"nonpayable"},{"type":"function","name":"setPubkey","inputs":[{"name":"nameID","type":"uint256","internalType":"uint256"},{"name":"pubkeyX","type":"bytes32","internalType":"bytes32"},{"name":"pubkeyY","type":"bytes32","internalType":"bytes32"}],"outputs":[],"stateMutability":"nonpayable"},{"type":"function","name":"setTokenURI","inputs":[{"name":"tokenID","type":"uint256","internalType":"uint256"},{"name":"tokenURI","type":"string","internalType":"string"}],"outputs":[],"stateMutability":"nonpayable"},{"type":"function","name":"setTransferWhitelist","inputs":[{"name":"tokenID","type":"uint256","internalType":"uint256"},{"name":"whitelistAddress","type":"address","internalType":"address"},{"name":"isWhitelisted","type":"bool","internalType":"bool"}],"outputs":[],"stateMutability":"nonpayable"},{"type":"function","name":"setTransferable","inputs":[{"name":"tokenID","type":"uint256","internalType":"uint256"},{"name":"transferable","type":"bool","internalType":"bool"}],"outputs":[],"stateMutability":"nonpayable"},{"type":"function","name":"subnameIndex","inputs":[{"name":"nameID","type":"uint256","internalType":"uint256"},{"name":"index","type":"uint256","internalType":"uint256"}],"outputs":[{"name":"","type":"uint256","internalType":"uint256"}],"stateMutability":"view"},{"type":"function","name":"subnamesAmount","inputs":[{"name":"nameID","type":"uint256","internalType":"uint256"}],"outputs":[{"name":"","type":"uint256","internalType":"uint256"}],"stateMutability":"view"},{"type":"function","name":"supportsInterface","inputs":[{"name":"interfaceId","type":"bytes4","internalType":"bytes4"}],"outputs":[{"name":"","type":"bool","internalType":"bool"}],"stateMutability":"view"},{"type":"function","name":"symbol","inputs":[],"outputs":[{"name":"","type":"string","internalType":"string"}],"stateMutability":"view"},{"type":"function","name":"tokenByIndex","inputs":[{"name":"index","type":"uint256","internalType":"uint256"}],"outputs":[{"name":"","type":"uint256","internalType":"uint256"}],"stateMutability":"view"},{"type":"function","name":"tokenOfOwnerByIndex","inputs":[{"name":"owner","type":"address","internalType":"address"},{"name":"index","type":"uint256","internalType":"uint256"}],"outputs":[{"name":"","type":"uint256","internalType":"uint256"}],"stateMutability":"view"},{"type":"function","name":"tokenURI","inputs":[{"name":"tokenId","type":"uint256","internalType":"uint256"}],"outputs":[{"name":"","type":"string","internalType":"string"}],"stateMutability":"view"},{"type":"function","name":"totalSupply","inputs":[],"outputs":[{"name":"","type":"uint256","internalType":"uint256"}],"stateMutability":"view"},{"type":"function","name":"transferFrom","inputs":[{"name":"from","type":"address","internalType":"address"},{"name":"to","type":"address","internalType":"address"},{"name":"tokenID","type":"uint256","internalType":"uint256"}],"outputs":[],"stateMutability":"nonpayable"},{"type":"function","name":"transferOwnership","inputs":[{"name":"newOwner","type":"address","internalType":"address"}],"outputs":[],"stateMutability":"nonpayable"},{"type":"function","name":"unlock","inputs":[{"name":"tokenID","type":"uint256","internalType":"uint256"}],"outputs":[],"stateMutability":"nonpayable"},{"type":"function","name":"verifyHuman","inputs":[{"name":"proof","type":"bytes","internalType":"bytes"},{"name":"nameID","type":"uint256","internalType":"uint256"},{"name":"verifiedForTimestamp","type":"uint256","internalType":"uint256"}],"outputs":[],"stateMutability":"nonpayable"},{"type":"event","name":"Approval","inputs":[{"name":"owner","type":"address","indexed":true,"internalType":"address"},{"name":"approved","type":"address","indexed":true,"internalType":"address"},{"name":"tokenId","type":"uint256","indexed":true,"internalType":"uint256"}],"anonymous":false},{"type":"event","name":"ApprovalForAll","inputs":[{"name":"owner","type":"address","indexed":true,"internalType":"address"},{"name":"operator","type":"address","indexed":true,"internalType":"address"},{"name":"approved","type":"bool","indexed":false,"internalType":"bool"}],"anonymous":false},{"type":"event","name":"BatchMetadataUpdate","inputs":[{"name":"_fromTokenId","type":"uint256","indexed":false,"internalType":"uint256"},{"name":"_toTokenId","type":"uint256","indexed":false,"internalType":"uint256"}],"anonymous":false},{"type":"event","name":"MetadataUpdate","inputs":[{"name":"_tokenId","type":"uint256","indexed":false,"internalType":"uint256"}],"anonymous":false},{"type":"event","name":"NewDependence","inputs":[{"name":"tokenId","type":"uint256","indexed":false,"internalType":"uint256"},{"name":"CTContractAddress","type":"address","indexed":false,"internalType":"address"},{"name":"CTId","type":"uint256","indexed":false,"internalType":"uint256"}],"anonymous":false},{"type":"event","name":"NewLocking","inputs":[{"name":"tokenId","type":"uint256","indexed":false,"internalType":"uint256"},{"name":"LockingContract","type":"address","indexed":false,"internalType":"address"},{"name":"LockingId","type":"uint256","indexed":false,"internalType":"uint256"}],"anonymous":false},{"type":"event","name":"OwnershipTransferred","inputs":[{"name":"previousOwner","type":"address","indexed":true,"internalType":"address"},{"name":"newOwner","type":"address","indexed":true,"internalType":"address"}],"anonymous":false},{"type":"event","name":"RemovedDependence","inputs":[{"name":"tokenId","type":"uint256","indexed":false,"internalType":"uint256"},{"name":"CTContractAddress","type":"address","indexed":false,"internalType":"address"},{"name":"CTId","type":"uint256","indexed":false,"internalType":"uint256"}],"anonymous":false},{"type":"event","name":"Transfer","inputs":[{"name":"from","type":"address","indexed":true,"internalType":"address"},{"name":"to","type":"address","indexed":true,"internalType":"address"},{"name":"tokenId","type":"uint256","indexed":true,"internalType":"uint256"}],"anonymous":false},{"type":"event","name":"Unlocked","inputs":[{"name":"tokenId","type":"uint256","indexed":false,"internalType":"uint256"}],"anonymous":false},{"type":"event","name":"humanNameCreated","inputs":[{"name":"name","type":"string","indexed":false,"internalType":"string"},{"name":"creator","type":"address","indexed":false,"internalType":"address"},{"name":"expirationTimestamp","type":"uint256","indexed":false,"internalType":"uint256"}],"anonymous":false},{"type":"event","name":"subnameCreated","inputs":[{"name":"subname","type":"string","indexed":false,"internalType":"string"},{"name":"creatorNameID","type":"uint256","indexed":false,"internalType":"uint256"},{"name":"subnameID","type":"uint256","indexed":false,"internalType":"uint256"}],"anonymous":false}],"bytecode":{"object":"0x608060405234801561001057600080fd5b50604051615d20380380615d2083398101604081905261002f916101a3565b82828181600061003f83826102b3565b50600161004c82826102b3565b505050505061006761006261008f60201b60201c565b610093565b600d80546001600160a01b0319166001600160a01b0392909216919091179055506103729050565b3390565b600c80546001600160a01b038381166001600160a01b0319831681179093556040519116919082907f8be0079c531659141344cd1fd0a4f28419497f9722a3daafe3b4186f6b6457e090600090a35050565b634e487b7160e01b600052604160045260246000fd5b600082601f83011261010c57600080fd5b81516001600160401b0380821115610126576101266100e5565b604051601f8301601f19908116603f0116810190828211818310171561014e5761014e6100e5565b816040528381526020925086602085880101111561016b57600080fd5b600091505b8382101561018d5785820183015181830184015290820190610170565b6000602085830101528094505050505092915050565b6000806000606084860312156101b857600080fd5b83516001600160401b03808211156101cf57600080fd5b6101db878388016100fb565b945060208601519150808211156101f157600080fd5b506101fe868287016100fb565b604086015190935090506001600160a01b038116811461021d57600080fd5b809150509250925092565b600181811c9082168061023c57607f821691505b60208210810361025c57634e487b7160e01b600052602260045260246000fd5b50919050565b601f8211156102ae576000816000526020600020601f850160051c8101602086101561028b5750805b601f850160051c820191505b818110156102aa57828155600101610297565b5050505b505050565b81516001600160401b038111156102cc576102cc6100e5565b6102e0816102da8454610228565b84610262565b602080601f83116001811461031557600084156102fd5750858301515b600019600386901b1c1916600185901b1785556102aa565b600085815260208120601f198616915b8281101561034457888601518255948401946001909101908401610325565b50858210156103625787850151600019600388901b60f8161c191681555b5050505050600190811b01905550565b61599f806103816000396000f3fe608060405234801561001057600080fd5b50600436106103785760003560e01c806373681ba1116101d3578063c87b56dd11610104578063e5c8e431116100a2578063eee403541161007c578063eee403541461081d578063f0ba844014610830578063f2fde38b14610843578063f6aacfb11461085657600080fd5b8063e5c8e431146107bb578063e985e9c5146107ce578063edee39651461080a57600080fd5b8063d6034c26116100de578063d6034c261461075f578063d9e5896e14610772578063ddaec20514610795578063dfe28fbf146107a857600080fd5b8063c87b56dd146106fc578063cf27cfc41461070f578063d1af032c1461072257600080fd5b806399d112fa11610171578063b25645691161014b578063b256456914610689578063b5916ab2146106ad578063b88d4fde146106c0578063c6f88d4a146106d357600080fd5b806399d112fa14610650578063a22cb46514610663578063ac3e2c6f1461067657600080fd5b806386c048c5116101ad57806386c048c5146106115780638da5cb5b146106245780638fc76be71461063557806395d89b411461064857600080fd5b806373681ba1146105d85780637813fba3146105eb5780637827136b146105fe57600080fd5b80632f745c59116102ad5780634812e0291161024b5780636352211e116102255780636352211e146105975780636b8ff574146105aa57806370a08231146105bd578063715018a6146105d057600080fd5b80634812e0291461055e5780634f6ccce7146105715780636198e3391461058457600080fd5b80633369962411610287578063336996241461051257806342842e0e1461052557806342966c68146105385780634541eda31461054b57600080fd5b80632f745c59146104d957806330b94770146104ec57806332f4da4a146104ff57600080fd5b80630c1906ec1161031a5780631e857a15116102f45780631e857a151461047d57806323b872dd146104a057806327eff994146104b35780632e5466e6146104c657600080fd5b80630c1906ec14610445578063162094c41461045857806318160ddd1461046b57600080fd5b8063095ea7b311610356578063095ea7b3146103e557806309b6e71d146103fa5780630a41529e1461040d5780630ae5fa411461042057600080fd5b806301ffc9a71461037d57806306fdde03146103a5578063081812fc146103ba575b600080fd5b61039061038b366004614aa5565b610888565b60405190151581526020015b60405180910390f35b6103ad6108ce565b60405161039c9190614b12565b6103cd6103c8366004614b25565b610960565b6040516001600160a01b03909116815260200161039c565b6103f86103f3366004614b53565b610987565b005b6103f8610408366004614b25565b610aa1565b6103f861041b366004614b25565b610d96565b61043361042e366004614b25565b610e44565b60405160ff909116815260200161039c565b6103f8610453366004614b7f565b610e6a565b6103f8610466366004614bf4565b610eb9565b6009545b60405190815260200161039c565b61046f61048b366004614b25565b6000908152600f602052604090206006015490565b6103f86104ae366004614c40565b610f26565b61046f6104c1366004614c81565b610fd6565b6103f86104d4366004614cec565b61146b565b61046f6104e7366004614b53565b6114cc565b61046f6104fa366004614b25565b611562565b61039061050d366004614d2e565b6115f5565b6103f8610520366004614d5e565b611724565b6103f8610533366004614c40565b611770565b6103f8610546366004614b25565b61178b565b610390610559366004614b25565b611ad4565b61046f61056c366004614d83565b611bfb565b61046f61057f366004614b25565b611c31565b6103f8610592366004614b25565b611cc4565b6103cd6105a5366004614b25565b611d1a565b6103ad6105b8366004614b25565b611d7a565b61046f6105cb366004614da5565b611f7d565b6103f8612003565b6103f86105e6366004614d2e565b612017565b6103f86105f9366004614dc2565b6120ae565b61039061060c366004614b25565b612313565b61039061061f366004614b25565b612337565b600c546001600160a01b03166103cd565b610390610643366004614e13565b612455565b6103ad612499565b61039061065e366004614d2e565b6124a8565b6103f8610671366004614e3a565b6124f1565b610390610684366004614d2e565b6124fc565b610390610697366004614b25565b6000908152600b602052604090205460ff161590565b61046f6106bb366004614bf4565b612519565b6103f86106ce366004614e7e565b612926565b6103906106e1366004614b25565b6000908152600b6020526040902054610100900460ff161590565b6103ad61070a366004614b25565b6129d6565b6103f861071d366004614e13565b612ad8565b610390610730366004614d2e565b6000828152600b602090815260408083206001600160a01b038516845260030190915290205460ff1692915050565b6103f861076d366004614e13565b612bb4565b61046f610780366004614b25565b6000908152600f602052604090206002015490565b6103906107a3366004614b25565b612be6565b6103f86107b6366004614d5e565b612c09565b6103f86107c9366004614e13565b612c50565b6103906107dc366004614f5e565b6001600160a01b03918216600090815260056020908152604080832093909416825291909152205460ff1690565b6103f8610818366004614e13565b612eca565b6103f861082b366004614e13565b61311e565b6103cd61083e366004614b25565b6134f1565b6103f8610851366004614da5565b613543565b610869610864366004614b25565b6135bc565b604080516001600160a01b03909316835260208301919091520161039c565b60006001600160e01b03198216631e6f6d8b60e31b14806108b957506001600160e01b0319821663012a552760e41b145b806108c857506108c8826135e3565b92915050565b6060600080546108dd90614f8c565b80601f016020809104026020016040519081016040528092919081815260200182805461090990614f8c565b80156109565780601f1061092b57610100808354040283529160200191610956565b820191906000526020600020905b81548152906001019060200180831161093957829003601f168201915b5050505050905090565b600061096b82613608565b506000908152600460205260409020546001600160a01b031690565b600061099282611d1a565b9050806001600160a01b0316836001600160a01b031603610a045760405162461bcd60e51b815260206004820152602160248201527f4552433732313a20617070726f76616c20746f2063757272656e74206f776e656044820152603960f91b60648201526084015b60405180910390fd5b336001600160a01b0382161480610a205750610a2081336107dc565b610a925760405162461bcd60e51b815260206004820152603d60248201527f4552433732313a20617070726f76652063616c6c6572206973206e6f7420746f60448201527f6b656e206f776e6572206f7220617070726f76656420666f7220616c6c00000060648201526084016109fb565b610a9c8383613667565b505050565b6000818152600f602052604090206002015481904210610ad35760405162461bcd60e51b81526004016109fb90614fc0565b60005b6000838152600f6020526040902060060154811015610a9c576000838152600f60205260409020600601548110610a9c576000838152600f602081905260408220600601805483919085908110610b2f57610b2f615003565b9060005260206000200154815260200190815260200160002060405180610140016040529081600082018054610b6490614f8c565b80601f0160208091040260200160405190810160405280929190818152602001828054610b9090614f8c565b8015610bdd5780601f10610bb257610100808354040283529160200191610bdd565b820191906000526020600020905b815481529060010190602001808311610bc057829003601f168201915b5050509183525050600182015460209091019060ff166002811115610c0457610c04615019565b6002811115610c1557610c15615019565b8152600282015460208083019190915260038301546001600160a01b03908116604080850191909152600485015460608501526005850154909116608084015260068401805482518185028101850190935280835260a0909401939192909190830182828015610ca457602002820191906000526020600020905b815481526020019060010190808311610c90575b5050509183525050600782015460ff16151560208201526008820154604080830191909152600990920154606090910152810151909150421015610d8d576000848152600f602052604090206006018054610d0190600190615045565b81548110610d1157610d11615003565b9060005260206000200154600f60008681526020019081526020016000206006018381548110610d4357610d43615003565b9060005260206000200181905550600f6000858152602001908152602001600020600601805480610d7657610d76615058565b600190038181906000526020600020016000905590555b50600101610ad6565b8033610da182611d1a565b6001600160a01b031614610dc75760405162461bcd60e51b81526004016109fb9061506e565b6000828152600f6020526040902060020154610e375760405162461bcd60e51b815260206004820152602960248201527f4261627920576f6f6c62616c6c3a205375626e616d6520697320616c726561646044820152681e481c995b5bdd995960ba1b60648201526084016109fb565b610e40826136d5565b5050565b6000818152600f602052604081206001015460ff1660028111156108c8576108c8615019565b8233610e7582611d1a565b6001600160a01b031614610e9b5760405162461bcd60e51b81526004016109fb9061506e565b506000928352600f6020526040909220600881019190915560090155565b82610ec43382613814565b610ee05760405162461bcd60e51b81526004016109fb906150c2565b610f208484848080601f01602080910402602001604051908101604052809392919081815260200183838082843760009201919091525061389292505050565b50505050565b806000610f32826135bc565b9150508015610f9d576000828152600b60205260409020600601546001600160a01b0316331480610f7c57506000828152600b60205260409020600601546001600160a01b031630145b610f985760405162461bcd60e51b81526004016109fb9061510f565b610fc4565b610fa8335b83613814565b610fc45760405162461bcd60e51b81526004016109fb906150c2565b610fcf85858561395d565b5050505050565b6000848473__$6e9f22e923764f2a7fb3fc86851ac048b1$__635f8b54e883836040518363ffffffff1660e01b81526004016110139291906151bb565b602060405180830381865af4158015611030573d6000803e3d6000fd5b505050506040513d601f19601f8201168201806040525081019061105491906151e2565b156110715760405162461bcd60e51b81526004016109fb906151ff565b604051630bf16a9d60e31b815273__$6e9f22e923764f2a7fb3fc86851ac048b1$__90635f8b54e8906110aa908590859060040161525c565b602060405180830381865af41580156110c7573d6000803e3d6000fd5b505050506040513d601f19601f820116820180604052508101906110eb91906151e2565b156111085760405162461bcd60e51b81526004016109fb90615283565b604051630bf16a9d60e31b815273__$6e9f22e923764f2a7fb3fc86851ac048b1$__90635f8b54e89061114190859085906004016152e0565b602060405180830381865af415801561115e573d6000803e3d6000fd5b505050506040513d601f19601f8201168201806040525081019061118291906151e2565b1561119f5760405162461bcd60e51b81526004016109fb90615307565b6111a7613ace565b6000600288886040516020016111be929190615364565b60408051601f19818403018152908290526111d89161537a565b602060405180830381855afa1580156111f5573d6000803e3d6000fd5b5050506040513d601f19601f820116820180604052508101906112189190615396565b6000818152600f6020526040902060020154909150421161128d5760405162461bcd60e51b815260206004820152602960248201527f4261627920576f6f6c62616c6c3a206e616d6520697320616c726561647920726044820152681959da5cdd195c995960ba1b60648201526084016109fb565b61129a4262278d006153af565b85106113265760405162461bcd60e51b815260206004820152604f60248201527f4261627920576f6f6c62616c6c3a20696e697469616c2065787069726174696f60448201527f6e54696d657374616d702063616e206265206174206d6f73742033302064617960648201526e7320696e207468652066757475726560881b608482015260a4016109fb565b61132f86611f7d565b156113bd5760405162461bcd60e51b815260206004820152605260248201527f4261627920576f6f6c62616c6c3a20746865206164647265737320616c72656160448201527f6479206861732061206e616d652c206f6e6c79206f6e65206e616d6520706572606482015271081859191c995cdcc81a5cc8185b1b1dd95960721b608482015260a4016109fb565b6113c78682613b28565b6000818152600f602052604090206113e0888a8361540a565b506000818152600f6020526040908190206001808201805460ff191690911790556002810187905560030180546001600160a01b0319166001600160a01b038916179055517f7030f69933adc5df949f42f9f050d138233c96f45544062a02c9310ea324ed2390611458908a908a908a908a906154ca565b60405180910390a1979650505050505050565b826114763382613814565b6114925760405162461bcd60e51b81526004016109fb906150c2565b506000928352600b602090815260408085206001600160a01b03949094168552600390930190529120805460ff1916911515919091179055565b60006114d783611f7d565b82106115395760405162461bcd60e51b815260206004820152602b60248201527f455243373231456e756d657261626c653a206f776e657220696e646578206f7560448201526a74206f6620626f756e647360a81b60648201526084016109fb565b506001600160a01b03919091166000908152600760209081526040808320938352929052205490565b60008160026000828152600f602052604090206001015460ff16600281111561158d5761158d615019565b146115da5760405162461bcd60e51b815260206004820152601a60248201527f6e616d654944206973206e6f74206f662061207375626e616d6500000000000060448201526064016109fb565b6000838152600f602052604090206004015491505b50919050565b6000805b6000848152600b602052604090206001015481101561171a576000848152600b6020526040812060010180548390811061163557611635615003565b60009182526020808320600290920290910154878352600b9091526040822060010180546001600160a01b039092169350908490811061167757611677615003565b600091825260209091206001600290920201015460405163ac3e2c6f60e01b8152600481018290526001600160a01b0387811660248301529192509083169063ac3e2c6f90604401602060405180830381865afa1580156116dc573d6000803e3d6000fd5b505050506040513d601f19601f8201168201806040525081019061170091906151e2565b61171057600093505050506108c8565b50506001016115f9565b5060019392505050565b8161172f3382613814565b61174b5760405162461bcd60e51b81526004016109fb906150c2565b506000918252600b6020526040909120805461ff001916911561010002919091179055565b610a9c83838360405180602001604052806000815250612926565b806117963382613814565b6117b25760405162461bcd60e51b81526004016109fb906150c2565b6117bb82612313565b61182d5760405162461bcd60e51b815260206004820152603e60248201527f4c43543a2074686520746f6b656e206f72206f6e65206f662069747320436f6d60448201527f6d616e64657220546f6b656e7320617265206e6f74206275726e61626c65000060648201526084016109fb565b60005b6000838152600b6020526040902060040154811015611930576000838152600b6020526040812060040180548390811061186c5761186c615003565b60009182526020808320600290920290910154868352600b9091526040822060040180546001600160a01b03909216935090849081106118ae576118ae615003565b9060005260206000209060020201600101549050816001600160a01b03166342966c68826040518263ffffffff1660e01b81526004016118f091815260200190565b600060405180830381600087803b15801561190a57600080fd5b505af115801561191e573d6000803e3d6000fd5b50506001909401935061183092505050565b5060005b6000838152600b60205260409020600401548110156119da576000838152600b6020526040812060040180548390811061197057611970615003565b60009182526020808320604080518082018252600290940290910180546001600160a01b0390811685526001918201548585019081528a8752600b855283872095519091168652600590940183528185209351855292909152822091909155919091019050611934565b5060005b6000838152600b6020526040902060010154811015611a81576000838152600b60205260408120600101805483908110611a1a57611a1a615003565b60009182526020808320604080518082018252600294850290920180546001600160a01b0390811684526001918201548486019081528b8852600b8652838820945190911687529290940183528085209151855291528220919091559190910190506119de565b506000828152600b60205260408120805461ffff1916815590611aa76001830182614a49565b611ab5600483016000614a49565b506006810180546001600160a01b031916905560006007909101555050565b6000805b6000838152600b6020526040902060010154811015611bf2576000838152600b60205260408120600101805483908110611b1457611b14615003565b60009182526020808320600290920290910154868352600b9091526040822060010180546001600160a01b0390921693509084908110611b5657611b56615003565b9060005260206000209060020201600101549050816001600160a01b031663ddaec205826040518263ffffffff1660e01b8152600401611b9891815260200190565b602060405180830381865afa158015611bb5573d6000803e3d6000fd5b505050506040513d601f19601f82011682018060405250810190611bd991906151e2565b611be857506000949350505050565b5050600101611ad8565b50600192915050565b6000828152600f60205260408120600601805483908110611c1e57611c1e615003565b9060005260206000200154905092915050565b6000611c3c60095490565b8210611c9f5760405162461bcd60e51b815260206004820152602c60248201527f455243373231456e756d657261626c653a20676c6f62616c20696e646578206f60448201526b7574206f6620626f756e647360a01b60648201526084016109fb565b60098281548110611cb257611cb2615003565b90600052602060002001549050919050565b6000818152600b60205260409020600601546001600160a01b031633811480611cf557506001600160a01b03811630145b611d115760405162461bcd60e51b81526004016109fb906154fa565b610e4082613cc1565b6000818152600260205260408120546001600160a01b0316806108c85760405162461bcd60e51b8152602060048201526018602482015277115490cdcc8c4e881a5b9d985b1a59081d1bdad95b88125160421b60448201526064016109fb565b6000818152600f602052604090206002015460609082904210611daf5760405162461bcd60e51b81526004016109fb90614fc0565b606060016000858152600f602052604090206001015460ff166002811115611dd957611dd9615019565b03611e7c576000848152600f602052604090208054611df790614f8c565b80601f0160208091040260200160405190810160405280929190818152602001828054611e2390614f8c565b8015611e705780601f10611e4557610100808354040283529160200191611e70565b820191906000526020600020905b815481529060010190602001808311611e5357829003601f168201915b50505050509050611f76565b6000848152600f602052604090208054611e9590614f8c565b80601f0160208091040260200160405190810160405280929190818152602001828054611ec190614f8c565b8015611f0e5780601f10611ee357610100808354040283529160200191611f0e565b820191906000526020600020905b815481529060010190602001808311611ef157829003601f168201915b5050506000878152600f602052604090206004015492935050505b6000818152600f60209081526040918290209151611f4b928592909101615557565b60408051601f198184030181529181526000928352600f6020529091206004015490915080611f2957505b9392505050565b60006001600160a01b038216611fe75760405162461bcd60e51b815260206004820152602960248201527f4552433732313a2061646472657373207a65726f206973206e6f7420612076616044820152683634b21037bbb732b960b91b60648201526084016109fb565b506001600160a01b031660009081526003602052604090205490565b61200b613ace565b6120156000613d24565b565b813361202282611d1a565b6001600160a01b0316146120485760405162461bcd60e51b81526004016109fb9061506e565b6000838152600f6020526040902060070154839060ff1661207b5760405162461bcd60e51b81526004016109fb906155f5565b50506000918252600f602052604090912060050180546001600160a01b0319166001600160a01b03909216919091179055565b6000828152600f6020526040902060020154829042106120e05760405162461bcd60e51b81526004016109fb90614fc0565b60408051600680825260e082019092526000916020820160c0803683375050506000858152600f602052604081206008015482519293509183919061212757612127615003565b602002602001018181525050600f6000858152602001908152602001600020600901548160018151811061215d5761215d615003565b602002602001018181525050600e548160028151811061217f5761217f615003565b6020026020010181815250508260001b816003815181106121a2576121a2615003565b60200260200101818152505060606121b985611d1a565b6001600160a01b0316901b60001b816004815181106121da576121da615003565b6020026020010181815250508360001b816005815181106121fd576121fd615003565b6020908102919091010152600d54604051633a94343960e21b81526000916001600160a01b03169063ea50d0e49061223d908a908a90879060040161563b565b602060405180830381865afa15801561225a573d6000803e3d6000fd5b505050506040513d601f19601f8201168201806040525081019061227e91906151e2565b9050806122cd5760405162461bcd60e51b815260206004820152601b60248201527f4261627920576f6f6c62616c6c3a2070726f6f66206661696c6573000000000060448201526064016109fb565b6000858152600f6020526040902060078101805460ff191660011790556002015484101561230a576000858152600f602052604090206002018490555b50505050505050565b6000818152600b6020526040812054610100900460ff161580156108c857506108c8825b6000805b6000838152600b6020526040902060010154811015611bf2576000838152600b6020526040812060010180548390811061237757612377615003565b60009182526020808320600290920290910154868352600b9091526040822060010180546001600160a01b03909216935090849081106123b9576123b9615003565b9060005260206000209060020201600101549050816001600160a01b0316637827136b826040518263ffffffff1660e01b81526004016123fb91815260200190565b602060405180830381865afa158015612418573d6000803e3d6000fd5b505050506040513d601f19601f8201168201806040525081019061243c91906151e2565b61244b57506000949350505050565b505060010161233b565b6000838152600b602090815260408083206001600160a01b0386168452600201825280832084845290915281205461248e576000612491565b60015b949350505050565b6060600180546108dd90614f8c565b6000828152600b602052604081205460ff161580611f7657506000838152600b602090815260408083206001600160a01b038616845260030190915290205460ff169392505050565b610e40338383613d76565b600061250883836124a8565b8015611f765750611f7683836115f5565b6000828273__$6e9f22e923764f2a7fb3fc86851ac048b1$__635f8b54e883836040518363ffffffff1660e01b81526004016125569291906151bb565b602060405180830381865af4158015612573573d6000803e3d6000fd5b505050506040513d601f19601f8201168201806040525081019061259791906151e2565b156125b45760405162461bcd60e51b81526004016109fb906151ff565b604051630bf16a9d60e31b815273__$6e9f22e923764f2a7fb3fc86851ac048b1$__90635f8b54e8906125ed908590859060040161525c565b602060405180830381865af415801561260a573d6000803e3d6000fd5b505050506040513d601f19601f8201168201806040525081019061262e91906151e2565b1561264b5760405162461bcd60e51b81526004016109fb90615283565b604051630bf16a9d60e31b815273__$6e9f22e923764f2a7fb3fc86851ac048b1$__90635f8b54e89061268490859085906004016152e0565b602060405180830381865af41580156126a1573d6000803e3d6000fd5b505050506040513d601f19601f820116820180604052508101906126c591906151e2565b156126e25760405162461bcd60e51b81526004016109fb90615307565b85336126ed82611d1a565b6001600160a01b0316146127135760405162461bcd60e51b81526004016109fb9061506e565b6000878152600f6020526040902060070154879060ff166127465760405162461bcd60e51b81526004016109fb906155f5565b6000600288886127558c613e44565b60405160200161276793929190615694565b60408051601f19818403018152908290526127819161537a565b602060405180830381855afa15801561279e573d6000803e3d6000fd5b5050506040513d601f19601f820116820180604052508101906127c19190615396565b9050600080828152600f602052604090206001015460ff1660028111156127ea576127ea615019565b146128455760405162461bcd60e51b815260206004820152602560248201527f4261627920576f6f6c62616c6c3a207375626e616d652065786973747320616c604482015264726561647960d81b60648201526084016109fb565b6128576128518a611d1a565b82613b28565b6000818152600f60205260409020612870888a8361540a565b506000818152600f602052604080822060018101805460ff191660029081179091558c845291832082015492849052908101919091556004018990556128b781308b613ed7565b6000898152600f6020908152604080832060060180546001810182559084529190922001829055517fa6ae7a104192b83527461cc0d60f2951ded61ab68029438b0006eedf54436e9490612912908a908a908d9086906156c4565b60405180910390a198975050505050505050565b816000612932826135bc565b915050801561299d576000828152600b60205260409020600601546001600160a01b031633148061297c57506000828152600b60205260409020600601546001600160a01b031630145b6129985760405162461bcd60e51b81526004016109fb9061510f565b6129c2565b6129a633610fa2565b6129c25760405162461bcd60e51b81526004016109fb906150c2565b6129ce86868686614124565b505050505050565b6000818152600660205260408120805460609291906129f490614f8c565b80601f0160208091040260200160405190810160405280929190818152602001828054612a2090614f8c565b8015612a6d5780601f10612a4257610100808354040283529160200191612a6d565b820191906000526020600020905b815481529060010190602001808311612a5057829003601f168201915b505050505090506000612a8b60408051602081019091526000815290565b90508051600003612a9d575092915050565b815115612acf578082604051602001612ab79291906156eb565b60405160208183030381529060405292505050919050565b61249184614157565b82612ae33382613814565b612aff5760405162461bcd60e51b81526004016109fb906150c2565b838383816001600160a01b0316636352211e826040518263ffffffff1660e01b8152600401612b3091815260200190565b602060405180830381865afa158015612b4d573d6000803e3d6000fd5b505050506040513d601f19601f82011682018060405250810190612b71919061571a565b6001600160a01b0316612b8384611d1a565b6001600160a01b031614612ba95760405162461bcd60e51b81526004016109fb90615737565b61230a878787613ed7565b82612bbf3382613814565b612bdb5760405162461bcd60e51b81526004016109fb906150c2565b610f208484846141ca565b6000818152600b602052604081205460ff161580156108c857506108c882611ad4565b81612c143382613814565b612c305760405162461bcd60e51b81526004016109fb906150c2565b506000918252600b6020526040909120805460ff19169115919091179055565b6000838152600b602090815260408083206001600160a01b03861684526005018252808320848452909152902054612d035760405162461bcd60e51b815260206004820152604a60248201527f4c6f636b656420546f6b656e3a204c6f636b6564494420696e20636f6e74726160448201527f6374204c6f636b6564436f6e7472616374206973206e6f74206c6f636b6564206064820152691d1bc81d1bdad95b925160b21b608482015260a4016109fb565b6000838152600b602090815260408083206001600160a01b03861684526005018252808320848452909152812054612d3d90600190615045565b6000858152600b602081815260408084206001600160a01b038916855260058101835281852088865283529084208490558884529190526004015491925090612d8890600190615045565b6000868152600b6020526040902060040180549192509082908110612daf57612daf615003565b9060005260206000209060020201600b60008781526020019081526020016000206004018381548110612de457612de4615003565b60009182526020808320845460029093020180546001600160a01b0319166001600160a01b039093169290921782556001938401549390910192909255868152600b90915260409020600401805480612e3f57612e3f615058565b6000828152602081206002600019939093019283020180546001600160a01b0319168155600101559055604051636198e33960e01b8152600481018490526001600160a01b03851690636198e33990602401600060405180830381600087803b158015612eab57600080fd5b505af1158015612ebf573d6000803e3d6000fd5b505050505050505050565b828282816001600160a01b0316636352211e826040518263ffffffff1660e01b8152600401612efb91815260200190565b602060405180830381865afa158015612f18573d6000803e3d6000fd5b505050506040513d601f19601f82011682018060405250810190612f3c919061571a565b6001600160a01b0316612f4e84611d1a565b6001600160a01b031614612f745760405162461bcd60e51b81526004016109fb90615737565b846001600160a01b038116331480612f9457506001600160a01b03811630145b612fb05760405162461bcd60e51b81526004016109fb906154fa565b6000878152600b602090815260408083206001600160a01b038a16845260050182528083208884529091529020541561306a5760405162461bcd60e51b815260206004820152605060248201527f4c6f636b656420546f6b656e3a20746f6b656e494420697320616c726561647960448201527f206c6f636b656420746f204c6f636b656449442066726f6d20636f6e7472616360648201526f1d08131bd8dad95910dbdb9d1c9858dd60821b608482015260a4016109fb565b6040805180820182526001600160a01b0388168152602080820188905260008a8152600b90915291909120600401546130a49060016153af565b6000988952600b60208181526040808c206001600160a01b039b8c168d52600581018352818d209a8d529982528b209290925581526004909601805460018082018355918a529887902082516002909a020180546001600160a01b0319169990981698909817875590940151949095019390935550505050565b6000838152600b602090815260408083206001600160a01b0386168452600201825280832084845290915290205482906131ce5760405162461bcd60e51b815260206004820152604560248201527f4c43543a20746f6b656e4944206973206e6f7420646570656e64656e74206f6e60448201527f20435469642066726f6d20636f6e7472616374204354436f6e74726163744164606482015264647265737360d81b608482015260a4016109fb565b6131d83385613814565b8015613248575060405163b256456960e01b8152600481018390526001600160a01b0382169063b256456990602401602060405180830381865afa158015613224573d6000803e3d6000fd5b505050506040513d601f19601f8201168201806040525081019061324891906151e2565b80156132b8575060405163637c46a560e11b8152600481018390526001600160a01b0382169063c6f88d4a90602401602060405180830381865afa158015613294573d6000803e3d6000fd5b505050506040513d601f19601f820116820180604052508101906132b891906151e2565b806132cb5750336001600160a01b038416145b6133315760405162461bcd60e51b815260206004820152603160248201527f4c43543a2073656e646572206973206e6f74207065726d697474656420746f2060448201527072656d6f766520646570656e64656e637960781b60648201526084016109fb565b6000848152600b602090815260408083206001600160a01b0387168452600201825280832085845290915281205461336b90600190615045565b6000868152600b602081815260408084206001600160a01b038a168552600281018352818520898652835290842084905589845291905260019081015492935090916133b79190615045565b6000878152600b60205260409020600101805491925090829081106133de576133de615003565b9060005260206000209060020201600b6000888152602001908152602001600020600101838154811061341357613413615003565b60009182526020808320845460029093020180546001600160a01b0319166001600160a01b0390931692909217825560019384015491840191909155888252600b9052604090200180548061346a5761346a615058565b60008281526020812060026000199093019283020180546001600160a01b03191681556001015590556040517f690094bc4403e5fdf0ec1828b799e4015d5b39b33cfeb65df06a242febf4daf4906134e1908890889088909283526001600160a01b03919091166020830152604082015260600190565b60405180910390a1505050505050565b6000818152600f6020526040812060020154829042106135235760405162461bcd60e51b81526004016109fb90614fc0565b50506000908152600f60205260409020600501546001600160a01b031690565b61354b613ace565b6001600160a01b0381166135b05760405162461bcd60e51b815260206004820152602660248201527f4f776e61626c653a206e6577206f776e657220697320746865207a65726f206160448201526564647265737360d01b60648201526084016109fb565b6135b981613d24565b50565b6000908152600b6020526040902060068101546007909101546001600160a01b0390911691565b60006001600160e01b0319821663780e9d6360e01b14806108c857506108c88261435c565b6000818152600260205260409020546001600160a01b03166135b95760405162461bcd60e51b8152602060048201526018602482015277115490cdcc8c4e881a5b9d985b1a59081d1bdad95b88125160421b60448201526064016109fb565b600081815260046020526040902080546001600160a01b0319166001600160a01b038416908117909155819061369c82611d1a565b6001600160a01b03167f8c5be1e5ebec7d5bd14f71427d1e84f3dd0314c0f7b2291e5b200ac8c7c3b92560405160405180910390a45050565b6000818152600f6020526040812060040154905b6000828152600f60205260409020600601548110156137eb576000828152600f6020526040902060060180548491908390811061372857613728615003565b9060005260206000200154036137e3576000828152600f60205260409020600601805461375790600190615045565b8154811061376757613767615003565b9060005260206000200154600f6000848152602001908152602001600020600601828154811061379957613799615003565b9060005260206000200181905550600f60008381526020019081526020016000206006018054806137cc576137cc615058565b600190038181906000526020600020016000905590555b6001016136e9565b50506000908152600f602052604081206002810182905560018101805460ff1916905560040155565b60008061382083611d1a565b9050806001600160a01b0316846001600160a01b0316148061386757506001600160a01b0380821660009081526005602090815260408083209388168352929052205460ff165b806124915750836001600160a01b031661388084610960565b6001600160a01b031614949350505050565b6000828152600260205260409020546001600160a01b031661390d5760405162461bcd60e51b815260206004820152602e60248201527f45524337323155524953746f726167653a2055524920736574206f66206e6f6e60448201526d32bc34b9ba32b73a103a37b5b2b760911b60648201526084016109fb565b6000828152600660205260409020613925828261578a565b506040518281527ff8e1a15aba9398e019f0b49df1a4fde98ee17ae345cb5f6b5e2c27f5033e8ce79060200160405180910390a15050565b826001600160a01b031661397082611d1a565b6001600160a01b0316146139965760405162461bcd60e51b81526004016109fb9061584a565b6001600160a01b0382166139f85760405162461bcd60e51b8152602060048201526024808201527f4552433732313a207472616e7366657220746f20746865207a65726f206164646044820152637265737360e01b60648201526084016109fb565b613a0583838360016143ac565b826001600160a01b0316613a1882611d1a565b6001600160a01b031614613a3e5760405162461bcd60e51b81526004016109fb9061584a565b600081815260046020908152604080832080546001600160a01b03199081169091556001600160a01b0387811680865260038552838620805460001901905590871680865283862080546001019055868652600290945282852080549092168417909155905184937fddf252ad1be2c89b69c2b068fc378daa952ba7f163c4a11628f55a4df523b3ef91a4505050565b600c546001600160a01b031633146120155760405162461bcd60e51b815260206004820181905260248201527f4f776e61626c653a2063616c6c6572206973206e6f7420746865206f776e657260448201526064016109fb565b6001600160a01b038216613b7e5760405162461bcd60e51b815260206004820181905260248201527f4552433732313a206d696e7420746f20746865207a65726f206164647265737360448201526064016109fb565b6000818152600260205260409020546001600160a01b031615613be35760405162461bcd60e51b815260206004820152601c60248201527f4552433732313a20746f6b656e20616c7265616479206d696e7465640000000060448201526064016109fb565b613bf16000838360016143ac565b6000818152600260205260409020546001600160a01b031615613c565760405162461bcd60e51b815260206004820152601c60248201527f4552433732313a20746f6b656e20616c7265616479206d696e7465640000000060448201526064016109fb565b6001600160a01b038216600081815260036020908152604080832080546001019055848352600290915280822080546001600160a01b0319168417905551839291907fddf252ad1be2c89b69c2b068fc378daa952ba7f163c4a11628f55a4df523b3ef908290a45050565b6000818152600b60205260408082206006810180546001600160a01b031916905560070191909155517ff27b6ce5b2f5e68ddb2fd95a8a909d4ecf1daaac270935fff052feacb24f184290613d199083815260200190565b60405180910390a150565b600c80546001600160a01b038381166001600160a01b0319831681179093556040519116919082907f8be0079c531659141344cd1fd0a4f28419497f9722a3daafe3b4186f6b6457e090600090a35050565b816001600160a01b0316836001600160a01b031603613dd75760405162461bcd60e51b815260206004820152601960248201527f4552433732313a20617070726f766520746f2063616c6c65720000000000000060448201526064016109fb565b6001600160a01b03838116600081815260056020908152604080832094871680845294825291829020805460ff191686151590811790915591519182527f17307eab39ab6107e8899845ad3d59bd9653f200f220920489ca2b5937696c31910160405180910390a3505050565b60606000613e51836145b3565b600101905060008167ffffffffffffffff811115613e7157613e71614e68565b6040519080825280601f01601f191660200182016040528015613e9b576020820181803683370190505b5090508181016020015b600019016f181899199a1a9b1b9c1cb0b131b232b360811b600a86061a8153600a8504945084613ea557509392505050565b600080613ee3856135bc565b9150915080600014613f475760405162461bcd60e51b815260206004820152602760248201527f4c6f636b656420546f6b656e3a20746f6b656e494420697320616c7265616479604482015266081b1bd8dad95960ca1b60648201526084016109fb565b60405163f6aacfb160e01b8152600481018490526001600160a01b0385169063f6aacfb1906024016040805180830381865afa158015613f8b573d6000803e3d6000fd5b505050506040513d601f19601f82011682018060405250810190613faf919061588f565b90925090506001600160a01b03821630141580613fcc5750848114155b614040576040805162461bcd60e51b81526020600482015260248101919091527f4c6f636b656420546f6b656e3a20446561646c6f636b2064657465636574656460448201527f21204c6f636b696e674944206973206c6f636b656420746f20746f6b656e494460648201526084016109fb565b6000858152600b6020526040908190206006810180546001600160a01b0319166001600160a01b0388169081179091556007909101859055905163edee396560e01b8152600481018590523060248201526044810187905263edee396590606401600060405180830381600087803b1580156140bb57600080fd5b505af11580156140cf573d6000803e3d6000fd5b5050604080518881526001600160a01b03881660208201529081018690527f697d86e6398a689ac7b8bea2b6f3f65704d1b113d2d31863c6d26501e7265cff9250606001905060405180910390a15050505050565b61412f84848461395d565b61413b8484848461468b565b610f205760405162461bcd60e51b81526004016109fb906158bd565b606061416282613608565b600061417960408051602081019091526000815290565b905060008151116141995760405180602001604052806000815250611f76565b806141a384613e44565b6040516020016141b49291906156eb565b6040516020818303038152906040529392505050565b6000838152600b602090815260408083206001600160a01b038616845260020182528083208484529091529020541561426b5760405162461bcd60e51b815260206004820152603b60248201527f4c43543a20746f6b656e494420616c726561647920646570656e6473206f6e2060448201527f435469642066726f6d204354436f6e747261637441646472657373000000000060648201526084016109fb565b6040805180820182526001600160a01b038416815260208082018490526000868152600b909152919091206001908101546142a5916153af565b6000858152600b602081815260408084206001600160a01b03898116808752600280840186528488208b89528652848820989098559484526001918201805480840182559087529584902088519690970290960180546001600160a01b0319169590961694909417855585820151949093019390935581518781529283015281018390527f142495d58c8fd8701db1b1d5a807743699bc5f87d97a4b64006eaeb9e9ac5e899060600160405180910390a150505050565b60006001600160e01b031982166380ac58cd60e01b148061438d57506001600160e01b03198216635b5e139f60e01b145b806108c857506301ffc9a760e01b6001600160e01b03198316146108c8565b6143b88484848461478c565b6143c282846124a8565b6144265760405162461bcd60e51b815260206004820152602f60248201527f4c43543a2074686520746f6b656e207374617475732069732073657420746f2060448201526e6e6f6e7472616e7366657261626c6560881b60648201526084016109fb565b61443082846115f5565b6144a25760405162461bcd60e51b815260206004820152603c60248201527f4c43543a2074686520746f6b656e20646570656e6473206f6e206174206c656160448201527f7374206f6e65206e6f6e7472616e7366657261626c6520746f6b656e0000000060648201526084016109fb565b60005b6000838152600b6020526040902060040154811015610fcf576000838152600b602052604081206004018054839081106144e1576144e1615003565b60009182526020808320600290920290910154868352600b9091526040822060040180546001600160a01b039092169350908490811061452357614523615003565b60009182526020909120600160029092020101546040516323b872dd60e01b81526001600160a01b038981166004830152888116602483015260448201839052919250908316906323b872dd90606401600060405180830381600087803b15801561458d57600080fd5b505af11580156145a1573d6000803e3d6000fd5b5050600190940193506144a592505050565b60008072184f03e93ff9f4daa797ed6e38ed64bf6a1f0160401b83106145f25772184f03e93ff9f4daa797ed6e38ed64bf6a1f0160401b830492506040015b6d04ee2d6d415b85acef8100000000831061461e576d04ee2d6d415b85acef8100000000830492506020015b662386f26fc10000831061463c57662386f26fc10000830492506010015b6305f5e1008310614654576305f5e100830492506008015b612710831061466857612710830492506004015b6064831061467a576064830492506002015b600a83106108c85760010192915050565b60006001600160a01b0384163b1561478157604051630a85bd0160e11b81526001600160a01b0385169063150b7a02906146cf90339089908890889060040161590f565b6020604051808303816000875af192505050801561470a575060408051601f3d908101601f191682019092526147079181019061594c565b60015b614767573d808015614738576040519150601f19603f3d011682016040523d82523d6000602084013e61473d565b606091505b50805160000361475f5760405162461bcd60e51b81526004016109fb906158bd565b805181602001fd5b6001600160e01b031916630a85bd0160e11b149050612491565b506001949350505050565b60018111156147fb5760405162461bcd60e51b815260206004820152603560248201527f455243373231456e756d657261626c653a20636f6e7365637574697665207472604482015274185b9cd9995c9cc81b9bdd081cdd5c1c1bdc9d1959605a1b60648201526084016109fb565b816001600160a01b0385166148575761485281600980546000838152600a60205260408120829055600182018355919091527f6e1540171b6c0c960b71a7020d9f60077f6af931a8bbf590da0223dacf75c7af0155565b61487a565b836001600160a01b0316856001600160a01b03161461487a5761487a85826148b9565b6001600160a01b0384166148965761489181614956565b610fcf565b846001600160a01b0316846001600160a01b031614610fcf57610fcf8482614a05565b600060016148c684611f7d565b6148d09190615045565b600083815260086020526040902054909150808214614923576001600160a01b03841660009081526007602090815260408083208584528252808320548484528184208190558352600890915290208190555b5060009182526008602090815260408084208490556001600160a01b039094168352600781528383209183525290812055565b60095460009061496890600190615045565b6000838152600a60205260408120546009805493945090928490811061499057614990615003565b9060005260206000200154905080600983815481106149b1576149b1615003565b6000918252602080832090910192909255828152600a909152604080822084905585825281205560098054806149e9576149e9615058565b6001900381819060005260206000200160009055905550505050565b6000614a1083611f7d565b6001600160a01b039093166000908152600760209081526040808320868452825280832085905593825260089052919091209190915550565b50805460008255600202906000526020600020908101906135b991905b80821115614a8b5780546001600160a01b031916815560006001820155600201614a66565b5090565b6001600160e01b0319811681146135b957600080fd5b600060208284031215614ab757600080fd5b8135611f7681614a8f565b60005b83811015614add578181015183820152602001614ac5565b50506000910152565b60008151808452614afe816020860160208601614ac2565b601f01601f19169290920160200192915050565b602081526000611f766020830184614ae6565b600060208284031215614b3757600080fd5b5035919050565b6001600160a01b03811681146135b957600080fd5b60008060408385031215614b6657600080fd5b8235614b7181614b3e565b946020939093013593505050565b600080600060608486031215614b9457600080fd5b505081359360208301359350604090920135919050565b60008083601f840112614bbd57600080fd5b50813567ffffffffffffffff811115614bd557600080fd5b602083019150836020828501011115614bed57600080fd5b9250929050565b600080600060408486031215614c0957600080fd5b83359250602084013567ffffffffffffffff811115614c2757600080fd5b614c3386828701614bab565b9497909650939450505050565b600080600060608486031215614c5557600080fd5b8335614c6081614b3e565b92506020840135614c7081614b3e565b929592945050506040919091013590565b60008060008060608587031215614c9757600080fd5b843567ffffffffffffffff811115614cae57600080fd5b614cba87828801614bab565b9095509350506020850135614cce81614b3e565b9396929550929360400135925050565b80151581146135b957600080fd5b600080600060608486031215614d0157600080fd5b833592506020840135614d1381614b3e565b91506040840135614d2381614cde565b809150509250925092565b60008060408385031215614d4157600080fd5b823591506020830135614d5381614b3e565b809150509250929050565b60008060408385031215614d7157600080fd5b823591506020830135614d5381614cde565b60008060408385031215614d9657600080fd5b50508035926020909101359150565b600060208284031215614db757600080fd5b8135611f7681614b3e565b60008060008060608587031215614dd857600080fd5b843567ffffffffffffffff811115614def57600080fd5b614dfb87828801614bab565b90989097506020870135966040013595509350505050565b600080600060608486031215614e2857600080fd5b833592506020840135614c7081614b3e565b60008060408385031215614e4d57600080fd5b8235614e5881614b3e565b91506020830135614d5381614cde565b634e487b7160e01b600052604160045260246000fd5b60008060008060808587031215614e9457600080fd5b8435614e9f81614b3e565b93506020850135614eaf81614b3e565b925060408501359150606085013567ffffffffffffffff80821115614ed357600080fd5b818701915087601f830112614ee757600080fd5b813581811115614ef957614ef9614e68565b604051601f8201601f19908116603f01168101908382118183101715614f2157614f21614e68565b816040528281528a6020848701011115614f3a57600080fd5b82602086016020830137600060208483010152809550505050505092959194509250565b60008060408385031215614f7157600080fd5b8235614f7c81614b3e565b91506020830135614d5381614b3e565b600181811c90821680614fa057607f821691505b6020821081036115ef57634e487b7160e01b600052602260045260246000fd5b60208082526023908201527f4261627920576f6f6c62616c6c3a206e616d65494420646f65736e27742065786040820152621a5cdd60ea1b606082015260800190565b634e487b7160e01b600052603260045260246000fd5b634e487b7160e01b600052602160045260246000fd5b634e487b7160e01b600052601160045260246000fd5b818103818111156108c8576108c861502f565b634e487b7160e01b600052603160045260246000fd5b60208082526034908201527f426162792020576f6f6c62616c6c3a2073656e646572206973206e6f74207468604082015273329037bbb732b91037b3103a3432903730b6b29760611b606082015260800190565b6020808252602d908201527f4552433732313a2063616c6c6572206973206e6f7420746f6b656e206f776e6560408201526c1c881bdc88185c1c1c9bdd9959609a1b606082015260800190565b60208082526058908201527f4c6f636b656420546f6b656e3a20746f6b656e4944206973206c6f636b65642060408201527f616e642063616c6c6572206973206e6f742074686520636f6e7472616374206860608201527f6f6c64696e6720746865206c6f636b696e6720746f6b656e0000000000000000608082015260a00190565b81835281816020850137506000828201602090810191909152601f909101601f19169091010190565b6040815260006151cf604083018486615192565b9050601760f91b60208301529392505050565b6000602082840312156151f457600080fd5b8151611f7681614cde565b60208082526037908201527f4261627920576f6f6c62616c6c3a206e616d652063616e27742068617665202760408201527f2e2720636861726163746572732077697468696e20696e000000000000000000606082015260800190565b604081526000615270604083018486615192565b9050602360f81b60208301529392505050565b60208082526037908201527f4261627920576f6f6c62616c6c3a206e616d652063616e27742068617665202760408201527f232720636861726163746572732077697468696e20696e000000000000000000606082015260800190565b6040815260006152f4604083018486615192565b9050601d60f91b60208301529392505050565b60208082526037908201527f4261627920576f6f6c62616c6c3a206e616d652063616e27742068617665202760408201527f3a2720636861726163746572732077697468696e20696e000000000000000000606082015260800190565b81838237602360f81b9101908152600101919050565b6000825161538c818460208701614ac2565b9190910192915050565b6000602082840312156153a857600080fd5b5051919050565b808201808211156108c8576108c861502f565b601f821115610a9c576000816000526020600020601f850160051c810160208610156153eb5750805b601f850160051c820191505b818110156129ce578281556001016153f7565b67ffffffffffffffff83111561542257615422614e68565b615436836154308354614f8c565b836153c2565b6000601f84116001811461546a57600085156154525750838201355b600019600387901b1c1916600186901b178355610fcf565b600083815260209020601f19861690835b8281101561549b578685013582556020948501946001909201910161547b565b50868210156154b85760001960f88860031b161c19848701351681555b505060018560011b0183555050505050565b6060815260006154de606083018688615192565b6001600160a01b03949094166020830152506040015292915050565b6020808252603f908201527f4c6f636b656420546f6b656e3a207472616e73616374696f6e206973206e6f7460408201527f2073656e742066726f6d2074686520636f727265637420636f6e747261637400606082015260800190565b60008351602061556b828560208901614ac2565b8184019150601760f91b825260016000865461558681614f8c565b818416801561559c57600181146155b5576155e6565b60ff1983168786015281151582028701850193506155e6565b89600052602060002060005b838110156155dc5781548982018801529086019087016155c1565b5050848288010193505b50919998505050505050505050565b60208082526026908201527f6e616d654944206973206e6f74206f662076657269666965642061732068756d604082015265185b881e595d60d21b606082015260800190565b60408152600061564f604083018587615192565b82810360208481019190915284518083528582019282019060005b818110156156865784518352938301939183019160010161566a565b509098975050505050505050565b828482376000838201601760f91b815283516156b7816001840160208801614ac2565b0160010195945050505050565b6060815260006156d8606083018688615192565b6020830194909452506040015292915050565b600083516156fd818460208801614ac2565b835190830190615711818360208801614ac2565b01949350505050565b60006020828403121561572c57600080fd5b8151611f7681614b3e565b60208082526033908201527f4c6f636b656420546f6b656e3a2074686520746f6b656e7320646f206e6f74206040820152723430bb32903a34329039b0b6b29037bbb732b960691b606082015260800190565b815167ffffffffffffffff8111156157a4576157a4614e68565b6157b8816157b28454614f8c565b846153c2565b602080601f8311600181146157ed57600084156157d55750858301515b600019600386901b1c1916600185901b1785556129ce565b600085815260208120601f198616915b8281101561581c578886015182559484019460019091019084016157fd565b508582101561583a5787850151600019600388901b60f8161c191681555b5050505050600190811b01905550565b60208082526025908201527f4552433732313a207472616e736665722066726f6d20696e636f72726563742060408201526437bbb732b960d91b606082015260800190565b600080604083850312156158a257600080fd5b82516158ad81614b3e565b6020939093015192949293505050565b60208082526032908201527f4552433732313a207472616e7366657220746f206e6f6e20455243373231526560408201527131b2b4bb32b91034b6b83632b6b2b73a32b960711b606082015260800190565b6001600160a01b038581168252841660208201526040810183905260806060820181905260009061594290830184614ae6565b9695505050505050565b60006020828403121561595e57600080fd5b8151611f7681614a8f56fea26469706673582212207aa78751f9adb9f6ed7a3ad8a5126d7793d1f5212d879a975351e5b55ec9424964736f6c63430008190033","linkReferences":{"src/StringUtils.sol":{"StringUtils":[{"start":4957,"length":20},{"start":5121,"length":20},{"start":5272,"length":20},{"start":10400,"length":20},{"start":10564,"length":20},{"start":10715,"length":20}]}}},"methodIdentifiers":{"addLockedToken(uint256,address,uint256)":"edee3965","approve(address,uint256)":"095ea7b3","balanceOf(address)":"70a08231","burn(uint256)":"42966c68","clearExpiredSubnames(uint256)":"09b6e71d","data(uint256)":"f0ba8440","getApproved(uint256)":"081812fc","getExpirationTimestamp(uint256)":"d9e5896e","getName(uint256)":"6b8ff574","getNameType(uint256)":"0ae5fa41","getParentID(uint256)":"30b94770","isAddressWhitelisted(uint256,address)":"d1af032c","isApprovedForAll(address,address)":"e985e9c5","isBurnable(uint256)":"c6f88d4a","isDependent(uint256,address,uint256)":"8fc76be7","isDependentBurnable(uint256)":"86c048c5","isDependentTransferable(uint256)":"4541eda3","isDependentTransferableToAddress(uint256,address)":"32f4da4a","isLocked(uint256)":"f6aacfb1","isTokenBurnable(uint256)":"7827136b","isTokenTransferable(uint256)":"ddaec205","isTokenTransferableToAddress(uint256,address)":"ac3e2c6f","isTransferable(uint256)":"b2564569","isTransferableToAddress(uint256,address)":"99d112fa","lock(uint256,address,uint256)":"cf27cfc4","name()":"06fdde03","newHumanName(string,address,uint256)":"27eff994","newSubname(uint256,string)":"b5916ab2","owner()":"8da5cb5b","ownerOf(uint256)":"6352211e","removeDependence(uint256,address,uint256)":"eee40354","removeLockedToken(uint256,address,uint256)":"e5c8e431","removeSubname(uint256)":"0a41529e","renounceOwnership()":"715018a6","safeTransferFrom(address,address,uint256)":"42842e0e","safeTransferFrom(address,address,uint256,bytes)":"b88d4fde","setApprovalForAll(address,bool)":"a22cb465","setBurnable(uint256,bool)":"33699624","setDataContract(uint256,address)":"73681ba1","setDependence(uint256,address,uint256)":"d6034c26","setPubkey(uint256,bytes32,bytes32)":"0c1906ec","setTokenURI(uint256,string)":"162094c4","setTransferWhitelist(uint256,address,bool)":"2e5466e6","setTransferable(uint256,bool)":"dfe28fbf","subnameIndex(uint256,uint256)":"4812e029","subnamesAmount(uint256)":"1e857a15","supportsInterface(bytes4)":"01ffc9a7","symbol()":"95d89b41","tokenByIndex(uint256)":"4f6ccce7","tokenOfOwnerByIndex(address,uint256)":"2f745c59","tokenURI(uint256)":"c87b56dd","totalSupply()":"18160ddd","transferFrom(address,address,uint256)":"23b872dd","transferOwnership(address)":"f2fde38b","unlock(uint256)":"6198e339","verifyHuman(bytes,uint256,uint256)":"7813fba3"},"id":16}